{
  "contractName": "ERC20Vestable",
  "abi": [
    {
      "constant": true,
      "inputs": [],
      "name": "totalSupply",
      "outputs": [
        {
          "internalType": "uint256",
          "name": "",
          "type": "uint256"
        }
      ],
      "payable": false,
      "stateMutability": "view",
      "type": "function"
    },
    {
      "constant": true,
      "inputs": [
        {
          "internalType": "address",
          "name": "account",
          "type": "address"
        }
      ],
      "name": "isGrantor",
      "outputs": [
        {
          "internalType": "bool",
          "name": "",
          "type": "bool"
        }
      ],
      "payable": false,
      "stateMutability": "view",
      "type": "function"
    },
    {
      "constant": false,
      "inputs": [
        {
          "internalType": "address",
          "name": "sender",
          "type": "address"
        },
        {
          "internalType": "address",
          "name": "recipient",
          "type": "address"
        },
        {
          "internalType": "uint256",
          "name": "amount",
          "type": "uint256"
        }
      ],
      "name": "transferFrom",
      "outputs": [
        {
          "internalType": "bool",
          "name": "",
          "type": "bool"
        }
      ],
      "payable": false,
      "stateMutability": "nonpayable",
      "type": "function"
    },
    {
      "constant": false,
      "inputs": [
        {
          "internalType": "address",
          "name": "account",
          "type": "address"
        }
      ],
      "name": "removeGrantor",
      "outputs": [],
      "payable": false,
      "stateMutability": "nonpayable",
      "type": "function"
    },
    {
      "constant": false,
      "inputs": [
        {
          "internalType": "address",
          "name": "spender",
          "type": "address"
        },
        {
          "internalType": "uint256",
          "name": "addedValue",
          "type": "uint256"
        }
      ],
      "name": "increaseAllowance",
      "outputs": [
        {
          "internalType": "bool",
          "name": "",
          "type": "bool"
        }
      ],
      "payable": false,
      "stateMutability": "nonpayable",
      "type": "function"
    },
    {
      "constant": false,
      "inputs": [
        {
          "internalType": "address",
          "name": "to",
          "type": "address"
        },
        {
          "internalType": "uint256",
          "name": "value",
          "type": "uint256"
        }
      ],
      "name": "safeTransfer",
      "outputs": [
        {
          "internalType": "bool",
          "name": "ok",
          "type": "bool"
        }
      ],
      "payable": false,
      "stateMutability": "nonpayable",
      "type": "function"
    },
    {
      "constant": false,
      "inputs": [
        {
          "internalType": "address",
          "name": "from",
          "type": "address"
        },
        {
          "internalType": "address",
          "name": "to",
          "type": "address"
        },
        {
          "internalType": "uint256",
          "name": "value",
          "type": "uint256"
        }
      ],
      "name": "safeTransferFrom",
      "outputs": [
        {
          "internalType": "bool",
          "name": "ok",
          "type": "bool"
        }
      ],
      "payable": false,
      "stateMutability": "nonpayable",
      "type": "function"
    },
    {
      "constant": false,
      "inputs": [
        {
          "internalType": "address",
          "name": "account",
          "type": "address"
        },
        {
          "internalType": "bool",
          "name": "isUniformGrantor",
          "type": "bool"
        }
      ],
      "name": "addGrantor",
      "outputs": [],
      "payable": false,
      "stateMutability": "nonpayable",
      "type": "function"
    },
    {
      "constant": true,
      "inputs": [
        {
          "internalType": "address",
          "name": "account",
          "type": "address"
        }
      ],
      "name": "isUniformGrantor",
      "outputs": [
        {
          "internalType": "bool",
          "name": "",
          "type": "bool"
        }
      ],
      "payable": false,
      "stateMutability": "view",
      "type": "function"
    },
    {
      "constant": true,
      "inputs": [
        {
          "internalType": "address",
          "name": "account",
          "type": "address"
        }
      ],
      "name": "balanceOf",
      "outputs": [
        {
          "internalType": "uint256",
          "name": "",
          "type": "uint256"
        }
      ],
      "payable": false,
      "stateMutability": "view",
      "type": "function"
    },
    {
      "constant": false,
      "inputs": [],
      "name": "renounceOwnership",
      "outputs": [],
      "payable": false,
      "stateMutability": "nonpayable",
      "type": "function"
    },
    {
      "constant": true,
      "inputs": [],
      "name": "owner",
      "outputs": [
        {
          "internalType": "address",
          "name": "",
          "type": "address"
        }
      ],
      "payable": false,
      "stateMutability": "view",
      "type": "function"
    },
    {
      "constant": true,
      "inputs": [],
      "name": "isOwner",
      "outputs": [
        {
          "internalType": "bool",
          "name": "",
          "type": "bool"
        }
      ],
      "payable": false,
      "stateMutability": "view",
      "type": "function"
    },
    {
      "constant": false,
      "inputs": [
        {
          "internalType": "address",
          "name": "spender",
          "type": "address"
        },
        {
          "internalType": "uint256",
          "name": "subtractedValue",
          "type": "uint256"
        }
      ],
      "name": "decreaseAllowance",
      "outputs": [
        {
          "internalType": "bool",
          "name": "",
          "type": "bool"
        }
      ],
      "payable": false,
      "stateMutability": "nonpayable",
      "type": "function"
    },
    {
      "constant": true,
      "inputs": [
        {
          "internalType": "address",
          "name": "account",
          "type": "address"
        }
      ],
      "name": "isRegistered",
      "outputs": [
        {
          "internalType": "bool",
          "name": "ok",
          "type": "bool"
        }
      ],
      "payable": false,
      "stateMutability": "view",
      "type": "function"
    },
    {
      "constant": false,
      "inputs": [],
      "name": "registerAccount",
      "outputs": [
        {
          "internalType": "bool",
          "name": "ok",
          "type": "bool"
        }
      ],
      "payable": false,
      "stateMutability": "nonpayable",
      "type": "function"
    },
    {
      "constant": true,
      "inputs": [
        {
          "internalType": "address",
          "name": "owner",
          "type": "address"
        },
        {
          "internalType": "address",
          "name": "spender",
          "type": "address"
        }
      ],
      "name": "allowance",
      "outputs": [
        {
          "internalType": "uint256",
          "name": "",
          "type": "uint256"
        }
      ],
      "payable": false,
      "stateMutability": "view",
      "type": "function"
    },
    {
      "constant": false,
      "inputs": [
        {
          "internalType": "address",
          "name": "newOwner",
          "type": "address"
        }
      ],
      "name": "transferOwnership",
      "outputs": [],
      "payable": false,
      "stateMutability": "nonpayable",
      "type": "function"
    },
    {
      "constant": false,
      "inputs": [
        {
          "internalType": "address",
          "name": "spender",
          "type": "address"
        },
        {
          "internalType": "uint256",
          "name": "value",
          "type": "uint256"
        }
      ],
      "name": "safeApprove",
      "outputs": [
        {
          "internalType": "bool",
          "name": "ok",
          "type": "bool"
        }
      ],
      "payable": false,
      "stateMutability": "nonpayable",
      "type": "function"
    },
    {
      "anonymous": false,
      "inputs": [
        {
          "indexed": true,
          "internalType": "address",
          "name": "vestingLocation",
          "type": "address"
        },
        {
          "indexed": false,
          "internalType": "uint32",
          "name": "cliffDuration",
          "type": "uint32"
        },
        {
          "indexed": true,
          "internalType": "uint32",
          "name": "duration",
          "type": "uint32"
        },
        {
          "indexed": false,
          "internalType": "uint32",
          "name": "interval",
          "type": "uint32"
        },
        {
          "indexed": true,
          "internalType": "bool",
          "name": "isRevocable",
          "type": "bool"
        }
      ],
      "name": "VestingScheduleCreated",
      "type": "event"
    },
    {
      "anonymous": false,
      "inputs": [
        {
          "indexed": true,
          "internalType": "address",
          "name": "beneficiary",
          "type": "address"
        },
        {
          "indexed": true,
          "internalType": "uint256",
          "name": "vestingAmount",
          "type": "uint256"
        },
        {
          "indexed": false,
          "internalType": "uint32",
          "name": "startDay",
          "type": "uint32"
        },
        {
          "indexed": false,
          "internalType": "address",
          "name": "vestingLocation",
          "type": "address"
        },
        {
          "indexed": true,
          "internalType": "address",
          "name": "grantor",
          "type": "address"
        }
      ],
      "name": "VestingTokensGranted",
      "type": "event"
    },
    {
      "anonymous": false,
      "inputs": [
        {
          "indexed": true,
          "internalType": "address",
          "name": "grantHolder",
          "type": "address"
        },
        {
          "indexed": true,
          "internalType": "uint32",
          "name": "onDay",
          "type": "uint32"
        }
      ],
      "name": "GrantRevoked",
      "type": "event"
    },
    {
      "anonymous": false,
      "inputs": [
        {
          "indexed": true,
          "internalType": "address",
          "name": "account",
          "type": "address"
        }
      ],
      "name": "GrantorAdded",
      "type": "event"
    },
    {
      "anonymous": false,
      "inputs": [
        {
          "indexed": true,
          "internalType": "address",
          "name": "account",
          "type": "address"
        }
      ],
      "name": "GrantorRemoved",
      "type": "event"
    },
    {
      "anonymous": false,
      "inputs": [
        {
          "indexed": true,
          "internalType": "address",
          "name": "account",
          "type": "address"
        }
      ],
      "name": "AccountRegistered",
      "type": "event"
    },
    {
      "anonymous": false,
      "inputs": [
        {
          "indexed": true,
          "internalType": "address",
          "name": "previousOwner",
          "type": "address"
        },
        {
          "indexed": true,
          "internalType": "address",
          "name": "newOwner",
          "type": "address"
        }
      ],
      "name": "OwnershipTransferred",
      "type": "event"
    },
    {
      "anonymous": false,
      "inputs": [
        {
          "indexed": true,
          "internalType": "address",
          "name": "from",
          "type": "address"
        },
        {
          "indexed": true,
          "internalType": "address",
          "name": "to",
          "type": "address"
        },
        {
          "indexed": false,
          "internalType": "uint256",
          "name": "value",
          "type": "uint256"
        }
      ],
      "name": "Transfer",
      "type": "event"
    },
    {
      "anonymous": false,
      "inputs": [
        {
          "indexed": true,
          "internalType": "address",
          "name": "owner",
          "type": "address"
        },
        {
          "indexed": true,
          "internalType": "address",
          "name": "spender",
          "type": "address"
        },
        {
          "indexed": false,
          "internalType": "uint256",
          "name": "value",
          "type": "uint256"
        }
      ],
      "name": "Approval",
      "type": "event"
    },
    {
      "constant": true,
      "inputs": [
        {
          "internalType": "address",
          "name": "grantHolder",
          "type": "address"
        }
      ],
      "name": "getIntrinsicVestingSchedule",
      "outputs": [
        {
          "internalType": "uint32",
          "name": "vestDuration",
          "type": "uint32"
        },
        {
          "internalType": "uint32",
          "name": "cliffDuration",
          "type": "uint32"
        },
        {
          "internalType": "uint32",
          "name": "vestIntervalDays",
          "type": "uint32"
        }
      ],
      "payable": false,
      "stateMutability": "view",
      "type": "function"
    },
    {
      "constant": false,
      "inputs": [
        {
          "internalType": "address",
          "name": "beneficiary",
          "type": "address"
        },
        {
          "internalType": "uint256",
          "name": "totalAmount",
          "type": "uint256"
        },
        {
          "internalType": "uint256",
          "name": "vestingAmount",
          "type": "uint256"
        },
        {
          "internalType": "uint32",
          "name": "startDay",
          "type": "uint32"
        },
        {
          "internalType": "uint32",
          "name": "duration",
          "type": "uint32"
        },
        {
          "internalType": "uint32",
          "name": "cliffDuration",
          "type": "uint32"
        },
        {
          "internalType": "uint32",
          "name": "interval",
          "type": "uint32"
        },
        {
          "internalType": "bool",
          "name": "isRevocable",
          "type": "bool"
        }
      ],
      "name": "grantVestingTokens",
      "outputs": [
        {
          "internalType": "bool",
          "name": "ok",
          "type": "bool"
        }
      ],
      "payable": false,
      "stateMutability": "nonpayable",
      "type": "function"
    },
    {
      "constant": false,
      "inputs": [
        {
          "internalType": "address",
          "name": "beneficiary",
          "type": "address"
        },
        {
          "internalType": "uint256",
          "name": "totalAmount",
          "type": "uint256"
        },
        {
          "internalType": "uint256",
          "name": "vestingAmount",
          "type": "uint256"
        },
        {
          "internalType": "uint32",
          "name": "startDay",
          "type": "uint32"
        },
        {
          "internalType": "uint32",
          "name": "duration",
          "type": "uint32"
        },
        {
          "internalType": "uint32",
          "name": "cliffDuration",
          "type": "uint32"
        },
        {
          "internalType": "uint32",
          "name": "interval",
          "type": "uint32"
        },
        {
          "internalType": "bool",
          "name": "isRevocable",
          "type": "bool"
        }
      ],
      "name": "safeGrantVestingTokens",
      "outputs": [
        {
          "internalType": "bool",
          "name": "ok",
          "type": "bool"
        }
      ],
      "payable": false,
      "stateMutability": "nonpayable",
      "type": "function"
    },
    {
      "constant": true,
      "inputs": [],
      "name": "today",
      "outputs": [
        {
          "internalType": "uint32",
          "name": "dayNumber",
          "type": "uint32"
        }
      ],
      "payable": false,
      "stateMutability": "view",
      "type": "function"
    },
    {
      "constant": true,
      "inputs": [
        {
          "internalType": "address",
          "name": "grantHolder",
          "type": "address"
        },
        {
          "internalType": "uint32",
          "name": "onDayOrToday",
          "type": "uint32"
        }
      ],
      "name": "vestingForAccountAsOf",
      "outputs": [
        {
          "internalType": "uint256",
          "name": "amountVested",
          "type": "uint256"
        },
        {
          "internalType": "uint256",
          "name": "amountNotVested",
          "type": "uint256"
        },
        {
          "internalType": "uint256",
          "name": "amountOfGrant",
          "type": "uint256"
        },
        {
          "internalType": "uint32",
          "name": "vestStartDay",
          "type": "uint32"
        },
        {
          "internalType": "uint32",
          "name": "vestDuration",
          "type": "uint32"
        },
        {
          "internalType": "uint32",
          "name": "cliffDuration",
          "type": "uint32"
        },
        {
          "internalType": "uint32",
          "name": "vestIntervalDays",
          "type": "uint32"
        },
        {
          "internalType": "bool",
          "name": "isActive",
          "type": "bool"
        },
        {
          "internalType": "bool",
          "name": "wasRevoked",
          "type": "bool"
        }
      ],
      "payable": false,
      "stateMutability": "view",
      "type": "function"
    },
    {
      "constant": true,
      "inputs": [
        {
          "internalType": "uint32",
          "name": "onDayOrToday",
          "type": "uint32"
        }
      ],
      "name": "vestingAsOf",
      "outputs": [
        {
          "internalType": "uint256",
          "name": "amountVested",
          "type": "uint256"
        },
        {
          "internalType": "uint256",
          "name": "amountNotVested",
          "type": "uint256"
        },
        {
          "internalType": "uint256",
          "name": "amountOfGrant",
          "type": "uint256"
        },
        {
          "internalType": "uint32",
          "name": "vestStartDay",
          "type": "uint32"
        },
        {
          "internalType": "uint32",
          "name": "vestDuration",
          "type": "uint32"
        },
        {
          "internalType": "uint32",
          "name": "cliffDuration",
          "type": "uint32"
        },
        {
          "internalType": "uint32",
          "name": "vestIntervalDays",
          "type": "uint32"
        },
        {
          "internalType": "bool",
          "name": "isActive",
          "type": "bool"
        },
        {
          "internalType": "bool",
          "name": "wasRevoked",
          "type": "bool"
        }
      ],
      "payable": false,
      "stateMutability": "view",
      "type": "function"
    },
    {
      "constant": false,
      "inputs": [
        {
          "internalType": "address",
          "name": "grantHolder",
          "type": "address"
        },
        {
          "internalType": "uint32",
          "name": "onDay",
          "type": "uint32"
        }
      ],
      "name": "revokeGrant",
      "outputs": [
        {
          "internalType": "bool",
          "name": "ok",
          "type": "bool"
        }
      ],
      "payable": false,
      "stateMutability": "nonpayable",
      "type": "function"
    },
    {
      "constant": false,
      "inputs": [
        {
          "internalType": "address",
          "name": "to",
          "type": "address"
        },
        {
          "internalType": "uint256",
          "name": "value",
          "type": "uint256"
        }
      ],
      "name": "transfer",
      "outputs": [
        {
          "internalType": "bool",
          "name": "ok",
          "type": "bool"
        }
      ],
      "payable": false,
      "stateMutability": "nonpayable",
      "type": "function"
    },
    {
      "constant": false,
      "inputs": [
        {
          "internalType": "address",
          "name": "spender",
          "type": "address"
        },
        {
          "internalType": "uint256",
          "name": "value",
          "type": "uint256"
        }
      ],
      "name": "approve",
      "outputs": [
        {
          "internalType": "bool",
          "name": "ok",
          "type": "bool"
        }
      ],
      "payable": false,
      "stateMutability": "nonpayable",
      "type": "function"
    }
  ],
  "bytecode": "0x6080604052620000176001600160e01b036200009316565b600380546001600160a01b0319166001600160a01b0392831617908190556040519116906000907f8be0079c531659141344cd1fd0a4f28419497f9722a3daafe3b4186f6b6457e0908290a3620000766001600160e01b036200009716565b506200008d3360006001600160e01b03620000e116565b62000288565b3390565b33600081815260046020526040808220805460ff19166001179055519091907fcd822dc9688e20acea68724a2fbcfe4f3e526d20ecaa37b18fe3047ab377d6a5908390a250600190565b6001600160a01b038216620000f557600080fd5b620001108260056200015e60201b620022bb1790919060201c565b6001600160a01b038216600081815260066020526040808220805460ff1916851515179055517f614c7c37719098320f845a142223983b9adcc4c3f2663971d5b0eb4c661a24e79190a25050565b6200017382826001600160e01b036200020516565b15620001e057604080517f08c379a000000000000000000000000000000000000000000000000000000000815260206004820152601f60248201527f526f6c65733a206163636f756e7420616c72656164792068617320726f6c6500604482015290519081900360640190fd5b6001600160a01b0316600090815260209190915260409020805460ff19166001179055565b60006001600160a01b03821662000268576040517f08c379a00000000000000000000000000000000000000000000000000000000081526004018080602001828103825260228152602001806200294b6022913960400191505060405180910390fd5b506001600160a01b03166000908152602091909152604090205460ff1690565b6126b380620002986000396000f3fe608060405234801561001057600080fd5b50600436106101c45760003560e01c8063715018a6116100f9578063b74e452b11610097578063d9f226e911610071578063d9f226e91461066f578063dd62ed3e14610677578063f2fde38b146106a5578063fbc6d1cb146106cb576101c4565b8063b74e452b146105f6578063c3c5a54714610617578063d56ad0ba1461063d576101c4565b80638f32d59b116100d35780638f32d59b14610548578063a457c2d714610550578063a9059cbb1461057c578063acc27b98146105a8576101c4565b8063715018a6146104bb5780637af023a9146104c35780638da5cb5b14610524576101c4565b8063395093511161016657806342842e0e1161014057806342842e0e1461040b57806344e393cb146104415780636d71a9c61461046f57806370a0823114610495576101c4565b8063395093511461035257806341d5f6191461037e578063423f6cef146103df576101c4565b80631bd2cf38116101a25780631bd2cf381461024957806323b872dd1461027b5780632455a035146102b1578063332cc9c61461032a576101c4565b8063095ea7b3146101c957806318160ddd14610209578063190de9f714610223575b600080fd5b6101f5600480360360408110156101df57600080fd5b506001600160a01b0381351690602001356106f7565b604080519115158252519081900360200190f35b61021161081c565b60408051918252519081900360200190f35b6101f56004803603602081101561023957600080fd5b50356001600160a01b0316610822565b6101f56004803603604081101561025f57600080fd5b5080356001600160a01b0316906020013563ffffffff1661083b565b6101f56004803603606081101561029157600080fd5b506001600160a01b03813581169160208101359091169060400135610b37565b6102d4600480360360208110156102c757600080fd5b503563ffffffff16610bc4565b60408051998a5260208a01989098528888019690965263ffffffff9485166060890152928416608088015290831660a087015290911660c0850152151560e0840152151561010083015251908190036101200190f35b6103506004803603602081101561034057600080fd5b50356001600160a01b0316610bfb565b005b6101f56004803603604081101561036857600080fd5b506001600160a01b038135169060200135610c4e565b6101f5600480360361010081101561039557600080fd5b506001600160a01b038135169060208101359060408101359063ffffffff6060820135811691608081013582169160a082013581169160c08101359091169060e001351515610cab565b6101f5600480360360408110156103f557600080fd5b506001600160a01b038135169060200135610d67565b6101f56004803603606081101561042157600080fd5b506001600160a01b03813581169160208101359091169060400135610dd2565b6103506004803603604081101561045757600080fd5b506001600160a01b0381351690602001351515610e3f565b6101f56004803603602081101561048557600080fd5b50356001600160a01b0316610e94565b610211600480360360208110156104ab57600080fd5b50356001600160a01b0316610ec5565b610350610ee0565b6101f560048036036101008110156104da57600080fd5b506001600160a01b038135169060208101359060408101359063ffffffff6060820135811691608081013582169160a082013581169160c08101359091169060e001351515610f60565b61052c61103b565b604080516001600160a01b039092168252519081900360200190f35b6101f561104a565b6101f56004803603604081101561056657600080fd5b506001600160a01b038135169060200135611070565b6101f56004803603604081101561059257600080fd5b506001600160a01b0381351690602001356110de565b6105ce600480360360208110156105be57600080fd5b50356001600160a01b03166111b8565b6040805163ffffffff9485168152928416602084015292168183015290519081900360600190f35b6105fe611260565b6040805163ffffffff9092168252519081900360200190f35b6101f56004803603602081101561062d57600080fd5b50356001600160a01b0316611269565b6102d46004803603604081101561065357600080fd5b5080356001600160a01b0316906020013563ffffffff16611287565b6101f561139f565b6102116004803603604081101561068d57600080fd5b506001600160a01b03813581169160200135166113e9565b610350600480360360208110156106bb57600080fd5b50356001600160a01b0316611414565b6101f5600480360360408110156106e157600080fd5b506001600160a01b038135169060200135611478565b6000338261070d8282610708611260565b6114d8565b8161071784610ec5565b106107535760405180604001604052806019815260200178696e73756666696369656e74207665737465642066756e647360381b81525061077f565b60405180604001604052806012815260200171696e73756666696369656e742066756e647360701b8152505b906108085760405162461bcd60e51b81526004018080602001828103825283818151815260200191508051906020019080838360005b838110156107cd5781810151838201526020016107b5565b50505050905090810190601f1680156107fa5780820380516001836020036101000a031916815260200191505b509250505060405180910390fd5b5061081385856114ef565b95945050505050565b60025490565b600061083560058363ffffffff61150316565b92915050565b600061084633610822565b610885576040805162461bcd60e51b815260206004820152600b60248201526a37b7363ca3b930b73a37b960a91b604482015290519081900360640190fd5b6001600160a01b0380841660009081526008602090815260408083206002810154909416835260079091528120906108bb61103b565b6001600160a01b0316336001600160a01b031614806108e6575060038301546001600160a01b031633145b610925576040805162461bcd60e51b815260206004820152600b60248201526a1b9bdd08185b1b1bddd95960aa1b604482015290519081900360640190fd5b825460ff1661097b576040805162461bcd60e51b815260206004820152601a60248201527f6e6f206163746976652076657374696e67207363686564756c65000000000000604482015290519081900360640190fd5b8154610100900460ff166109c4576040805162461bcd60e51b815260206004820152600b60248201526a69727265766f6361626c6560a81b604482015290519081900360640190fd5b8154835462010000900463ffffffff908116600160301b90920481169190910181169086161115610a28576040805162461bcd60e51b81526020600482015260096024820152681b9bc81959999958dd60ba1b604482015290519081900360640190fd5b610a30611260565b63ffffffff168563ffffffff161015610a90576040805162461bcd60e51b815260206004820152601d60248201527f63616e6e6f74207265766f6b652076657374656420686f6c64696e6773000000604482015290519081900360640190fd5b610a9a868661156a565b6003840154909150610ab79087906001600160a01b0316836116bc565b6003830154610ad19087906001600160a01b031683610b37565b506001600160a01b038616600081815260086020526040808220805460ff1961ff0019909116610100171690555163ffffffff881692917f906c0c4c98565a396c542d9102cae7a794e84af6763123e068a1b277333bf4a491a350600195945050505050565b6000610b448484846117a8565b610bba84610b50611904565b610bb585604051806060016040528060288152602001612584602891396001600160a01b038a16600090815260016020526040812090610b8e611904565b6001600160a01b03168152602081019190915260400160002054919063ffffffff61190816565b6116bc565b5060019392505050565b6000806000806000806000806000610bdc338b611287565b9850985098509850985098509850985098509193959799909294969850565b610c0361104a565b610c42576040805162461bcd60e51b815260206004820181905260248201526000805160206125ac833981519152604482015290519081900360640190fd5b610c4b81611962565b50565b6000610ca2610c5b611904565b84610bb58560016000610c6c611904565b6001600160a01b03908116825260208083019390935260409182016000908120918c16815292529020549063ffffffff6119bd16565b50600192915050565b6000610cb633610822565b610cf5576040805162461bcd60e51b815260206004820152600b60248201526a37b7363ca3b930b73a37b960a91b604482015290519081900360640190fd5b88610cff81611a1e565b610d49576040805162461bcd60e51b81526020600482015260166024820152751858d8dbdd5b9d081b9bdd081c9959da5cdd195c995960521b604482015290519081900360640190fd5b610d598a8a8a8a8a8a8a8a610f60565b9a9950505050505050505050565b600082610d7381611a1e565b610dbd576040805162461bcd60e51b81526020600482015260166024820152751858d8dbdd5b9d081b9bdd081c9959da5cdd195c995960521b604482015290519081900360640190fd5b610dc784846110de565b506001949350505050565b600082610dde81611a1e565b610e28576040805162461bcd60e51b81526020600482015260166024820152751858d8dbdd5b9d081b9bdd081c9959da5cdd195c995960521b604482015290519081900360640190fd5b610e33858585610b37565b50600195945050505050565b610e4761104a565b610e86576040805162461bcd60e51b815260206004820181905260248201526000805160206125ac833981519152604482015290519081900360640190fd5b610e908282611a51565b5050565b6000610e9f82610822565b80156108355750506001600160a01b031660009081526006602052604090205460ff1690565b6001600160a01b031660009081526020819052604090205490565b610ee861104a565b610f27576040805162461bcd60e51b815260206004820181905260248201526000805160206125ac833981519152604482015290519081900360640190fd5b6040805162461bcd60e51b81526020600482015260096024820152683337b93134b23232b760b91b604482015290519081900360640190fd5b6000610f6b33610822565b610faa576040805162461bcd60e51b815260206004820152600b60248201526a37b7363ca3b930b73a37b960a91b604482015290519081900360640190fd5b6001600160a01b03891660009081526008602052604090205460ff161561100f576040805162461bcd60e51b81526020600482015260146024820152736772616e7420616c72656164792065786973747360601b604482015290519081900360640190fd5b61101c8985878686611ac3565b5061102b898989898d33611d70565b5060019998505050505050505050565b6003546001600160a01b031690565b6003546000906001600160a01b0316611061611904565b6001600160a01b031614905090565b6000610ca261107d611904565b84610bb58560405180606001604052806025815260200161265a60259139600160006110a7611904565b6001600160a01b03908116825260208083019390935260409182016000908120918d1681529252902054919063ffffffff61190816565b600033826110ef8282610708611260565b816110f984610ec5565b106111355760405180604001604052806019815260200178696e73756666696369656e74207665737465642066756e647360381b815250611161565b60405180604001604052806012815260200171696e73756666696369656e742066756e647360701b8152505b906111ad5760405162461bcd60e51b81526020600482018181528351602484015283519092839260449091019190850190808383600083156107cd5781810151838201526020016107b5565b506108138585612079565b6000806000836111c733610822565b806111da5750336001600160a01b038216145b61121f576040805162461bcd60e51b815260206004820152601160248201527037b7363ca3b930b73a37b927b929b2b63360791b604482015290519081900360640190fd5b505050506001600160a01b031660009081526007602052604090205463ffffffff600160301b8204811692620100008304821692600160501b900490911690565b62015180420490565b6001600160a01b031660009081526004602052604090205460ff1690565b60008060008060008060008060008a61129f33610822565b806112b25750336001600160a01b038216145b6112f7576040805162461bcd60e51b815260206004820152601160248201527037b7363ca3b930b73a37b927b929b2b63360791b604482015290519081900360640190fd5b6001600160a01b03808d16600090815260086020908152604080832060028101549094168352600790915281209061132f8f8f61156a565b6001840154909150611347818363ffffffff61208d16565b93549254939d50909b50995063ffffffff6201000080830482169a50600160301b840482169950830481169750600160501b909204909116945060ff8082169450610100909104169150509295985092959850929598565b33600081815260046020526040808220805460ff19166001179055519091907fcd822dc9688e20acea68724a2fbcfe4f3e526d20ecaa37b18fe3047ab377d6a5908390a250600190565b6001600160a01b03918216600090815260016020908152604080832093909416825291909152205490565b61141c61104a565b61145b576040805162461bcd60e51b815260206004820181905260248201526000805160206125ac833981519152604482015290519081900360640190fd5b61146433611962565b61146d816120cf565b610c4b816000611a51565b60008261148481611a1e565b6114ce576040805162461bcd60e51b81526020600482015260166024820152751858d8dbdd5b9d081b9bdd081c9959da5cdd195c995960521b604482015290519081900360640190fd5b610dc784846106f7565b60006114e48483612173565b909211159392505050565b6000610ca26114fc611904565b84846116bc565b60006001600160a01b03821661154a5760405162461bcd60e51b81526004018080602001828103825260228152602001806125cc6022913960400191505060405180910390fd5b506001600160a01b03166000908152602091909152604090205460ff1690565b6001600160a01b0380831660009081526008602090815260408083206002810154909416835260079091528120909190826115a48561219d565b835490915060ff1615806115d5575081548354620100009081900463ffffffff908116919092048216018116908216105b156115e7575050600101549050610835565b8154835462010000900463ffffffff908116600160301b90920481169190910181169082161061161d5760009350505050610835565b8254825463ffffffff620100009092048216830391600091600160501b9004811690819084168161164a57fe5b0402905060006116978560000160069054906101000a900463ffffffff1663ffffffff1661168b8463ffffffff1689600101546121b990919063ffffffff16565b9063ffffffff61221216565b60018701549091506116af908263ffffffff61208d16565b9650505050505050610835565b6001600160a01b0383166117015760405162461bcd60e51b81526004018080602001828103825260248152602001806126136024913960400191505060405180910390fd5b6001600160a01b0382166117465760405162461bcd60e51b81526004018080602001828103825260228152602001806124fa6022913960400191505060405180910390fd5b6001600160a01b03808416600081815260016020908152604080832094871680845294825291829020859055815185815291517f8c5be1e5ebec7d5bd14f71427d1e84f3dd0314c0f7b2291e5b200ac8c7c3b9259281900390910190a3505050565b6001600160a01b0383166117ed5760405162461bcd60e51b81526004018080602001828103825260258152602001806125ee6025913960400191505060405180910390fd5b6001600160a01b0382166118325760405162461bcd60e51b81526004018080602001828103825260238152602001806124b16023913960400191505060405180910390fd5b6118758160405180606001604052806026815260200161251c602691396001600160a01b038616600090815260208190526040902054919063ffffffff61190816565b6001600160a01b0380851660009081526020819052604080822093909355908416815220546118aa908263ffffffff6119bd16565b6001600160a01b038084166000818152602081815260409182902094909455805185815290519193928716927fddf252ad1be2c89b69c2b068fc378daa952ba7f163c4a11628f55a4df523b3ef92918290030190a3505050565b3390565b6000818484111561195a5760405162461bcd60e51b81526020600482018181528351602484015283519092839260449091019190850190808383600083156107cd5781810151838201526020016107b5565b505050900390565b6001600160a01b03811661197557600080fd5b61198660058263ffffffff61225416565b6040516001600160a01b038216907f33a8bb468e8361c5c40d643192eb6970b91cb87aa0200f8709f5b805087b905390600090a250565b600082820183811015611a17576040805162461bcd60e51b815260206004820152601b60248201527f536166654d6174683a206164646974696f6e206f766572666c6f770000000000604482015290519081900360640190fd5b9392505050565b60006001600160a01b0382163314806108355750506001600160a01b031660009081526004602052604090205460ff1690565b6001600160a01b038216611a6457600080fd5b611a7560058363ffffffff6122bb16565b6001600160a01b038216600081815260066020526040808220805460ff1916851515179055517f614c7c37719098320f845a142223983b9adcc4c3f2663971d5b0eb4c661a24e79190a25050565b6000808463ffffffff16118015611ae25750610e4463ffffffff851611155b8015611af957508363ffffffff168563ffffffff16105b8015611b0c575060018363ffffffff1610155b611b5d576040805162461bcd60e51b815260206004820152601860248201527f696e76616c69642076657374696e67207363686564756c650000000000000000604482015290519081900360640190fd5b8263ffffffff168463ffffffff1681611b7257fe5b0663ffffffff166000148015611ba357508263ffffffff168563ffffffff1681611b9857fe5b0663ffffffff166000145b611bde5760405162461bcd60e51b81526004018080602001828103825260238152602001806126376023913960400191505060405180910390fd5b6040518060a0016040528060011515815260200183151581526020018663ffffffff1681526020018563ffffffff1681526020018463ffffffff1681525060076000886001600160a01b03166001600160a01b0316815260200190815260200160002060008201518160000160006101000a81548160ff02191690831515021790555060208201518160000160016101000a81548160ff02191690831515021790555060408201518160000160026101000a81548163ffffffff021916908363ffffffff16021790555060608201518160000160066101000a81548163ffffffff021916908363ffffffff160217905550608082015181600001600a6101000a81548163ffffffff021916908363ffffffff1602179055509050508115158463ffffffff16876001600160a01b03167fb84219eaee5910cc5311a393fbd4287b14bc791973b97f64d4b61b6d8554adc78887604051808363ffffffff1663ffffffff1681526020018263ffffffff1663ffffffff1681526020019250505060405180910390a450600195945050505050565b6001600160a01b03861660009081526008602052604081205460ff1615611dd5576040805162461bcd60e51b81526020600482015260146024820152736772616e7420616c72656164792065786973747360601b604482015290519081900360640190fd5b858511158015611de55750600085115b8015611df95750612acd63ffffffff851610155b8015611e0d57506205bd8863ffffffff8516105b611e57576040805162461bcd60e51b8152602060048201526016602482015275696e76616c69642076657374696e6720706172616d7360501b604482015290519081900360640190fd5b611e608361233c565b611eb1576040805162461bcd60e51b815260206004820152601860248201527f6e6f20737563682076657374696e67207363686564756c650000000000000000604482015290519081900360640190fd5b611ebc8288886117a8565b6040518060c001604052806001151581526020016000151581526020018563ffffffff168152602001868152602001846001600160a01b03168152602001836001600160a01b031681525060086000896001600160a01b03166001600160a01b0316815260200190815260200160002060008201518160000160006101000a81548160ff02191690831515021790555060208201518160000160016101000a81548160ff02191690831515021790555060408201518160000160026101000a81548163ffffffff021916908363ffffffff1602179055506060820151816001015560808201518160020160006101000a8154816001600160a01b0302191690836001600160a01b0316021790555060a08201518160030160006101000a8154816001600160a01b0302191690836001600160a01b03160217905550905050816001600160a01b031685886001600160a01b03167fce19dc9f3460f5845c81c7fa52526977d7e7275df4b1d0e40ea09653252e0c758787604051808363ffffffff1663ffffffff168152602001826001600160a01b03166001600160a01b031681526020019250505060405180910390a45060019695505050505050565b6000610ca2612086611904565b84846117a8565b6000611a1783836040518060400160405280601e81526020017f536166654d6174683a207375627472616374696f6e206f766572666c6f770000815250611908565b806120d981611a1e565b612123576040805162461bcd60e51b81526020600482015260166024820152751858d8dbdd5b9d081b9bdd081c9959da5cdd195c995960521b604482015290519081900360640190fd5b61212b61104a565b61216a576040805162461bcd60e51b815260206004820181905260248201526000805160206125ac833981519152604482015290519081900360640190fd5b610e908261235a565b60008061217f84610ec5565b90506000610813612190868661156a565b839063ffffffff61208d16565b600063ffffffff8216156121b15781610835565b610835611260565b6000826121c857506000610835565b828202828482816121d557fe5b0414611a175760405162461bcd60e51b81526004018080602001828103825260218152602001806125636021913960400191505060405180910390fd5b6000611a1783836040518060400160405280601a81526020017f536166654d6174683a206469766973696f6e206279207a65726f0000000000008152506123aa565b61225e8282611503565b6122995760405162461bcd60e51b81526004018080602001828103825260218152602001806125426021913960400191505060405180910390fd5b6001600160a01b0316600090815260209190915260409020805460ff19169055565b6122c58282611503565b15612317576040805162461bcd60e51b815260206004820152601f60248201527f526f6c65733a206163636f756e7420616c72656164792068617320726f6c6500604482015290519081900360640190fd5b6001600160a01b0316600090815260209190915260409020805460ff19166001179055565b6001600160a01b031660009081526007602052604090205460ff1690565b61236261104a565b6123a1576040805162461bcd60e51b815260206004820181905260248201526000805160206125ac833981519152604482015290519081900360640190fd5b610c4b8161240f565b600081836123f95760405162461bcd60e51b81526020600482018181528351602484015283519092839260449091019190850190808383600083156107cd5781810151838201526020016107b5565b50600083858161240557fe5b0495945050505050565b6001600160a01b0381166124545760405162461bcd60e51b81526004018080602001828103825260268152602001806124d46026913960400191505060405180910390fd5b6003546040516001600160a01b038084169216907f8be0079c531659141344cd1fd0a4f28419497f9722a3daafe3b4186f6b6457e090600090a3600380546001600160a01b0319166001600160a01b039290921691909117905556fe45524332303a207472616e7366657220746f20746865207a65726f20616464726573734f776e61626c653a206e6577206f776e657220697320746865207a65726f206164647265737345524332303a20617070726f766520746f20746865207a65726f206164647265737345524332303a207472616e7366657220616d6f756e7420657863656564732062616c616e6365526f6c65733a206163636f756e7420646f6573206e6f74206861766520726f6c65536166654d6174683a206d756c7469706c69636174696f6e206f766572666c6f7745524332303a207472616e7366657220616d6f756e74206578636565647320616c6c6f77616e63654f776e61626c653a2063616c6c6572206973206e6f7420746865206f776e6572526f6c65733a206163636f756e7420697320746865207a65726f206164647265737345524332303a207472616e736665722066726f6d20746865207a65726f206164647265737345524332303a20617070726f76652066726f6d20746865207a65726f2061646472657373696e76616c696420636c6966662f6475726174696f6e20666f7220696e74657276616c45524332303a2064656372656173656420616c6c6f77616e63652062656c6f77207a65726fa265627a7a72315820d30892e383e97626560fa6839ec686318691432674d364f791cc88983a9705ca64736f6c634300050b0032526f6c65733a206163636f756e7420697320746865207a65726f2061646472657373",
  "source": "pragma solidity ^0.5.7;\n\nimport \"../openzeppelin-contracts/contracts/token/ERC20/ERC20Pausable.sol\";\nimport \"./VerifiedAccount.sol\";\nimport \"./GrantorRole.sol\";\nimport \"./IERC20Vestable.sol\";\n\n/**\n * @title Contract for grantable ERC20 token vesting schedules\n *\n * @notice Adds to an ERC20 support for grantor wallets, which are able to grant vesting tokens to\n *   beneficiary wallets, following per-wallet custom vesting schedules.\n *\n * @dev Contract which gives subclass contracts the ability to act as a pool of funds for allocating\n *   tokens to any number of other addresses. Token grants support the ability to vest over time in\n *   accordance a predefined vesting schedule. A given wallet can receive no more than one token grant.\n *\n *   Tokens are transferred from the pool to the recipient at the time of grant, but the recipient\n *   will only able to transfer tokens out of their wallet after they have vested. Transfers of non-\n *   vested tokens are prevented.\n *\n *   Two types of toke grants are supported:\n *   - Irrevocable grants, intended for use in cases when vesting tokens have been issued in exchange\n *     for value, such as with tokens that have been purchased in an ICO.\n *   - Revocable grants, intended for use in cases when vesting tokens have been gifted to the holder,\n *     such as with employee grants that are given as compensation.\n */\ncontract ERC20Vestable is ERC20, VerifiedAccount, GrantorRole, IERC20Vestable {\n    using SafeMath for uint256;\n\n    // Date-related constants for sanity-checking dates to reject obvious erroneous inputs\n    // and conversions from seconds to days and years that are more or less leap year-aware.\n    uint32 private constant THOUSAND_YEARS_DAYS = 365243;                   /* See https://www.timeanddate.com/date/durationresult.html?m1=1&d1=1&y1=2000&m2=1&d2=1&y2=3000 */\n    uint32 private constant TEN_YEARS_DAYS = THOUSAND_YEARS_DAYS / 100;     /* Includes leap years (though it doesn't really matter) */\n    uint32 private constant SECONDS_PER_DAY = 24 * 60 * 60;                 /* 86400 seconds in a day */\n    uint32 private constant JAN_1_2000_SECONDS = 946684800;                 /* Saturday, January 1, 2000 0:00:00 (GMT) (see https://www.epochconverter.com/) */\n    uint32 private constant JAN_1_2000_DAYS = JAN_1_2000_SECONDS / SECONDS_PER_DAY;\n    uint32 private constant JAN_1_3000_DAYS = JAN_1_2000_DAYS + THOUSAND_YEARS_DAYS;\n\n    struct vestingSchedule {\n        bool isValid;               /* true if an entry exists and is valid */\n        bool isRevocable;           /* true if the vesting option is revocable (a gift), false if irrevocable (purchased) */\n        uint32 cliffDuration;       /* Duration of the cliff, with respect to the grant start day, in days. */\n        uint32 duration;            /* Duration of the vesting schedule, with respect to the grant start day, in days. */\n        uint32 interval;            /* Duration in days of the vesting interval. */\n    }\n\n    struct tokenGrant {\n        bool isActive;              /* true if this vesting entry is active and in-effect entry. */\n        bool wasRevoked;            /* true if this vesting schedule was revoked. */\n        uint32 startDay;            /* Start day of the grant, in days since the UNIX epoch (start of day). */\n        uint256 amount;             /* Total number of tokens that vest. */\n        address vestingLocation;    /* Address of wallet that is holding the vesting schedule. */\n        address grantor;            /* Grantor that made the grant */\n    }\n\n    mapping(address => vestingSchedule) private _vestingSchedules;\n    mapping(address => tokenGrant) private _tokenGrants;\n\n\n    // =========================================================================\n    // === Methods for administratively creating a vesting schedule for an account.\n    // =========================================================================\n\n    /**\n     * @dev This one-time operation permanently establishes a vesting schedule in the given account.\n     *\n     * For standard grants, this establishes the vesting schedule in the beneficiary's account.\n     * For uniform grants, this establishes the vesting schedule in the linked grantor's account.\n     *\n     * @param vestingLocation = Account into which to store the vesting schedule. Can be the account\n     *   of the beneficiary (for one-off grants) or the account of the grantor (for uniform grants\n     *   made from grant pools).\n     * @param cliffDuration = Duration of the cliff, with respect to the grant start day, in days.\n     * @param duration = Duration of the vesting schedule, with respect to the grant start day, in days.\n     * @param interval = Number of days between vesting increases.\n     * @param isRevocable = True if the grant can be revoked (i.e. was a gift) or false if it cannot\n     *   be revoked (i.e. tokens were purchased).\n     */\n    function _setVestingSchedule(\n        address vestingLocation,\n        uint32 cliffDuration, uint32 duration, uint32 interval,\n        bool isRevocable) internal returns (bool ok) {\n\n        // Check for a valid vesting schedule given (disallow absurd values to reject likely bad input).\n        require(\n            duration > 0 && duration <= TEN_YEARS_DAYS\n            && cliffDuration < duration\n            && interval >= 1,\n            \"invalid vesting schedule\"\n        );\n\n        // Make sure the duration values are in harmony with interval (both should be an exact multiple of interval).\n        require(\n            duration % interval == 0 && cliffDuration % interval == 0,\n            \"invalid cliff/duration for interval\"\n        );\n\n        // Create and populate a vesting schedule.\n        _vestingSchedules[vestingLocation] = vestingSchedule(\n            true/*isValid*/,\n            isRevocable,\n            cliffDuration, duration, interval\n        );\n\n        // Emit the event and return success.\n        emit VestingScheduleCreated(\n            vestingLocation,\n            cliffDuration, duration, interval,\n            isRevocable);\n        return true;\n    }\n\n    function _hasVestingSchedule(address account) internal view returns (bool ok) {\n        return _vestingSchedules[account].isValid;\n    }\n\n    /**\n     * @dev returns all information about the vesting schedule directly associated with the given\n     * account. This can be used to double check that a uniform grantor has been set up with a\n     * correct vesting schedule. Also, recipients of standard (non-uniform) grants can use this.\n     * This method is only callable by the account holder or a grantor, so this is mainly intended\n     * for administrative use.\n     *\n     * Holders of uniform grants must use vestingAsOf() to view their vesting schedule, as it is\n     * stored in the grantor account.\n     *\n     * @param grantHolder = The address to do this for.\n     *   the special value 0 to indicate today.\n     * @return = A tuple with the following values:\n     *   vestDuration = grant duration in days.\n     *   cliffDuration = duration of the cliff.\n     *   vestIntervalDays = number of days between vesting periods.\n     */\n    function getIntrinsicVestingSchedule(address grantHolder)\n    public\n    view\n    onlyGrantorOrSelf(grantHolder)\n    returns (\n        uint32 vestDuration,\n        uint32 cliffDuration,\n        uint32 vestIntervalDays\n    )\n    {\n        return (\n        _vestingSchedules[grantHolder].duration,\n        _vestingSchedules[grantHolder].cliffDuration,\n        _vestingSchedules[grantHolder].interval\n        );\n    }\n\n\n    // =========================================================================\n    // === Token grants (general-purpose)\n    // === Methods to be used for administratively creating one-off token grants with vesting schedules.\n    // =========================================================================\n\n    /**\n     * @dev Immediately grants tokens to an account, referencing a vesting schedule which may be\n     * stored in the same account (individual/one-off) or in a different account (shared/uniform).\n     *\n     * @param beneficiary = Address to which tokens will be granted.\n     * @param totalAmount = Total number of tokens to deposit into the account.\n     * @param vestingAmount = Out of totalAmount, the number of tokens subject to vesting.\n     * @param startDay = Start day of the grant's vesting schedule, in days since the UNIX epoch\n     *   (start of day). The startDay may be given as a date in the future or in the past, going as far\n     *   back as year 2000.\n     * @param vestingLocation = Account where the vesting schedule is held (must already exist).\n     * @param grantor = Account which performed the grant. Also the account from where the granted\n     *   funds will be withdrawn.\n     */\n    function _grantVestingTokens(\n        address beneficiary,\n        uint256 totalAmount,\n        uint256 vestingAmount,\n        uint32 startDay,\n        address vestingLocation,\n        address grantor\n    )\n    internal returns (bool ok)\n    {\n        // Make sure no prior grant is in effect.\n        require(!_tokenGrants[beneficiary].isActive, \"grant already exists\");\n\n        // Check for valid vestingAmount\n        require(\n            vestingAmount <= totalAmount && vestingAmount > 0\n            && startDay >= JAN_1_2000_DAYS && startDay < JAN_1_3000_DAYS,\n            \"invalid vesting params\");\n\n        // Make sure the vesting schedule we are about to use is valid.\n        require(_hasVestingSchedule(vestingLocation), \"no such vesting schedule\");\n\n        // Transfer the total number of tokens from grantor into the account's holdings.\n        _transfer(grantor, beneficiary, totalAmount);\n        /* Emits a Transfer event. */\n\n        // Create and populate a token grant, referencing vesting schedule.\n        _tokenGrants[beneficiary] = tokenGrant(\n            true/*isActive*/,\n            false/*wasRevoked*/,\n            startDay,\n            vestingAmount,\n            vestingLocation, /* The wallet address where the vesting schedule is kept. */\n            grantor             /* The account that performed the grant (where revoked funds would be sent) */\n        );\n\n        // Emit the event and return success.\n        emit VestingTokensGranted(beneficiary, vestingAmount, startDay, vestingLocation, grantor);\n        return true;\n    }\n\n    /**\n     * @dev Immediately grants tokens to an address, including a portion that will vest over time\n     * according to a set vesting schedule. The overall duration and cliff duration of the grant must\n     * be an even multiple of the vesting interval.\n     *\n     * @param beneficiary = Address to which tokens will be granted.\n     * @param totalAmount = Total number of tokens to deposit into the account.\n     * @param vestingAmount = Out of totalAmount, the number of tokens subject to vesting.\n     * @param startDay = Start day of the grant's vesting schedule, in days since the UNIX epoch\n     *   (start of day). The startDay may be given as a date in the future or in the past, going as far\n     *   back as year 2000.\n     * @param duration = Duration of the vesting schedule, with respect to the grant start day, in days.\n     * @param cliffDuration = Duration of the cliff, with respect to the grant start day, in days.\n     * @param interval = Number of days between vesting increases.\n     * @param isRevocable = True if the grant can be revoked (i.e. was a gift) or false if it cannot\n     *   be revoked (i.e. tokens were purchased).\n     */\n    function grantVestingTokens(\n        address beneficiary,\n        uint256 totalAmount,\n        uint256 vestingAmount,\n        uint32 startDay,\n        uint32 duration,\n        uint32 cliffDuration,\n        uint32 interval,\n        bool isRevocable\n    ) public onlyGrantor returns (bool ok) {\n        // Make sure no prior vesting schedule has been set.\n        require(!_tokenGrants[beneficiary].isActive, \"grant already exists\");\n\n        // The vesting schedule is unique to this wallet and so will be stored here,\n        _setVestingSchedule(beneficiary, cliffDuration, duration, interval, isRevocable);\n\n        // Issue grantor tokens to the beneficiary, using beneficiary's own vesting schedule.\n        _grantVestingTokens(beneficiary, totalAmount, vestingAmount, startDay, beneficiary, msg.sender);\n\n        return true;\n    }\n\n    /**\n     * @dev This variant only grants tokens if the beneficiary account has previously self-registered.\n     */\n    function safeGrantVestingTokens(\n        address beneficiary, uint256 totalAmount, uint256 vestingAmount,\n        uint32 startDay, uint32 duration, uint32 cliffDuration, uint32 interval,\n        bool isRevocable) public onlyGrantor onlyExistingAccount(beneficiary) returns (bool ok) {\n\n        return grantVestingTokens(\n            beneficiary, totalAmount, vestingAmount,\n            startDay, duration, cliffDuration, interval,\n            isRevocable);\n    }\n\n\n    // =========================================================================\n    // === Check vesting.\n    // =========================================================================\n\n    /**\n     * @dev returns the day number of the current day, in days since the UNIX epoch.\n     */\n    function today() public view returns (uint32 dayNumber) {\n        return uint32(block.timestamp / SECONDS_PER_DAY);\n    }\n\n    function _effectiveDay(uint32 onDayOrToday) internal view returns (uint32 dayNumber) {\n        return onDayOrToday == 0 ? today() : onDayOrToday;\n    }\n\n    /**\n     * @dev Determines the amount of tokens that have not vested in the given account.\n     *\n     * The math is: not vested amount = vesting amount * (end date - on date)/(end date - start date)\n     *\n     * @param grantHolder = The account to check.\n     * @param onDayOrToday = The day to check for, in days since the UNIX epoch. Can pass\n     *   the special value 0 to indicate today.\n     */\n    function _getNotVestedAmount(address grantHolder, uint32 onDayOrToday) internal view returns (uint256 amountNotVested) {\n        tokenGrant storage grant = _tokenGrants[grantHolder];\n        vestingSchedule storage vesting = _vestingSchedules[grant.vestingLocation];\n        uint32 onDay = _effectiveDay(onDayOrToday);\n\n        // If there's no schedule, or before the vesting cliff, then the full amount is not vested.\n        if (!grant.isActive || onDay < grant.startDay + vesting.cliffDuration)\n        {\n            // None are vested (all are not vested)\n            return grant.amount;\n        }\n        // If after end of vesting, then the not vested amount is zero (all are vested).\n        else if (onDay >= grant.startDay + vesting.duration)\n        {\n            // All are vested (none are not vested)\n            return uint256(0);\n        }\n        // Otherwise a fractional amount is vested.\n        else\n        {\n            // Compute the exact number of days vested.\n            uint32 daysVested = onDay - grant.startDay;\n            // Adjust result rounding down to take into consideration the interval.\n            uint32 effectiveDaysVested = (daysVested / vesting.interval) * vesting.interval;\n\n            // Compute the fraction vested from schedule using 224.32 fixed point math for date range ratio.\n            // Note: This is safe in 256-bit math because max value of X billion tokens = X*10^27 wei, and\n            // typical token amounts can fit into 90 bits. Scaling using a 32 bits value results in only 125\n            // bits before reducing back to 90 bits by dividing. There is plenty of room left, even for token\n            // amounts many orders of magnitude greater than mere billions.\n            uint256 vested = grant.amount.mul(effectiveDaysVested).div(vesting.duration);\n            return grant.amount.sub(vested);\n        }\n    }\n\n    /**\n     * @dev Computes the amount of funds in the given account which are available for use as of\n     * the given day. If there's no vesting schedule then 0 tokens are considered to be vested and\n     * this just returns the full account balance.\n     *\n     * The math is: available amount = total funds - notVestedAmount.\n     *\n     * @param grantHolder = The account to check.\n     * @param onDay = The day to check for, in days since the UNIX epoch.\n     */\n    function _getAvailableAmount(address grantHolder, uint32 onDay) internal view returns (uint256 amountAvailable) {\n        uint256 totalTokens = balanceOf(grantHolder);\n        uint256 vested = totalTokens.sub(_getNotVestedAmount(grantHolder, onDay));\n        return vested;\n    }\n\n    /**\n     * @dev returns all information about the grant's vesting as of the given day\n     * for the given account. Only callable by the account holder or a grantor, so\n     * this is mainly intended for administrative use.\n     *\n     * @param grantHolder = The address to do this for.\n     * @param onDayOrToday = The day to check for, in days since the UNIX epoch. Can pass\n     *   the special value 0 to indicate today.\n     * @return = A tuple with the following values:\n     *   amountVested = the amount out of vestingAmount that is vested\n     *   amountNotVested = the amount that is vested (equal to vestingAmount - vestedAmount)\n     *   amountOfGrant = the amount of tokens subject to vesting.\n     *   vestStartDay = starting day of the grant (in days since the UNIX epoch).\n     *   vestDuration = grant duration in days.\n     *   cliffDuration = duration of the cliff.\n     *   vestIntervalDays = number of days between vesting periods.\n     *   isActive = true if the vesting schedule is currently active.\n     *   wasRevoked = true if the vesting schedule was revoked.\n     */\n    function vestingForAccountAsOf(\n        address grantHolder,\n        uint32 onDayOrToday\n    )\n    public\n    view\n    onlyGrantorOrSelf(grantHolder)\n    returns (\n        uint256 amountVested,\n        uint256 amountNotVested,\n        uint256 amountOfGrant,\n        uint32 vestStartDay,\n        uint32 vestDuration,\n        uint32 cliffDuration,\n        uint32 vestIntervalDays,\n        bool isActive,\n        bool wasRevoked\n    )\n    {\n        tokenGrant storage grant = _tokenGrants[grantHolder];\n        vestingSchedule storage vesting = _vestingSchedules[grant.vestingLocation];\n        uint256 notVestedAmount = _getNotVestedAmount(grantHolder, onDayOrToday);\n        uint256 grantAmount = grant.amount;\n\n        return (\n        grantAmount.sub(notVestedAmount),\n        notVestedAmount,\n        grantAmount,\n        grant.startDay,\n        vesting.duration,\n        vesting.cliffDuration,\n        vesting.interval,\n        grant.isActive,\n        grant.wasRevoked\n        );\n    }\n\n    /**\n     * @dev returns all information about the grant's vesting as of the given day\n     * for the current account, to be called by the account holder.\n     *\n     * @param onDayOrToday = The day to check for, in days since the UNIX epoch. Can pass\n     *   the special value 0 to indicate today.\n     * @return = A tuple with the following values:\n     *   amountVested = the amount out of vestingAmount that is vested\n     *   amountNotVested = the amount that is vested (equal to vestingAmount - vestedAmount)\n     *   amountOfGrant = the amount of tokens subject to vesting.\n     *   vestStartDay = starting day of the grant (in days since the UNIX epoch).\n     *   cliffDuration = duration of the cliff.\n     *   vestDuration = grant duration in days.\n     *   vestIntervalDays = number of days between vesting periods.\n     *   isActive = true if the vesting schedule is currently active.\n     *   wasRevoked = true if the vesting schedule was revoked.\n     */\n    function vestingAsOf(uint32 onDayOrToday) public view returns (\n        uint256 amountVested,\n        uint256 amountNotVested,\n        uint256 amountOfGrant,\n        uint32 vestStartDay,\n\t    uint32 vestDuration,\n        uint32 cliffDuration,\n        uint32 vestIntervalDays,\n        bool isActive,\n        bool wasRevoked\n    )\n    {\n        return vestingForAccountAsOf(msg.sender, onDayOrToday);\n    }\n\n    /**\n     * @dev returns true if the account has sufficient funds available to cover the given amount,\n     *   including consideration for vesting tokens.\n     *\n     * @param account = The account to check.\n     * @param amount = The required amount of vested funds.\n     * @param onDay = The day to check for, in days since the UNIX epoch.\n     */\n    function _fundsAreAvailableOn(address account, uint256 amount, uint32 onDay) internal view returns (bool ok) {\n        return (amount <= _getAvailableAmount(account, onDay));\n    }\n\n    /**\n     * @dev Modifier to make a function callable only when the amount is sufficiently vested right now.\n     *\n     * @param account = The account to check.\n     * @param amount = The required amount of vested funds.\n     */\n    modifier onlyIfFundsAvailableNow(address account, uint256 amount) {\n        // Distinguish insufficient overall balance from insufficient vested funds balance in failure msg.\n        require(_fundsAreAvailableOn(account, amount, today()),\n            balanceOf(account) < amount ? \"insufficient funds\" : \"insufficient vested funds\");\n        _;\n    }\n\n\n    // =========================================================================\n    // === Grant revocation\n    // =========================================================================\n\n    /**\n     * @dev If the account has a revocable grant, this forces the grant to end based on computing\n     * the amount vested up to the given date. All tokens that would no longer vest are returned\n     * to the account of the original grantor.\n     *\n     * @param grantHolder = Address to which tokens will be granted.\n     * @param onDay = The date upon which the vesting schedule will be effectively terminated,\n     *   in days since the UNIX epoch (start of day).\n     */\n    function revokeGrant(address grantHolder, uint32 onDay) public onlyGrantor returns (bool ok) {\n        tokenGrant storage grant = _tokenGrants[grantHolder];\n        vestingSchedule storage vesting = _vestingSchedules[grant.vestingLocation];\n        uint256 notVestedAmount;\n\n        // Make sure grantor can only revoke from own pool.\n        require(msg.sender == owner() || msg.sender == grant.grantor, \"not allowed\");\n        // Make sure a vesting schedule has previously been set.\n        require(grant.isActive, \"no active vesting schedule\");\n        // Make sure it's revocable.\n        require(vesting.isRevocable, \"irrevocable\");\n        // Fail on likely erroneous input.\n        require(onDay <= grant.startDay + vesting.duration, \"no effect\");\n        // Don\"t let grantor revoke anf portion of vested amount.\n        require(onDay >= today(), \"cannot revoke vested holdings\");\n\n        notVestedAmount = _getNotVestedAmount(grantHolder, onDay);\n\n        // Use ERC20 _approve() to forcibly approve grantor to take back not-vested tokens from grantHolder.\n        _approve(grantHolder, grant.grantor, notVestedAmount);\n        /* Emits an Approval Event. */\n        transferFrom(grantHolder, grant.grantor, notVestedAmount);\n        /* Emits a Transfer and an Approval Event. */\n\n        // Kill the grant by updating wasRevoked and isActive.\n        _tokenGrants[grantHolder].wasRevoked = true;\n        _tokenGrants[grantHolder].isActive = false;\n\n        emit GrantRevoked(grantHolder, onDay);\n        /* Emits the GrantRevoked event. */\n        return true;\n    }\n\n\n    // =========================================================================\n    // === Overridden ERC20 functionality\n    // =========================================================================\n\n    /**\n     * @dev Methods transfer() and approve() require an additional available funds check to\n     * prevent spending held but non-vested tokens. Note that transferFrom() does NOT have this\n     * additional check because approved funds come from an already set-aside allowance, not from the wallet.\n     */\n    function transfer(address to, uint256 value) public onlyIfFundsAvailableNow(msg.sender, value) returns (bool ok) {\n        return super.transfer(to, value);\n    }\n\n    /**\n     * @dev Additional available funds check to prevent spending held but non-vested tokens.\n     */\n    function approve(address spender, uint256 value) public onlyIfFundsAvailableNow(msg.sender, value) returns (bool ok) {\n        return super.approve(spender, value);\n    }\n}\n",
  "sourcePath": "/home/adrian/work/paypolitan_token/Paypolitan_token/contracts/ERC20Vestable.sol",
  "compiler": {
    "name": "solc",
    "version": "0.5.11+commit.c082d0b4.Emscripten.clang"
  },
  "schemaVersion": "3.0.13",
  "updatedAt": "2019-09-11T08:55:54.089Z",
  "devdoc": {
    "details": "Contract which gives subclass contracts the ability to act as a pool of funds for allocating  tokens to any number of other addresses. Token grants support the ability to vest over time in  accordance a predefined vesting schedule. A given wallet can receive no more than one token grant. *   Tokens are transferred from the pool to the recipient at the time of grant, but the recipient  will only able to transfer tokens out of their wallet after they have vested. Transfers of non-  vested tokens are prevented. *   Two types of toke grants are supported:  - Irrevocable grants, intended for use in cases when vesting tokens have been issued in exchange    for value, such as with tokens that have been purchased in an ICO.  - Revocable grants, intended for use in cases when vesting tokens have been gifted to the holder,    such as with employee grants that are given as compensation.",
    "methods": {
      "allowance(address,address)": {
        "details": "See {IERC20-allowance}."
      },
      "approve(address,uint256)": {
        "details": "Additional available funds check to prevent spending held but non-vested tokens."
      },
      "balanceOf(address)": {
        "details": "See {IERC20-balanceOf}."
      },
      "decreaseAllowance(address,uint256)": {
        "details": "Atomically decreases the allowance granted to `spender` by the caller.     * This is an alternative to {approve} that can be used as a mitigation for problems described in {IERC20-approve}.     * Emits an {Approval} event indicating the updated allowance.     * Requirements:     * - `spender` cannot be the zero address. - `spender` must have allowance for the caller of at least `subtractedValue`."
      },
      "getIntrinsicVestingSchedule(address)": {
        "details": "returns all information about the vesting schedule directly associated with the given account. This can be used to double check that a uniform grantor has been set up with a correct vesting schedule. Also, recipients of standard (non-uniform) grants can use this. This method is only callable by the account holder or a grantor, so this is mainly intended for administrative use.     * Holders of uniform grants must use vestingAsOf() to view their vesting schedule, as it is stored in the grantor account.",
        "params": {
          "grantHolder": "= The address to do this for.  the special value 0 to indicate today."
        },
        "return": "= A tuple with the following values:  vestDuration = grant duration in days.  cliffDuration = duration of the cliff.  vestIntervalDays = number of days between vesting periods."
      },
      "grantVestingTokens(address,uint256,uint256,uint32,uint32,uint32,uint32,bool)": {
        "details": "Immediately grants tokens to an address, including a portion that will vest over time according to a set vesting schedule. The overall duration and cliff duration of the grant must be an even multiple of the vesting interval.",
        "params": {
          "beneficiary": "= Address to which tokens will be granted.",
          "cliffDuration": "= Duration of the cliff, with respect to the grant start day, in days.",
          "duration": "= Duration of the vesting schedule, with respect to the grant start day, in days.",
          "interval": "= Number of days between vesting increases.",
          "isRevocable": "= True if the grant can be revoked (i.e. was a gift) or false if it cannot  be revoked (i.e. tokens were purchased).",
          "startDay": "= Start day of the grant's vesting schedule, in days since the UNIX epoch  (start of day). The startDay may be given as a date in the future or in the past, going as far  back as year 2000.",
          "totalAmount": "= Total number of tokens to deposit into the account.",
          "vestingAmount": "= Out of totalAmount, the number of tokens subject to vesting."
        }
      },
      "increaseAllowance(address,uint256)": {
        "details": "Atomically increases the allowance granted to `spender` by the caller.     * This is an alternative to {approve} that can be used as a mitigation for problems described in {IERC20-approve}.     * Emits an {Approval} event indicating the updated allowance.     * Requirements:     * - `spender` cannot be the zero address."
      },
      "isOwner()": {
        "details": "Returns true if the caller is the current owner."
      },
      "owner()": {
        "details": "Returns the address of the current owner."
      },
      "revokeGrant(address,uint32)": {
        "details": "If the account has a revocable grant, this forces the grant to end based on computing the amount vested up to the given date. All tokens that would no longer vest are returned to the account of the original grantor.",
        "params": {
          "grantHolder": "= Address to which tokens will be granted.",
          "onDay": "= The date upon which the vesting schedule will be effectively terminated,  in days since the UNIX epoch (start of day)."
        }
      },
      "safeGrantVestingTokens(address,uint256,uint256,uint32,uint32,uint32,uint32,bool)": {
        "details": "This variant only grants tokens if the beneficiary account has previously self-registered."
      },
      "today()": {
        "details": "returns the day number of the current day, in days since the UNIX epoch."
      },
      "totalSupply()": {
        "details": "See {IERC20-totalSupply}."
      },
      "transfer(address,uint256)": {
        "details": "Methods transfer() and approve() require an additional available funds check to prevent spending held but non-vested tokens. Note that transferFrom() does NOT have this additional check because approved funds come from an already set-aside allowance, not from the wallet."
      },
      "transferFrom(address,address,uint256)": {
        "details": "See {IERC20-transferFrom}.     * Emits an {Approval} event indicating the updated allowance. This is not required by the EIP. See the note at the beginning of {ERC20};     * Requirements: - `sender` and `recipient` cannot be the zero address. - `sender` must have a balance of at least `amount`. - the caller must have allowance for `sender`'s tokens of at least `amount`."
      },
      "transferOwnership(address)": {
        "details": "Allows the current owner to transfer control of the contract to a newOwner.",
        "params": {
          "newOwner": "The address to transfer ownership to."
        }
      },
      "vestingAsOf(uint32)": {
        "details": "returns all information about the grant's vesting as of the given day for the current account, to be called by the account holder.",
        "params": {
          "onDayOrToday": "= The day to check for, in days since the UNIX epoch. Can pass  the special value 0 to indicate today."
        },
        "return": "= A tuple with the following values:  amountVested = the amount out of vestingAmount that is vested  amountNotVested = the amount that is vested (equal to vestingAmount - vestedAmount)  amountOfGrant = the amount of tokens subject to vesting.  vestStartDay = starting day of the grant (in days since the UNIX epoch).  cliffDuration = duration of the cliff.  vestDuration = grant duration in days.  vestIntervalDays = number of days between vesting periods.  isActive = true if the vesting schedule is currently active.  wasRevoked = true if the vesting schedule was revoked."
      },
      "vestingForAccountAsOf(address,uint32)": {
        "details": "returns all information about the grant's vesting as of the given day for the given account. Only callable by the account holder or a grantor, so this is mainly intended for administrative use.",
        "params": {
          "grantHolder": "= The address to do this for.",
          "onDayOrToday": "= The day to check for, in days since the UNIX epoch. Can pass  the special value 0 to indicate today."
        },
        "return": "= A tuple with the following values:  amountVested = the amount out of vestingAmount that is vested  amountNotVested = the amount that is vested (equal to vestingAmount - vestedAmount)  amountOfGrant = the amount of tokens subject to vesting.  vestStartDay = starting day of the grant (in days since the UNIX epoch).  vestDuration = grant duration in days.  cliffDuration = duration of the cliff.  vestIntervalDays = number of days between vesting periods.  isActive = true if the vesting schedule is currently active.  wasRevoked = true if the vesting schedule was revoked."
      }
    },
    "title": "Contract for grantable ERC20 token vesting schedules"
  },
  "userdoc": {
    "methods": {
      "registerAccount()": {
        "notice": "This registers the calling wallet address as a known address. Operations that transfer responsibility may require the target account to be a registered account, to protect the system from getting into a state where administration or a large amount of funds can become forever inaccessible."
      },
      "renounceOwnership()": {
        "notice": "Ensure there is no way for the contract to end up with no owner. That would inadvertently result in token grant administration becoming impossible. We override this to always disallow it."
      }
    },
    "notice": "Adds to an ERC20 support for grantor wallets, which are able to grant vesting tokens to  beneficiary wallets, following per-wallet custom vesting schedules."
  }
}