{
  "contractName": "Identity",
  "abi": [
    {
      "constant": false,
      "inputs": [
        {
          "name": "shortName",
          "type": "string"
        }
      ],
      "name": "iAm",
      "outputs": [],
      "payable": false,
      "stateMutability": "nonpayable",
      "type": "function"
    },
    {
      "constant": true,
      "inputs": [],
      "name": "whereAmI",
      "outputs": [
        {
          "name": "yourAddress",
          "type": "address"
        }
      ],
      "payable": false,
      "stateMutability": "view",
      "type": "function"
    },
    {
      "constant": true,
      "inputs": [],
      "name": "whoAmI",
      "outputs": [
        {
          "name": "yourName",
          "type": "string"
        }
      ],
      "payable": false,
      "stateMutability": "view",
      "type": "function"
    }
  ],
  "bytecode": "0x608060405234801561001057600080fd5b506103e0806100206000396000f3fe608060405234801561001057600080fd5b50600436106100415760003560e01c806332ae3848146100465780638403eeb514610090578063da91254c1461014b575b600080fd5b61004e6101ce565b604051808273ffffffffffffffffffffffffffffffffffffffff1673ffffffffffffffffffffffffffffffffffffffff16815260200191505060405180910390f35b610149600480360360208110156100a657600080fd5b81019080803590602001906401000000008111156100c357600080fd5b8201836020820111156100d557600080fd5b803590602001918460018302840111640100000000831117156100f757600080fd5b91908080601f016020809104026020016040519081016040528093929190818152602001838380828437600081840152601f19601f8201169050808301925050505050505091929192905050506101db565b005b610153610231565b6040518080602001828103825283818151815260200191508051906020019080838360005b83811015610193578082015181840152602081019050610178565b50505050905090810190601f1680156101c05780820380516001836020036101000a031916815260200191505b509250505060405180910390f35b6000803390508091505090565b806000803373ffffffffffffffffffffffffffffffffffffffff1673ffffffffffffffffffffffffffffffffffffffff168152602001908152602001600020908051906020019061022d92919061030f565b5050565b60606000803373ffffffffffffffffffffffffffffffffffffffff1673ffffffffffffffffffffffffffffffffffffffff1681526020019081526020016000208054600181600116156101000203166002900480601f0160208091040260200160405190810160405280929190818152602001828054600181600116156101000203166002900480156103055780601f106102da57610100808354040283529160200191610305565b820191906000526020600020905b8154815290600101906020018083116102e857829003601f168201915b5050505050905090565b828054600181600116156101000203166002900490600052602060002090601f016020900481019282601f1061035057805160ff191683800117855561037e565b8280016001018555821561037e579182015b8281111561037d578251825591602001919060010190610362565b5b50905061038b919061038f565b5090565b6103b191905b808211156103ad576000816000905550600101610395565b5090565b9056fea165627a7a72305820119d73787640e24d8ebb667eaae5af4d635c642cd51130bea1299557a05389530029",
  "source": "pragma solidity ^0.5.0;\n\ncontract Identity {\n    mapping(address => string) private _names;\n\n    /**\n   * Associate short name with the account\n   */\n    function iAm(string memory shortName) public {\n        _names[msg.sender] = shortName;\n    }\n\n    /**\n   * Function to confirm the address of the current account\n   */\n    function whereAmI() public view returns (address yourAddress) {\n        address myself = msg.sender;\n        return myself;\n    }\n\n    /**\n   *  Confirm the shortName of the current account\n   */\n    function whoAmI() public view returns (string memory yourName) {\n        return (_names[msg.sender]);\n    }\n}\n",
  "sourcePath": "/home/adrian/work/paypolitan_token/Paypolitan_token/contracts/Identity.sol",
  "compiler": {
    "name": "solc",
    "version": "0.5.8+commit.23d335f2.Emscripten.clang"
  },
  "schemaVersion": "3.0.13",
  "updatedAt": "2019-08-30T11:01:41.498Z",
  "devdoc": {
    "methods": {}
  },
  "userdoc": {
    "methods": {
      "iAm(string)": {
        "notice": "Associate short name with the account"
      },
      "whereAmI()": {
        "notice": "Function to confirm the address of the current account"
      },
      "whoAmI()": {
        "notice": "Confirm the shortName of the current account"
      }
    }
  }
}