{
  "contractName": "Identity",
  "abi": [
    {
      "constant": false,
      "inputs": [
        {
          "internalType": "string",
          "name": "shortName",
          "type": "string"
        }
      ],
      "name": "iAm",
      "outputs": [],
      "payable": false,
      "stateMutability": "nonpayable",
      "type": "function"
    },
    {
      "constant": true,
      "inputs": [],
      "name": "whereAmI",
      "outputs": [
        {
          "internalType": "address",
          "name": "yourAddress",
          "type": "address"
        }
      ],
      "payable": false,
      "stateMutability": "view",
      "type": "function"
    },
    {
      "constant": true,
      "inputs": [],
      "name": "whoAmI",
      "outputs": [
        {
          "internalType": "string",
          "name": "yourName",
          "type": "string"
        }
      ],
      "payable": false,
      "stateMutability": "view",
      "type": "function"
    }
  ],
  "bytecode": "0x608060405234801561001057600080fd5b50610321806100206000396000f3fe608060405234801561001057600080fd5b50600436106100415760003560e01c806332ae3848146100465780638403eeb51461006a578063da91254c14610112575b600080fd5b61004e61018f565b604080516001600160a01b039092168252519081900360200190f35b6101106004803603602081101561008057600080fd5b81019060208101813564010000000081111561009b57600080fd5b8201836020820111156100ad57600080fd5b803590602001918460018302840111640100000000831117156100cf57600080fd5b91908080601f016020809104026020016040519081016040528093929190818152602001838380828437600092019190915250929550610194945050505050565b005b61011a6101b6565b6040805160208082528351818301528351919283929083019185019080838360005b8381101561015457818101518382015260200161013c565b50505050905090810190601f1680156101815780820380516001836020036101000a031916815260200191505b509250505060405180910390f35b335b90565b3360009081526020818152604090912082516101b292840190610254565b5050565b336000908152602081815260409182902080548351601f600260001961010060018616150201909316929092049182018490048402810184019094528084526060939283018282801561024a5780601f1061021f5761010080835404028352916020019161024a565b820191906000526020600020905b81548152906001019060200180831161022d57829003601f168201915b5050505050905090565b828054600181600116156101000203166002900490600052602060002090601f016020900481019282601f1061029557805160ff19168380011785556102c2565b828001600101855582156102c2579182015b828111156102c25782518255916020019190600101906102a7565b506102ce9291506102d2565b5090565b61019191905b808211156102ce57600081556001016102d856fea265627a7a723158209b4cdabb882dc4f2be19051826864ba8572b621a52cc13489e54d55b3e66518464736f6c634300050b0032",
  "source": "pragma solidity ^0.5.0;\n\ncontract Identity {\n    mapping(address => string) private _names;\n\n    /**\n   * Associate short name with the account\n   */\n    function iAm(string memory shortName) public {\n        _names[msg.sender] = shortName;\n    }\n\n    /**\n   * Function to confirm the address of the current account\n   */\n    function whereAmI() public view returns (address yourAddress) {\n        address myself = msg.sender;\n        return myself;\n    }\n\n    /**\n   *  Confirm the shortName of the current account\n   */\n    function whoAmI() public view returns (string memory yourName) {\n        return (_names[msg.sender]);\n    }\n}\n",
  "sourcePath": "/home/adrian/work/paypolitan_token/Paypolitan_token/contracts/Identity.sol",
  "compiler": {
    "name": "solc",
    "version": "0.5.11+commit.c082d0b4.Emscripten.clang"
  },
  "schemaVersion": "3.0.13",
  "updatedAt": "2019-09-11T08:55:54.070Z",
  "devdoc": {
    "methods": {}
  },
  "userdoc": {
    "methods": {
      "iAm(string)": {
        "notice": "Associate short name with the account"
      },
      "whereAmI()": {
        "notice": "Function to confirm the address of the current account"
      },
      "whoAmI()": {
        "notice": "Confirm the shortName of the current account"
      }
    }
  }
}