{
  "contractName": "PaypolitanToken",
  "abi": [
    {
      "constant": true,
      "inputs": [],
      "name": "name",
      "outputs": [
        {
          "name": "",
          "type": "string"
        }
      ],
      "payable": false,
      "stateMutability": "view",
      "type": "function"
    },
    {
      "constant": true,
      "inputs": [],
      "name": "decimals",
      "outputs": [
        {
          "name": "",
          "type": "uint8"
        }
      ],
      "payable": false,
      "stateMutability": "view",
      "type": "function"
    },
    {
      "constant": true,
      "inputs": [],
      "name": "standard",
      "outputs": [
        {
          "name": "",
          "type": "string"
        }
      ],
      "payable": false,
      "stateMutability": "view",
      "type": "function"
    },
    {
      "constant": true,
      "inputs": [],
      "name": "symbol",
      "outputs": [
        {
          "name": "",
          "type": "string"
        }
      ],
      "payable": false,
      "stateMutability": "view",
      "type": "function"
    },
    {
      "inputs": [],
      "payable": false,
      "stateMutability": "nonpayable",
      "type": "constructor"
    }
  ],
  "bytecode": "0x60806040526040518060400160405280601081526020017f506179706f6c6974616e20546f6b656e000000000000000000000000000000008152506000908051906020019061004f929190610116565b506040518060400160405280600381526020017f50504100000000000000000000000000000000000000000000000000000000008152506001908051906020019061009b929190610116565b506040518060400160405280601581526020017f506179706f6c6974616e20546f6b656e2076312e300000000000000000000000815250600290805190602001906100e7929190610116565b506012600360006101000a81548160ff021916908360ff16021790555034801561011057600080fd5b506101bb565b828054600181600116156101000203166002900490600052602060002090601f016020900481019282601f1061015757805160ff1916838001178555610185565b82800160010185558215610185579182015b82811115610184578251825591602001919060010190610169565b5b5090506101929190610196565b5090565b6101b891905b808211156101b457600081600090555060010161019c565b5090565b90565b610417806101ca6000396000f3fe608060405234801561001057600080fd5b506004361061004c5760003560e01c806306fdde0314610051578063313ce567146100d45780635a3b7e42146100f857806395d89b411461017b575b600080fd5b6100596101fe565b6040518080602001828103825283818151815260200191508051906020019080838360005b8381101561009957808201518184015260208101905061007e565b50505050905090810190601f1680156100c65780820380516001836020036101000a031916815260200191505b509250505060405180910390f35b6100dc61029c565b604051808260ff1660ff16815260200191505060405180910390f35b6101006102af565b6040518080602001828103825283818151815260200191508051906020019080838360005b83811015610140578082015181840152602081019050610125565b50505050905090810190601f16801561016d5780820380516001836020036101000a031916815260200191505b509250505060405180910390f35b61018361034d565b6040518080602001828103825283818151815260200191508051906020019080838360005b838110156101c35780820151818401526020810190506101a8565b50505050905090810190601f1680156101f05780820380516001836020036101000a031916815260200191505b509250505060405180910390f35b60008054600181600116156101000203166002900480601f0160208091040260200160405190810160405280929190818152602001828054600181600116156101000203166002900480156102945780601f1061026957610100808354040283529160200191610294565b820191906000526020600020905b81548152906001019060200180831161027757829003601f168201915b505050505081565b600360009054906101000a900460ff1681565b60028054600181600116156101000203166002900480601f0160208091040260200160405190810160405280929190818152602001828054600181600116156101000203166002900480156103455780601f1061031a57610100808354040283529160200191610345565b820191906000526020600020905b81548152906001019060200180831161032857829003601f168201915b505050505081565b60018054600181600116156101000203166002900480601f0160208091040260200160405190810160405280929190818152602001828054600181600116156101000203166002900480156103e35780601f106103b8576101008083540402835291602001916103e3565b820191906000526020600020905b8154815290600101906020018083116103c657829003601f168201915b50505050508156fea165627a7a72305820f1739838e03c0ed24617580567ac4e6b5fb63c5bc41013718c73f15d337b184c0029",
  "source": "pragma solidity ^0.5.0;\n\nimport \"./Identity.sol\";\n// import \"../node_modules/openzeppelin-solidity/contracts/token/ERC20/ERC20Mintable.sol\";\n\ncontract PaypolitanToken {\n    string public name = \"Paypolitan Token\";\n    string public symbol = \"PPA\";\n    string public standard = \"Paypolitan Token v1.0\";\n    uint8 public decimals = 18;\n\n    constructor() public {}\n\n    /// this modifier will be used to disable all ERC20 functionality during the minting process\n\n}\n",
  "sourcePath": "/home/adrian/work/paypolitan_token/Paypolitan_token/contracts/PaypolitanToken.sol",
  "compiler": {
    "name": "solc",
    "version": "0.5.8+commit.23d335f2.Emscripten.clang"
  },
  "schemaVersion": "3.0.13",
  "updatedAt": "2019-08-30T11:01:41.500Z",
  "devdoc": {
    "methods": {}
  },
  "userdoc": {
    "methods": {}
  }
}