{
  "contractName": "PaypolitanToken",
  "abi": [
    {
      "constant": true,
      "inputs": [],
      "name": "name",
      "outputs": [
        {
          "internalType": "string",
          "name": "",
          "type": "string"
        }
      ],
      "payable": false,
      "stateMutability": "view",
      "type": "function"
    },
    {
      "constant": false,
      "inputs": [
        {
          "internalType": "address",
          "name": "spender",
          "type": "address"
        },
        {
          "internalType": "uint256",
          "name": "value",
          "type": "uint256"
        }
      ],
      "name": "approve",
      "outputs": [
        {
          "internalType": "bool",
          "name": "ok",
          "type": "bool"
        }
      ],
      "payable": false,
      "stateMutability": "nonpayable",
      "type": "function"
    },
    {
      "constant": true,
      "inputs": [],
      "name": "totalSupply",
      "outputs": [
        {
          "internalType": "uint256",
          "name": "",
          "type": "uint256"
        }
      ],
      "payable": false,
      "stateMutability": "view",
      "type": "function"
    },
    {
      "constant": true,
      "inputs": [
        {
          "internalType": "address",
          "name": "account",
          "type": "address"
        }
      ],
      "name": "isGrantor",
      "outputs": [
        {
          "internalType": "bool",
          "name": "",
          "type": "bool"
        }
      ],
      "payable": false,
      "stateMutability": "view",
      "type": "function"
    },
    {
      "constant": false,
      "inputs": [
        {
          "internalType": "address",
          "name": "grantHolder",
          "type": "address"
        },
        {
          "internalType": "uint32",
          "name": "onDay",
          "type": "uint32"
        }
      ],
      "name": "revokeGrant",
      "outputs": [
        {
          "internalType": "bool",
          "name": "ok",
          "type": "bool"
        }
      ],
      "payable": false,
      "stateMutability": "nonpayable",
      "type": "function"
    },
    {
      "constant": false,
      "inputs": [
        {
          "internalType": "address",
          "name": "from",
          "type": "address"
        },
        {
          "internalType": "address",
          "name": "to",
          "type": "address"
        },
        {
          "internalType": "uint256",
          "name": "value",
          "type": "uint256"
        }
      ],
      "name": "transferFrom",
      "outputs": [
        {
          "internalType": "bool",
          "name": "",
          "type": "bool"
        }
      ],
      "payable": false,
      "stateMutability": "nonpayable",
      "type": "function"
    },
    {
      "constant": true,
      "inputs": [
        {
          "internalType": "uint32",
          "name": "onDayOrToday",
          "type": "uint32"
        }
      ],
      "name": "vestingAsOf",
      "outputs": [
        {
          "internalType": "uint256",
          "name": "amountVested",
          "type": "uint256"
        },
        {
          "internalType": "uint256",
          "name": "amountNotVested",
          "type": "uint256"
        },
        {
          "internalType": "uint256",
          "name": "amountOfGrant",
          "type": "uint256"
        },
        {
          "internalType": "uint32",
          "name": "vestStartDay",
          "type": "uint32"
        },
        {
          "internalType": "uint32",
          "name": "vestDuration",
          "type": "uint32"
        },
        {
          "internalType": "uint32",
          "name": "cliffDuration",
          "type": "uint32"
        },
        {
          "internalType": "uint32",
          "name": "vestIntervalDays",
          "type": "uint32"
        },
        {
          "internalType": "bool",
          "name": "isActive",
          "type": "bool"
        },
        {
          "internalType": "bool",
          "name": "wasRevoked",
          "type": "bool"
        }
      ],
      "payable": false,
      "stateMutability": "view",
      "type": "function"
    },
    {
      "constant": true,
      "inputs": [],
      "name": "decimals",
      "outputs": [
        {
          "internalType": "uint8",
          "name": "",
          "type": "uint8"
        }
      ],
      "payable": false,
      "stateMutability": "view",
      "type": "function"
    },
    {
      "constant": true,
      "inputs": [],
      "name": "whereAmI",
      "outputs": [
        {
          "internalType": "address",
          "name": "yourAddress",
          "type": "address"
        }
      ],
      "payable": false,
      "stateMutability": "view",
      "type": "function"
    },
    {
      "constant": false,
      "inputs": [
        {
          "internalType": "address",
          "name": "account",
          "type": "address"
        }
      ],
      "name": "removeGrantor",
      "outputs": [],
      "payable": false,
      "stateMutability": "nonpayable",
      "type": "function"
    },
    {
      "constant": false,
      "inputs": [
        {
          "internalType": "address",
          "name": "spender",
          "type": "address"
        },
        {
          "internalType": "uint256",
          "name": "addedValue",
          "type": "uint256"
        }
      ],
      "name": "increaseAllowance",
      "outputs": [
        {
          "internalType": "bool",
          "name": "",
          "type": "bool"
        }
      ],
      "payable": false,
      "stateMutability": "nonpayable",
      "type": "function"
    },
    {
      "constant": false,
      "inputs": [
        {
          "internalType": "address",
          "name": "beneficiary",
          "type": "address"
        },
        {
          "internalType": "uint256",
          "name": "totalAmount",
          "type": "uint256"
        },
        {
          "internalType": "uint256",
          "name": "vestingAmount",
          "type": "uint256"
        },
        {
          "internalType": "uint32",
          "name": "startDay",
          "type": "uint32"
        }
      ],
      "name": "safeGrantUniformVestingTokens",
      "outputs": [
        {
          "internalType": "bool",
          "name": "ok",
          "type": "bool"
        }
      ],
      "payable": false,
      "stateMutability": "nonpayable",
      "type": "function"
    },
    {
      "constant": false,
      "inputs": [],
      "name": "unpause",
      "outputs": [],
      "payable": false,
      "stateMutability": "nonpayable",
      "type": "function"
    },
    {
      "constant": false,
      "inputs": [
        {
          "internalType": "address",
          "name": "beneficiary",
          "type": "address"
        },
        {
          "internalType": "uint256",
          "name": "totalAmount",
          "type": "uint256"
        },
        {
          "internalType": "uint256",
          "name": "vestingAmount",
          "type": "uint256"
        },
        {
          "internalType": "uint32",
          "name": "startDay",
          "type": "uint32"
        },
        {
          "internalType": "uint32",
          "name": "duration",
          "type": "uint32"
        },
        {
          "internalType": "uint32",
          "name": "cliffDuration",
          "type": "uint32"
        },
        {
          "internalType": "uint32",
          "name": "interval",
          "type": "uint32"
        },
        {
          "internalType": "bool",
          "name": "isRevocable",
          "type": "bool"
        }
      ],
      "name": "safeGrantVestingTokens",
      "outputs": [
        {
          "internalType": "bool",
          "name": "ok",
          "type": "bool"
        }
      ],
      "payable": false,
      "stateMutability": "nonpayable",
      "type": "function"
    },
    {
      "constant": false,
      "inputs": [
        {
          "internalType": "address",
          "name": "to",
          "type": "address"
        },
        {
          "internalType": "uint256",
          "name": "value",
          "type": "uint256"
        }
      ],
      "name": "safeTransfer",
      "outputs": [
        {
          "internalType": "bool",
          "name": "ok",
          "type": "bool"
        }
      ],
      "payable": false,
      "stateMutability": "nonpayable",
      "type": "function"
    },
    {
      "constant": false,
      "inputs": [
        {
          "internalType": "address",
          "name": "from",
          "type": "address"
        },
        {
          "internalType": "address",
          "name": "to",
          "type": "address"
        },
        {
          "internalType": "uint256",
          "name": "value",
          "type": "uint256"
        }
      ],
      "name": "safeTransferFrom",
      "outputs": [
        {
          "internalType": "bool",
          "name": "ok",
          "type": "bool"
        }
      ],
      "payable": false,
      "stateMutability": "nonpayable",
      "type": "function"
    },
    {
      "constant": false,
      "inputs": [
        {
          "internalType": "address",
          "name": "account",
          "type": "address"
        },
        {
          "internalType": "bool",
          "name": "isUniformGrantor",
          "type": "bool"
        }
      ],
      "name": "addGrantor",
      "outputs": [],
      "payable": false,
      "stateMutability": "nonpayable",
      "type": "function"
    },
    {
      "constant": true,
      "inputs": [
        {
          "internalType": "address",
          "name": "account",
          "type": "address"
        }
      ],
      "name": "isPauser",
      "outputs": [
        {
          "internalType": "bool",
          "name": "",
          "type": "bool"
        }
      ],
      "payable": false,
      "stateMutability": "view",
      "type": "function"
    },
    {
      "constant": true,
      "inputs": [],
      "name": "paused",
      "outputs": [
        {
          "internalType": "bool",
          "name": "",
          "type": "bool"
        }
      ],
      "payable": false,
      "stateMutability": "view",
      "type": "function"
    },
    {
      "constant": false,
      "inputs": [
        {
          "internalType": "address",
          "name": "grantor",
          "type": "address"
        },
        {
          "internalType": "uint32",
          "name": "duration",
          "type": "uint32"
        },
        {
          "internalType": "uint32",
          "name": "cliffDuration",
          "type": "uint32"
        },
        {
          "internalType": "uint32",
          "name": "interval",
          "type": "uint32"
        },
        {
          "internalType": "bool",
          "name": "isRevocable",
          "type": "bool"
        }
      ],
      "name": "setGrantorVestingSchedule",
      "outputs": [
        {
          "internalType": "bool",
          "name": "ok",
          "type": "bool"
        }
      ],
      "payable": false,
      "stateMutability": "nonpayable",
      "type": "function"
    },
    {
      "constant": true,
      "inputs": [
        {
          "internalType": "address",
          "name": "account",
          "type": "address"
        }
      ],
      "name": "isUniformGrantor",
      "outputs": [
        {
          "internalType": "bool",
          "name": "",
          "type": "bool"
        }
      ],
      "payable": false,
      "stateMutability": "view",
      "type": "function"
    },
    {
      "constant": false,
      "inputs": [],
      "name": "renouncePauser",
      "outputs": [],
      "payable": false,
      "stateMutability": "nonpayable",
      "type": "function"
    },
    {
      "constant": true,
      "inputs": [
        {
          "internalType": "address",
          "name": "account",
          "type": "address"
        }
      ],
      "name": "balanceOf",
      "outputs": [
        {
          "internalType": "uint256",
          "name": "",
          "type": "uint256"
        }
      ],
      "payable": false,
      "stateMutability": "view",
      "type": "function"
    },
    {
      "constant": false,
      "inputs": [],
      "name": "renounceOwnership",
      "outputs": [],
      "payable": false,
      "stateMutability": "nonpayable",
      "type": "function"
    },
    {
      "constant": false,
      "inputs": [
        {
          "internalType": "address",
          "name": "account",
          "type": "address"
        },
        {
          "internalType": "uint256",
          "name": "amount",
          "type": "uint256"
        }
      ],
      "name": "burnFrom",
      "outputs": [],
      "payable": false,
      "stateMutability": "nonpayable",
      "type": "function"
    },
    {
      "constant": false,
      "inputs": [
        {
          "internalType": "address",
          "name": "beneficiary",
          "type": "address"
        },
        {
          "internalType": "uint256",
          "name": "totalAmount",
          "type": "uint256"
        },
        {
          "internalType": "uint256",
          "name": "vestingAmount",
          "type": "uint256"
        },
        {
          "internalType": "uint32",
          "name": "startDay",
          "type": "uint32"
        },
        {
          "internalType": "uint32",
          "name": "duration",
          "type": "uint32"
        },
        {
          "internalType": "uint32",
          "name": "cliffDuration",
          "type": "uint32"
        },
        {
          "internalType": "uint32",
          "name": "interval",
          "type": "uint32"
        },
        {
          "internalType": "bool",
          "name": "isRevocable",
          "type": "bool"
        }
      ],
      "name": "grantVestingTokens",
      "outputs": [
        {
          "internalType": "bool",
          "name": "ok",
          "type": "bool"
        }
      ],
      "payable": false,
      "stateMutability": "nonpayable",
      "type": "function"
    },
    {
      "constant": false,
      "inputs": [
        {
          "internalType": "address",
          "name": "account",
          "type": "address"
        }
      ],
      "name": "addPauser",
      "outputs": [],
      "payable": false,
      "stateMutability": "nonpayable",
      "type": "function"
    },
    {
      "constant": false,
      "inputs": [
        {
          "internalType": "string",
          "name": "shortName",
          "type": "string"
        }
      ],
      "name": "iAm",
      "outputs": [],
      "payable": false,
      "stateMutability": "nonpayable",
      "type": "function"
    },
    {
      "constant": false,
      "inputs": [],
      "name": "pause",
      "outputs": [],
      "payable": false,
      "stateMutability": "nonpayable",
      "type": "function"
    },
    {
      "constant": true,
      "inputs": [],
      "name": "owner",
      "outputs": [
        {
          "internalType": "address",
          "name": "",
          "type": "address"
        }
      ],
      "payable": false,
      "stateMutability": "view",
      "type": "function"
    },
    {
      "constant": true,
      "inputs": [],
      "name": "isOwner",
      "outputs": [
        {
          "internalType": "bool",
          "name": "",
          "type": "bool"
        }
      ],
      "payable": false,
      "stateMutability": "view",
      "type": "function"
    },
    {
      "constant": true,
      "inputs": [],
      "name": "symbol",
      "outputs": [
        {
          "internalType": "string",
          "name": "",
          "type": "string"
        }
      ],
      "payable": false,
      "stateMutability": "view",
      "type": "function"
    },
    {
      "constant": false,
      "inputs": [
        {
          "internalType": "address",
          "name": "grantor",
          "type": "address"
        },
        {
          "internalType": "uint32",
          "name": "minStartDay",
          "type": "uint32"
        },
        {
          "internalType": "uint32",
          "name": "maxStartDay",
          "type": "uint32"
        },
        {
          "internalType": "uint32",
          "name": "expirationDay",
          "type": "uint32"
        }
      ],
      "name": "setRestrictions",
      "outputs": [
        {
          "internalType": "bool",
          "name": "ok",
          "type": "bool"
        }
      ],
      "payable": false,
      "stateMutability": "nonpayable",
      "type": "function"
    },
    {
      "constant": false,
      "inputs": [
        {
          "internalType": "address",
          "name": "spender",
          "type": "address"
        },
        {
          "internalType": "uint256",
          "name": "subtractedValue",
          "type": "uint256"
        }
      ],
      "name": "decreaseAllowance",
      "outputs": [
        {
          "internalType": "bool",
          "name": "",
          "type": "bool"
        }
      ],
      "payable": false,
      "stateMutability": "nonpayable",
      "type": "function"
    },
    {
      "constant": false,
      "inputs": [
        {
          "internalType": "address",
          "name": "to",
          "type": "address"
        },
        {
          "internalType": "uint256",
          "name": "value",
          "type": "uint256"
        }
      ],
      "name": "transfer",
      "outputs": [
        {
          "internalType": "bool",
          "name": "ok",
          "type": "bool"
        }
      ],
      "payable": false,
      "stateMutability": "nonpayable",
      "type": "function"
    },
    {
      "constant": true,
      "inputs": [
        {
          "internalType": "address",
          "name": "grantHolder",
          "type": "address"
        }
      ],
      "name": "getIntrinsicVestingSchedule",
      "outputs": [
        {
          "internalType": "uint32",
          "name": "vestDuration",
          "type": "uint32"
        },
        {
          "internalType": "uint32",
          "name": "cliffDuration",
          "type": "uint32"
        },
        {
          "internalType": "uint32",
          "name": "vestIntervalDays",
          "type": "uint32"
        }
      ],
      "payable": false,
      "stateMutability": "view",
      "type": "function"
    },
    {
      "constant": true,
      "inputs": [],
      "name": "today",
      "outputs": [
        {
          "internalType": "uint32",
          "name": "dayNumber",
          "type": "uint32"
        }
      ],
      "payable": false,
      "stateMutability": "view",
      "type": "function"
    },
    {
      "constant": true,
      "inputs": [
        {
          "internalType": "address",
          "name": "account",
          "type": "address"
        }
      ],
      "name": "isRegistered",
      "outputs": [
        {
          "internalType": "bool",
          "name": "ok",
          "type": "bool"
        }
      ],
      "payable": false,
      "stateMutability": "view",
      "type": "function"
    },
    {
      "constant": true,
      "inputs": [
        {
          "internalType": "address",
          "name": "grantHolder",
          "type": "address"
        },
        {
          "internalType": "uint32",
          "name": "onDayOrToday",
          "type": "uint32"
        }
      ],
      "name": "vestingForAccountAsOf",
      "outputs": [
        {
          "internalType": "uint256",
          "name": "amountVested",
          "type": "uint256"
        },
        {
          "internalType": "uint256",
          "name": "amountNotVested",
          "type": "uint256"
        },
        {
          "internalType": "uint256",
          "name": "amountOfGrant",
          "type": "uint256"
        },
        {
          "internalType": "uint32",
          "name": "vestStartDay",
          "type": "uint32"
        },
        {
          "internalType": "uint32",
          "name": "vestDuration",
          "type": "uint32"
        },
        {
          "internalType": "uint32",
          "name": "cliffDuration",
          "type": "uint32"
        },
        {
          "internalType": "uint32",
          "name": "vestIntervalDays",
          "type": "uint32"
        },
        {
          "internalType": "bool",
          "name": "isActive",
          "type": "bool"
        },
        {
          "internalType": "bool",
          "name": "wasRevoked",
          "type": "bool"
        }
      ],
      "payable": false,
      "stateMutability": "view",
      "type": "function"
    },
    {
      "constant": false,
      "inputs": [],
      "name": "registerAccount",
      "outputs": [
        {
          "internalType": "bool",
          "name": "ok",
          "type": "bool"
        }
      ],
      "payable": false,
      "stateMutability": "nonpayable",
      "type": "function"
    },
    {
      "constant": true,
      "inputs": [],
      "name": "whoAmI",
      "outputs": [
        {
          "internalType": "string",
          "name": "yourName",
          "type": "string"
        }
      ],
      "payable": false,
      "stateMutability": "view",
      "type": "function"
    },
    {
      "constant": true,
      "inputs": [
        {
          "internalType": "address",
          "name": "owner",
          "type": "address"
        },
        {
          "internalType": "address",
          "name": "spender",
          "type": "address"
        }
      ],
      "name": "allowance",
      "outputs": [
        {
          "internalType": "uint256",
          "name": "",
          "type": "uint256"
        }
      ],
      "payable": false,
      "stateMutability": "view",
      "type": "function"
    },
    {
      "constant": false,
      "inputs": [
        {
          "internalType": "address",
          "name": "newOwner",
          "type": "address"
        }
      ],
      "name": "transferOwnership",
      "outputs": [],
      "payable": false,
      "stateMutability": "nonpayable",
      "type": "function"
    },
    {
      "constant": false,
      "inputs": [
        {
          "internalType": "address",
          "name": "spender",
          "type": "address"
        },
        {
          "internalType": "uint256",
          "name": "value",
          "type": "uint256"
        }
      ],
      "name": "safeApprove",
      "outputs": [
        {
          "internalType": "bool",
          "name": "ok",
          "type": "bool"
        }
      ],
      "payable": false,
      "stateMutability": "nonpayable",
      "type": "function"
    },
    {
      "constant": false,
      "inputs": [
        {
          "internalType": "address",
          "name": "beneficiary",
          "type": "address"
        },
        {
          "internalType": "uint256",
          "name": "totalAmount",
          "type": "uint256"
        },
        {
          "internalType": "uint256",
          "name": "vestingAmount",
          "type": "uint256"
        },
        {
          "internalType": "uint32",
          "name": "startDay",
          "type": "uint32"
        }
      ],
      "name": "grantUniformVestingTokens",
      "outputs": [
        {
          "internalType": "bool",
          "name": "ok",
          "type": "bool"
        }
      ],
      "payable": false,
      "stateMutability": "nonpayable",
      "type": "function"
    },
    {
      "constant": true,
      "inputs": [],
      "name": "VERSION",
      "outputs": [
        {
          "internalType": "uint32",
          "name": "",
          "type": "uint32"
        }
      ],
      "payable": false,
      "stateMutability": "view",
      "type": "function"
    },
    {
      "inputs": [],
      "payable": false,
      "stateMutability": "nonpayable",
      "type": "constructor"
    },
    {
      "payable": true,
      "stateMutability": "payable",
      "type": "fallback"
    },
    {
      "anonymous": false,
      "inputs": [
        {
          "indexed": true,
          "internalType": "address",
          "name": "from",
          "type": "address"
        },
        {
          "indexed": false,
          "internalType": "uint256",
          "name": "value",
          "type": "uint256"
        }
      ],
      "name": "DepositReceived",
      "type": "event"
    },
    {
      "anonymous": false,
      "inputs": [
        {
          "indexed": true,
          "internalType": "address",
          "name": "grantor",
          "type": "address"
        },
        {
          "indexed": false,
          "internalType": "uint32",
          "name": "minStartDay",
          "type": "uint32"
        },
        {
          "indexed": false,
          "internalType": "uint32",
          "name": "maxStartDay",
          "type": "uint32"
        },
        {
          "indexed": false,
          "internalType": "uint32",
          "name": "expirationDay",
          "type": "uint32"
        }
      ],
      "name": "GrantorRestrictionsSet",
      "type": "event"
    },
    {
      "anonymous": false,
      "inputs": [
        {
          "indexed": true,
          "internalType": "address",
          "name": "vestingLocation",
          "type": "address"
        },
        {
          "indexed": false,
          "internalType": "uint32",
          "name": "cliffDuration",
          "type": "uint32"
        },
        {
          "indexed": true,
          "internalType": "uint32",
          "name": "duration",
          "type": "uint32"
        },
        {
          "indexed": false,
          "internalType": "uint32",
          "name": "interval",
          "type": "uint32"
        },
        {
          "indexed": true,
          "internalType": "bool",
          "name": "isRevocable",
          "type": "bool"
        }
      ],
      "name": "VestingScheduleCreated",
      "type": "event"
    },
    {
      "anonymous": false,
      "inputs": [
        {
          "indexed": true,
          "internalType": "address",
          "name": "beneficiary",
          "type": "address"
        },
        {
          "indexed": true,
          "internalType": "uint256",
          "name": "vestingAmount",
          "type": "uint256"
        },
        {
          "indexed": false,
          "internalType": "uint32",
          "name": "startDay",
          "type": "uint32"
        },
        {
          "indexed": false,
          "internalType": "address",
          "name": "vestingLocation",
          "type": "address"
        },
        {
          "indexed": true,
          "internalType": "address",
          "name": "grantor",
          "type": "address"
        }
      ],
      "name": "VestingTokensGranted",
      "type": "event"
    },
    {
      "anonymous": false,
      "inputs": [
        {
          "indexed": true,
          "internalType": "address",
          "name": "grantHolder",
          "type": "address"
        },
        {
          "indexed": true,
          "internalType": "uint32",
          "name": "onDay",
          "type": "uint32"
        }
      ],
      "name": "GrantRevoked",
      "type": "event"
    },
    {
      "anonymous": false,
      "inputs": [
        {
          "indexed": true,
          "internalType": "address",
          "name": "account",
          "type": "address"
        }
      ],
      "name": "GrantorAdded",
      "type": "event"
    },
    {
      "anonymous": false,
      "inputs": [
        {
          "indexed": true,
          "internalType": "address",
          "name": "account",
          "type": "address"
        }
      ],
      "name": "GrantorRemoved",
      "type": "event"
    },
    {
      "anonymous": false,
      "inputs": [
        {
          "indexed": true,
          "internalType": "address",
          "name": "account",
          "type": "address"
        }
      ],
      "name": "AccountRegistered",
      "type": "event"
    },
    {
      "anonymous": false,
      "inputs": [
        {
          "indexed": true,
          "internalType": "address",
          "name": "previousOwner",
          "type": "address"
        },
        {
          "indexed": true,
          "internalType": "address",
          "name": "newOwner",
          "type": "address"
        }
      ],
      "name": "OwnershipTransferred",
      "type": "event"
    },
    {
      "anonymous": false,
      "inputs": [
        {
          "indexed": false,
          "internalType": "address",
          "name": "account",
          "type": "address"
        }
      ],
      "name": "Paused",
      "type": "event"
    },
    {
      "anonymous": false,
      "inputs": [
        {
          "indexed": false,
          "internalType": "address",
          "name": "account",
          "type": "address"
        }
      ],
      "name": "Unpaused",
      "type": "event"
    },
    {
      "anonymous": false,
      "inputs": [
        {
          "indexed": true,
          "internalType": "address",
          "name": "account",
          "type": "address"
        }
      ],
      "name": "PauserAdded",
      "type": "event"
    },
    {
      "anonymous": false,
      "inputs": [
        {
          "indexed": true,
          "internalType": "address",
          "name": "account",
          "type": "address"
        }
      ],
      "name": "PauserRemoved",
      "type": "event"
    },
    {
      "anonymous": false,
      "inputs": [
        {
          "indexed": true,
          "internalType": "address",
          "name": "from",
          "type": "address"
        },
        {
          "indexed": true,
          "internalType": "address",
          "name": "to",
          "type": "address"
        },
        {
          "indexed": false,
          "internalType": "uint256",
          "name": "value",
          "type": "uint256"
        }
      ],
      "name": "Transfer",
      "type": "event"
    },
    {
      "anonymous": false,
      "inputs": [
        {
          "indexed": true,
          "internalType": "address",
          "name": "owner",
          "type": "address"
        },
        {
          "indexed": true,
          "internalType": "address",
          "name": "spender",
          "type": "address"
        },
        {
          "indexed": false,
          "internalType": "uint256",
          "name": "value",
          "type": "uint256"
        }
      ],
      "name": "Approval",
      "type": "event"
    },
    {
      "constant": false,
      "inputs": [
        {
          "internalType": "uint256",
          "name": "value",
          "type": "uint256"
        }
      ],
      "name": "burn",
      "outputs": [],
      "payable": false,
      "stateMutability": "nonpayable",
      "type": "function"
    },
    {
      "constant": false,
      "inputs": [],
      "name": "kill",
      "outputs": [
        {
          "internalType": "bool",
          "name": "itsDeadJim",
          "type": "bool"
        }
      ],
      "payable": false,
      "stateMutability": "nonpayable",
      "type": "function"
    }
  ],
  "bytecode": "0x60806040523480156200001157600080fd5b506040518060400160405280601e81526020017f706179706f6c6974616e2e696f20706179706f6c6974616e20746f6b656e00008152506040518060400160405280600381526020017f50504100000000000000000000000000000000000000000000000000000000008152506012620000a362000094620001a360201b60201c565b6001600160e01b03620001a816565b6005805460ff191690558251620000c290600690602086019062000586565b508151620000d890600790602085019062000586565b506008805460ff191660ff9290921691909117905550620000fa9050620001a3565b60088054610100600160a81b0319166101006001600160a01b03938416810291909117918290556040519104909116906000907f8be0079c531659141344cd1fd0a4f28419497f9722a3daafe3b4186f6b6457e0908290a3620001656001600160e01b03620001fa16565b506200017c3360006001600160e01b036200024416565b6200019d336b030f50b2905db5da7c4000006001600160e01b03620002c116565b62000628565b335b90565b620001c3816004620003e060201b62003a0c1790919060201c565b6040516001600160a01b038216907f6719d08c1888103bea251a4ed56406bd0c3e69723c8a1686e017e7bbe159b6f890600090a250565b33600081815260096020526040808220805460ff19166001179055519091907fcd822dc9688e20acea68724a2fbcfe4f3e526d20ecaa37b18fe3047ab377d6a5908390a250600190565b6001600160a01b0382166200025857600080fd5b6200027382600a620003e060201b62003a0c1790919060201c565b6001600160a01b0382166000818152600b6020526040808220805460ff1916851515179055517f614c7c37719098320f845a142223983b9adcc4c3f2663971d5b0eb4c661a24e79190a25050565b6001600160a01b0382166200033757604080517f08c379a000000000000000000000000000000000000000000000000000000000815260206004820152601f60248201527f45524332303a206d696e7420746f20746865207a65726f206164647265737300604482015290519081900360640190fd5b62000353816003546200048760201b620039b21790919060201c565b6003556001600160a01b03821660009081526001602090815260409091205462000388918390620039b262000487821b17901c565b6001600160a01b03831660008181526001602090815260408083209490945583518581529351929391927fddf252ad1be2c89b69c2b068fc378daa952ba7f163c4a11628f55a4df523b3ef9281900390910190a35050565b620003f582826001600160e01b036200050316565b156200046257604080517f08c379a000000000000000000000000000000000000000000000000000000000815260206004820152601f60248201527f526f6c65733a206163636f756e7420616c72656164792068617320726f6c6500604482015290519081900360640190fd5b6001600160a01b0316600090815260209190915260409020805460ff19166001179055565b600082820183811015620004fc57604080517f08c379a000000000000000000000000000000000000000000000000000000000815260206004820152601b60248201527f536166654d6174683a206164646974696f6e206f766572666c6f770000000000604482015290519081900360640190fd5b9392505050565b60006001600160a01b03821662000566576040517f08c379a00000000000000000000000000000000000000000000000000000000081526004018080602001828103825260228152602001806200458c6022913960400191505060405180910390fd5b506001600160a01b03166000908152602091909152604090205460ff1690565b828054600181600116156101000203166002900490600052602060002090601f016020900481019282601f10620005c957805160ff1916838001178555620005f9565b82800160010185558215620005f9579182015b82811115620005f9578251825591602001919060010190620005dc565b50620006079291506200060b565b5090565b620001a591905b8082111562000607576000815560010162000612565b613f5480620006386000396000f3fe6080604052600436106102935760003560e01c806370a082311161015a578063a9059cbb116100c1578063da91254c1161007a578063da91254c14610c75578063dd62ed3e14610c8a578063f2fde38b14610cc5578063fbc6d1cb14610cf8578063fd1154c214610d31578063ffa1ad7414610d7c57610293565b8063a9059cbb14610b2c578063acc27b9814610b65578063b74e452b14610bc0578063c3c5a54714610bee578063d56ad0ba14610c21578063d9f226e914610c6057610293565b80638456cb59116101135780638456cb5914610a4e5780638da5cb5b14610a635780638f32d59b14610a7857806395d89b4114610a8d57806399ad427b14610aa2578063a457c2d714610af357610293565b806370a0823114610879578063715018a6146108ac57806379cc6790146108c15780637af023a9146108fa57806382dc1ec4146109685780638403eeb51461099b57610293565b80633f4ba83a116101fe57806344e393cb116101b757806344e393cb1461075757806346fbf68e146107925780635c975abb146107c55780636d589d64146107da5780636d71a9c6146108315780636ef8d66d1461086457610293565b80633f4ba83a1461061957806341c0e1b51461062e57806341d5f61914610643578063423f6cef146106b157806342842e0e146106ea57806342966c681461072d57610293565b80632455a035116102505780632455a0351461047e578063313ce5671461050457806332ae38481461052f578063332cc9c61461056057806339509351146105955780633d3b993c146105ce57610293565b806306fdde03146102cb578063095ea7b31461035557806318160ddd146103a2578063190de9f7146103c95780631bd2cf38146103fc57806323b872dd1461043b575b60408051348152905133917f9936746a4565f9766fa768f88f56a7487c78780ac179562773d1c75c5269537e919081900360200190a2005b3480156102d757600080fd5b506102e0610d91565b6040805160208082528351818301528351919283929083019185019080838360005b8381101561031a578181015183820152602001610302565b50505050905090810190601f1680156103475780820380516001836020036101000a031916815260200191505b509250505060405180910390f35b34801561036157600080fd5b5061038e6004803603604081101561037857600080fd5b506001600160a01b038135169060200135610e28565b604080519115158252519081900360200190f35b3480156103ae57600080fd5b506103b7610f4d565b60408051918252519081900360200190f35b3480156103d557600080fd5b5061038e600480360360208110156103ec57600080fd5b50356001600160a01b0316610f53565b34801561040857600080fd5b5061038e6004803603604081101561041f57600080fd5b5080356001600160a01b0316906020013563ffffffff16610f6c565b34801561044757600080fd5b5061038e6004803603606081101561045e57600080fd5b506001600160a01b03813581169160208101359091169060400135611268565b34801561048a57600080fd5b506104ae600480360360208110156104a157600080fd5b503563ffffffff166112c9565b60408051998a5260208a01989098528888019690965263ffffffff9485166060890152928416608088015290831660a087015290911660c0850152151560e0840152151561010083015251908190036101200190f35b34801561051057600080fd5b50610519611300565b6040805160ff9092168252519081900360200190f35b34801561053b57600080fd5b50610544611309565b604080516001600160a01b039092168252519081900360200190f35b34801561056c57600080fd5b506105936004803603602081101561058357600080fd5b50356001600160a01b031661130d565b005b3480156105a157600080fd5b5061038e600480360360408110156105b857600080fd5b506001600160a01b038135169060200135611360565b3480156105da57600080fd5b5061038e600480360360808110156105f157600080fd5b5080356001600160a01b0316906020810135906040810135906060013563ffffffff166113bf565b34801561062557600080fd5b506105936115b7565b34801561063a57600080fd5b5061038e6116a0565b34801561064f57600080fd5b5061038e600480360361010081101561066757600080fd5b506001600160a01b038135169060208101359060408101359063ffffffff6060820135811691608081013582169160a082013581169160c08101359091169060e001351515611796565b3480156106bd57600080fd5b5061038e600480360360408110156106d457600080fd5b506001600160a01b038135169060200135611847565b3480156106f657600080fd5b5061038e6004803603606081101561070d57600080fd5b506001600160a01b038135811691602081013590911690604001356118a7565b34801561073957600080fd5b506105936004803603602081101561075057600080fd5b5035611909565b34801561076357600080fd5b506105936004803603604081101561077a57600080fd5b506001600160a01b03813516906020013515156119e6565b34801561079e57600080fd5b5061038e600480360360208110156107b557600080fd5b50356001600160a01b0316611a3b565b3480156107d157600080fd5b5061038e611a4e565b3480156107e657600080fd5b5061038e600480360360a08110156107fd57600080fd5b506001600160a01b038135169063ffffffff6020820135811691604081013582169160608201351690608001351515611a57565b34801561083d57600080fd5b5061038e6004803603602081101561085457600080fd5b50356001600160a01b0316611bb0565b34801561087057600080fd5b50610593611be1565b34801561088557600080fd5b506103b76004803603602081101561089c57600080fd5b50356001600160a01b0316611bf3565b3480156108b857600080fd5b50610593611c0e565b3480156108cd57600080fd5b50610593600480360360408110156108e457600080fd5b506001600160a01b038135169060200135611c8e565b34801561090657600080fd5b5061038e600480360361010081101561091e57600080fd5b506001600160a01b038135169060208101359060408101359063ffffffff6060820135811691608081013582169160a082013581169160c08101359091169060e001351515611c98565b34801561097457600080fd5b506105936004803603602081101561098b57600080fd5b50356001600160a01b0316611d73565b3480156109a757600080fd5b50610593600480360360208110156109be57600080fd5b8101906020810181356401000000008111156109d957600080fd5b8201836020820111156109eb57600080fd5b80359060200191846001830284011164010000000083111715610a0d57600080fd5b91908080601f016020809104026020016040519081016040528093929190818152602001838380828437600092019190915250929550611dc2945050505050565b348015610a5a57600080fd5b50610593611de0565b348015610a6f57600080fd5b50610544611ea7565b348015610a8457600080fd5b5061038e611ebb565b348015610a9957600080fd5b506102e0611ee6565b348015610aae57600080fd5b5061038e60048036036080811015610ac557600080fd5b506001600160a01b038135169063ffffffff6020820135811691604081013582169160609091013516611f47565b348015610aff57600080fd5b5061038e60048036036040811015610b1657600080fd5b506001600160a01b0381351690602001356121cd565b348015610b3857600080fd5b5061038e60048036036040811015610b4f57600080fd5b506001600160a01b038135169060200135612225565b348015610b7157600080fd5b50610b9860048036036020811015610b8857600080fd5b50356001600160a01b03166122ff565b6040805163ffffffff9485168152928416602084015292168183015290519081900360600190f35b348015610bcc57600080fd5b50610bd56123a7565b6040805163ffffffff9092168252519081900360200190f35b348015610bfa57600080fd5b5061038e60048036036020811015610c1157600080fd5b50356001600160a01b03166123b0565b348015610c2d57600080fd5b506104ae60048036036040811015610c4457600080fd5b5080356001600160a01b0316906020013563ffffffff166123ce565b348015610c6c57600080fd5b5061038e6124e6565b348015610c8157600080fd5b506102e0612530565b348015610c9657600080fd5b506103b760048036036040811015610cad57600080fd5b506001600160a01b0381358116916020013516612599565b348015610cd157600080fd5b5061059360048036036020811015610ce857600080fd5b50356001600160a01b03166125c4565b348015610d0457600080fd5b5061038e60048036036040811015610d1b57600080fd5b506001600160a01b038135169060200135612628565b348015610d3d57600080fd5b5061038e60048036036080811015610d5457600080fd5b5080356001600160a01b0316906020810135906040810135906060013563ffffffff1661267d565b348015610d8857600080fd5b50610bd561282b565b60068054604080516020601f6002600019610100600188161502019095169490940493840181900481028201810190925282815260609390929091830182828015610e1d5780601f10610df257610100808354040283529160200191610e1d565b820191906000526020600020905b815481529060010190602001808311610e0057829003601f168201915b505050505090505b90565b60003382610e3e8282610e396123a7565b612830565b81610e4884611bf3565b10610e845760405180604001604052806019815260200178696e73756666696369656e74207665737465642066756e647360381b815250610eb0565b60405180604001604052806012815260200171696e73756666696369656e742066756e647360701b8152505b90610f395760405162461bcd60e51b81526004018080602001828103825283818151815260200191508051906020019080838360005b83811015610efe578181015183820152602001610ee6565b50505050905090810190601f168015610f2b5780820380516001836020036101000a031916815260200191505b509250505060405180910390fd5b50610f448585612847565b95945050505050565b60035490565b6000610f66600a8363ffffffff61289f16565b92915050565b6000610f7733610f53565b610fb6576040805162461bcd60e51b815260206004820152600b60248201526a37b7363ca3b930b73a37b960a91b604482015290519081900360640190fd5b6001600160a01b038084166000908152600d6020908152604080832060028101549094168352600c909152812090610fec611ea7565b6001600160a01b0316336001600160a01b03161480611017575060038301546001600160a01b031633145b611056576040805162461bcd60e51b815260206004820152600b60248201526a1b9bdd08185b1b1bddd95960aa1b604482015290519081900360640190fd5b825460ff166110ac576040805162461bcd60e51b815260206004820152601a60248201527f6e6f206163746976652076657374696e67207363686564756c65000000000000604482015290519081900360640190fd5b8154610100900460ff166110f5576040805162461bcd60e51b815260206004820152600b60248201526a69727265766f6361626c6560a81b604482015290519081900360640190fd5b8154835462010000900463ffffffff908116600160301b90920481169190910181169086161115611159576040805162461bcd60e51b81526020600482015260096024820152681b9bc81959999958dd60ba1b604482015290519081900360640190fd5b6111616123a7565b63ffffffff168563ffffffff1610156111c1576040805162461bcd60e51b815260206004820152601d60248201527f63616e6e6f74207265766f6b652076657374656420686f6c64696e6773000000604482015290519081900360640190fd5b6111cb8686612906565b60038401549091506111e89087906001600160a01b031683612a58565b60038301546112029087906001600160a01b031683611268565b506001600160a01b0386166000818152600d6020526040808220805460ff1961ff0019909116610100171690555163ffffffff881692917f906c0c4c98565a396c542d9102cae7a794e84af6763123e068a1b277333bf4a491a350600195945050505050565b60055460009060ff16156112b6576040805162461bcd60e51b815260206004820152601060248201526f14185d5cd8589b194e881c185d5cd95960821b604482015290519081900360640190fd5b6112c1848484612b44565b949350505050565b60008060008060008060008060006112e1338b6123ce565b9850985098509850985098509850985098509193959799909294969850565b60085460ff1690565b3390565b611315611ebb565b611354576040805162461bcd60e51b81526020600482018190526024820152600080516020613e08833981519152604482015290519081900360640190fd5b61135d81612bd1565b50565b60055460009060ff16156113ae576040805162461bcd60e51b815260206004820152601060248201526f14185d5cd8589b194e881c185d5cd95960821b604482015290519081900360640190fd5b6113b88383612c2c565b9392505050565b6000336113cb81612c89565b611418576040805162461bcd60e51b81526020600482015260196024820152786772616e746f72206163636f756e74206e6f7420726561647960381b604482015290519081900360640190fd5b336000908152600e60205260409020805484919060ff16611479576040805162461bcd60e51b81526020600482015260166024820152751cd95d081c995cdd1c9a58dd1a5bdb9cc8199a5c9cdd60521b604482015290519081900360640190fd5b805463ffffffff6101009091048116908316108015906114ac5750805463ffffffff650100000000009091048116908316105b6114f2576040805162461bcd60e51b8152602060048201526012602482015271737461727444617920746f6f206561726c7960701b604482015290519081900360640190fd5b8054600160481b900463ffffffff166115096123a7565b63ffffffff1610611553576040805162461bcd60e51b815260206004820152600f60248201526e19dc985b9d1bdc88195e1c1a5c9959608a1b604482015290519081900360640190fd5b8761155d81612ca4565b61159c576040805162461bcd60e51b81526020600482015260166024820152600080516020613d58833981519152604482015290519081900360640190fd5b6115aa898989893333612cd7565b9998505050505050505050565b6115c76115c2611309565b611a3b565b6116025760405162461bcd60e51b8152600401808060200182810382526030815260200180613ce06030913960400191505060405180910390fd5b60055460ff16611650576040805162461bcd60e51b815260206004820152601460248201527314185d5cd8589b194e881b9bdd081c185d5cd95960621b604482015290519081900360640190fd5b6005805460ff191690557f5db9ee0a495bf2e6ff9c91a7834c1ba4fdd244a5e8aa4e537bd38aeae4b073aa611683611309565b604080516001600160a01b039092168252519081900360200190a1565b60055460009060ff166116f1576040805162461bcd60e51b815260206004820152601460248201527314185d5cd8589b194e881b9bdd081c185d5cd95960621b604482015290519081900360640190fd5b6116fc6115c2611309565b6117375760405162461bcd60e51b8152600401808060200182810382526030815260200180613ce06030913960400191505060405180910390fd5b61174033611a3b565b61177e576040805162461bcd60e51b815260206004820152600a60248201526937b7363ca830bab9b2b960b11b604482015290519081900360640190fd5b6000611788611ea7565b9050806001600160a01b0316ff5b60006117a133610f53565b6117e0576040805162461bcd60e51b815260206004820152600b60248201526a37b7363ca3b930b73a37b960a91b604482015290519081900360640190fd5b886117ea81612ca4565b611829576040805162461bcd60e51b81526020600482015260166024820152600080516020613d58833981519152604482015290519081900360640190fd5b6118398a8a8a8a8a8a8a8a611c98565b9a9950505050505050505050565b60008261185381612ca4565b611892576040805162461bcd60e51b81526020600482015260166024820152600080516020613d58833981519152604482015290519081900360640190fd5b61189c8484612225565b506001949350505050565b6000826118b381612ca4565b6118f2576040805162461bcd60e51b81526020600482015260166024820152600080516020613d58833981519152604482015290519081900360640190fd5b6118fd858585611268565b50600195945050505050565b33816119188282610e396123a7565b8161192284611bf3565b1061195e5760405180604001604052806019815260200178696e73756666696369656e74207665737465642066756e647360381b81525061198a565b60405180604001604052806012815260200171696e73756666696369656e742066756e647360701b8152505b906119d65760405162461bcd60e51b8152602060048201818152835160248401528351909283926044909101919085019080838360008315610efe578181015183820152602001610ee6565b506119e13384612fe0565b505050565b6119ee611ebb565b611a2d576040805162461bcd60e51b81526020600482018190526024820152600080516020613e08833981519152604482015290519081900360640190fd5b611a3782826130dc565b5050565b6000610f6660048363ffffffff61289f16565b60055460ff1690565b6000611a61611ebb565b611aa0576040805162461bcd60e51b81526020600482018190526024820152600080516020613e08833981519152604482015290519081900360640190fd5b85611aaa81612ca4565b611ae9576040805162461bcd60e51b81526020600482015260166024820152600080516020613d58833981519152604482015290519081900360640190fd5b611af287611bb0565b611b3a576040805162461bcd60e51b8152602060048201526014602482015273756e69666f726d206772616e746f72206f6e6c7960601b604482015290519081900360640190fd5b611b438761314e565b15611b95576040805162461bcd60e51b815260206004820152601760248201527f7363686564756c6520616c726561647920657869737473000000000000000000604482015290519081900360640190fd5b611ba2878688878761316c565b506001979650505050505050565b6000611bbb82610f53565b8015610f665750506001600160a01b03166000908152600b602052604090205460ff1690565b611bf1611bec611309565b613419565b565b6001600160a01b031660009081526001602052604090205490565b611c16611ebb565b611c55576040805162461bcd60e51b81526020600482018190526024820152600080516020613e08833981519152604482015290519081900360640190fd5b6040805162461bcd60e51b81526020600482015260096024820152683337b93134b23232b760b91b604482015290519081900360640190fd5b611a378282613461565b6000611ca333610f53565b611ce2576040805162461bcd60e51b815260206004820152600b60248201526a37b7363ca3b930b73a37b960a91b604482015290519081900360640190fd5b6001600160a01b0389166000908152600d602052604090205460ff1615611d47576040805162461bcd60e51b81526020600482015260146024820152736772616e7420616c72656164792065786973747360601b604482015290519081900360640190fd5b611d54898587868661316c565b50611d63898989898d33612cd7565b5060019998505050505050505050565b611d7e6115c2611309565b611db95760405162461bcd60e51b8152600401808060200182810382526030815260200180613ce06030913960400191505060405180910390fd5b61135d816134b5565b336000908152602081815260409091208251611a3792840190613c02565b611deb6115c2611309565b611e265760405162461bcd60e51b8152600401808060200182810382526030815260200180613ce06030913960400191505060405180910390fd5b60055460ff1615611e71576040805162461bcd60e51b815260206004820152601060248201526f14185d5cd8589b194e881c185d5cd95960821b604482015290519081900360640190fd5b6005805460ff191660011790557f62e78cea01bee320cd4e420270b5ea74000d11b0c9f74754ebdbfc544b05a258611683611309565b60085461010090046001600160a01b031690565b60085460009061010090046001600160a01b0316611ed7611309565b6001600160a01b031614905090565b60078054604080516020601f6002600019610100600188161502019095169490940493840181900481028201810190925282815260609390929091830182828015610e1d5780601f10610df257610100808354040283529160200191610e1d565b6000611f51611ebb565b611f90576040805162461bcd60e51b81526020600482018190526024820152600080516020613e08833981519152604482015290519081900360640190fd5b84611f9a81612ca4565b611fd9576040805162461bcd60e51b81526020600482015260166024820152600080516020613d58833981519152604482015290519081900360640190fd5b611fe286611bb0565b8015611ff957508463ffffffff168463ffffffff16115b801561201757506120086123a7565b63ffffffff168363ffffffff16115b612059576040805162461bcd60e51b815260206004820152600e60248201526d696e76616c696420706172616d7360901b604482015290519081900360640190fd5b60405180608001604052806001151581526020018663ffffffff1681526020018563ffffffff1681526020018463ffffffff16815250600e6000886001600160a01b03166001600160a01b0316815260200190815260200160002060008201518160000160006101000a81548160ff02191690831515021790555060208201518160000160016101000a81548163ffffffff021916908363ffffffff16021790555060408201518160000160056101000a81548163ffffffff021916908363ffffffff16021790555060608201518160000160096101000a81548163ffffffff021916908363ffffffff160217905550905050856001600160a01b03167fd204f080300249d73110cd2c2e8d720f0362e94b8e0f1b797ac249acca176551868686604051808463ffffffff1663ffffffff1681526020018363ffffffff1663ffffffff1681526020018263ffffffff1663ffffffff168152602001935050505060405180910390a250600195945050505050565b60055460009060ff161561221b576040805162461bcd60e51b815260206004820152601060248201526f14185d5cd8589b194e881c185d5cd95960821b604482015290519081900360640190fd5b6113b883836134fd565b600033826122368282610e396123a7565b8161224084611bf3565b1061227c5760405180604001604052806019815260200178696e73756666696369656e74207665737465642066756e647360381b8152506122a8565b60405180604001604052806012815260200171696e73756666696369656e742066756e647360701b8152505b906122f45760405162461bcd60e51b8152602060048201818152835160248401528351909283926044909101919085019080838360008315610efe578181015183820152602001610ee6565b50610f44858561356b565b60008060008361230e33610f53565b806123215750336001600160a01b038216145b612366576040805162461bcd60e51b815260206004820152601160248201527037b7363ca3b930b73a37b927b929b2b63360791b604482015290519081900360640190fd5b505050506001600160a01b03166000908152600c602052604090205463ffffffff600160301b8204811692620100008304821692600160501b900490911690565b62015180420490565b6001600160a01b031660009081526009602052604090205460ff1690565b60008060008060008060008060008a6123e633610f53565b806123f95750336001600160a01b038216145b61243e576040805162461bcd60e51b815260206004820152601160248201527037b7363ca3b930b73a37b927b929b2b63360791b604482015290519081900360640190fd5b6001600160a01b03808d166000908152600d6020908152604080832060028101549094168352600c9091528120906124768f8f612906565b600184015490915061248e818363ffffffff6135c316565b93549254939d50909b50995063ffffffff6201000080830482169a50600160301b840482169950830481169750600160501b909204909116945060ff8082169450610100909104169150509295985092959850929598565b33600081815260096020526040808220805460ff19166001179055519091907fcd822dc9688e20acea68724a2fbcfe4f3e526d20ecaa37b18fe3047ab377d6a5908390a250600190565b336000908152602081815260409182902080548351601f6002600019610100600186161502019093169290920491820184900484028101840190945280845260609392830182828015610e1d5780601f10610df257610100808354040283529160200191610e1d565b6001600160a01b03918216600090815260026020908152604080832093909416825291909152205490565b6125cc611ebb565b61260b576040805162461bcd60e51b81526020600482018190526024820152600080516020613e08833981519152604482015290519081900360640190fd5b61261433612bd1565b61261d81613605565b61135d8160006130dc565b60008261263481612ca4565b612673576040805162461bcd60e51b81526020600482015260166024820152600080516020613d58833981519152604482015290519081900360640190fd5b61189c8484610e28565b60003361268981612c89565b6126d6576040805162461bcd60e51b81526020600482015260196024820152786772616e746f72206163636f756e74206e6f7420726561647960381b604482015290519081900360640190fd5b336000908152600e60205260409020805484919060ff16612737576040805162461bcd60e51b81526020600482015260166024820152751cd95d081c995cdd1c9a58dd1a5bdb9cc8199a5c9cdd60521b604482015290519081900360640190fd5b805463ffffffff61010090910481169083161080159061276a5750805463ffffffff650100000000009091048116908316105b6127b0576040805162461bcd60e51b8152602060048201526012602482015271737461727444617920746f6f206561726c7960701b604482015290519081900360640190fd5b8054600160481b900463ffffffff166127c76123a7565b63ffffffff1610612811576040805162461bcd60e51b815260206004820152600f60248201526e19dc985b9d1bdc88195e1c1a5c9959608a1b604482015290519081900360640190fd5b61281f888888883333612cd7565b98975050505050505050565b600681565b600061283c848361369e565b909211159392505050565b60055460009060ff1615612895576040805162461bcd60e51b815260206004820152601060248201526f14185d5cd8589b194e881c185d5cd95960821b604482015290519081900360640190fd5b6113b883836136c8565b60006001600160a01b0382166128e65760405162461bcd60e51b8152600401808060200182810382526022815260200180613e286022913960400191505060405180910390fd5b506001600160a01b03166000908152602091909152604090205460ff1690565b6001600160a01b038083166000908152600d6020908152604080832060028101549094168352600c909152812090919082612940856136dc565b835490915060ff161580612971575081548354620100009081900463ffffffff908116919092048216018116908216105b15612983575050600101549050610f66565b8154835462010000900463ffffffff908116600160301b9092048116919091018116908216106129b95760009350505050610f66565b8254825463ffffffff620100009092048216830391600091600160501b900481169081908416816129e657fe5b040290506000612a338560000160069054906101000a900463ffffffff1663ffffffff16612a278463ffffffff1689600101546136f890919063ffffffff16565b9063ffffffff61375116565b6001870154909150612a4b908263ffffffff6135c316565b9650505050505050610f66565b6001600160a01b038316612a9d5760405162461bcd60e51b8152600401808060200182810382526024815260200180613eb46024913960400191505060405180910390fd5b6001600160a01b038216612ae25760405162461bcd60e51b8152600401808060200182810382526022815260200180613d366022913960400191505060405180910390fd5b6001600160a01b03808416600081815260026020908152604080832094871680845294825291829020859055815185815291517f8c5be1e5ebec7d5bd14f71427d1e84f3dd0314c0f7b2291e5b200ac8c7c3b9259281900390910190a3505050565b6000612b51848484613793565b612bc784612b5d611309565b612bc285604051806060016040528060288152602001613de0602891396001600160a01b038a16600090815260026020526040812090612b9b611309565b6001600160a01b03168152602081019190915260400160002054919063ffffffff6138f116565b612a58565b5060019392505050565b6001600160a01b038116612be457600080fd5b612bf5600a8263ffffffff61394b16565b6040516001600160a01b038216907f33a8bb468e8361c5c40d643192eb6970b91cb87aa0200f8709f5b805087b905390600090a250565b6000612c80612c39611309565b84612bc28560026000612c4a611309565b6001600160a01b03908116825260208083019390935260409182016000908120918c16815292529020549063ffffffff6139b216565b50600192915050565b6000612c9482611bb0565b8015610f665750610f668261314e565b60006001600160a01b038216331480610f665750506001600160a01b031660009081526009602052604090205460ff1690565b6001600160a01b0386166000908152600d602052604081205460ff1615612d3c576040805162461bcd60e51b81526020600482015260146024820152736772616e7420616c72656164792065786973747360601b604482015290519081900360640190fd5b858511158015612d4c5750600085115b8015612d605750612acd63ffffffff851610155b8015612d7457506205bd8863ffffffff8516105b612dbe576040805162461bcd60e51b8152602060048201526016602482015275696e76616c69642076657374696e6720706172616d7360501b604482015290519081900360640190fd5b612dc78361314e565b612e18576040805162461bcd60e51b815260206004820152601860248201527f6e6f20737563682076657374696e67207363686564756c650000000000000000604482015290519081900360640190fd5b612e23828888613793565b6040518060c001604052806001151581526020016000151581526020018563ffffffff168152602001868152602001846001600160a01b03168152602001836001600160a01b0316815250600d6000896001600160a01b03166001600160a01b0316815260200190815260200160002060008201518160000160006101000a81548160ff02191690831515021790555060208201518160000160016101000a81548160ff02191690831515021790555060408201518160000160026101000a81548163ffffffff021916908363ffffffff1602179055506060820151816001015560808201518160020160006101000a8154816001600160a01b0302191690836001600160a01b0316021790555060a08201518160030160006101000a8154816001600160a01b0302191690836001600160a01b03160217905550905050816001600160a01b031685886001600160a01b03167fce19dc9f3460f5845c81c7fa52526977d7e7275df4b1d0e40ea09653252e0c758787604051808363ffffffff1663ffffffff168152602001826001600160a01b03166001600160a01b031681526020019250505060405180910390a45060019695505050505050565b6001600160a01b0382166130255760405162461bcd60e51b8152600401808060200182810382526021815260200180613e6e6021913960400191505060405180910390fd5b61306881604051806060016040528060228152602001613cbe602291396001600160a01b038516600090815260016020526040902054919063ffffffff6138f116565b6001600160a01b038316600090815260016020526040902055600354613094908263ffffffff6135c316565b6003556040805182815290516000916001600160a01b038516917fddf252ad1be2c89b69c2b068fc378daa952ba7f163c4a11628f55a4df523b3ef9181900360200190a35050565b6001600160a01b0382166130ef57600080fd5b613100600a8363ffffffff613a0c16565b6001600160a01b0382166000818152600b6020526040808220805460ff1916851515179055517f614c7c37719098320f845a142223983b9adcc4c3f2663971d5b0eb4c661a24e79190a25050565b6001600160a01b03166000908152600c602052604090205460ff1690565b6000808463ffffffff1611801561318b5750610e4463ffffffff851611155b80156131a257508363ffffffff168563ffffffff16105b80156131b5575060018363ffffffff1610155b613206576040805162461bcd60e51b815260206004820152601860248201527f696e76616c69642076657374696e67207363686564756c650000000000000000604482015290519081900360640190fd5b8263ffffffff168463ffffffff168161321b57fe5b0663ffffffff16600014801561324c57508263ffffffff168563ffffffff168161324157fe5b0663ffffffff166000145b6132875760405162461bcd60e51b8152600401808060200182810382526023815260200180613ed86023913960400191505060405180910390fd5b6040518060a0016040528060011515815260200183151581526020018663ffffffff1681526020018563ffffffff1681526020018463ffffffff16815250600c6000886001600160a01b03166001600160a01b0316815260200190815260200160002060008201518160000160006101000a81548160ff02191690831515021790555060208201518160000160016101000a81548160ff02191690831515021790555060408201518160000160026101000a81548163ffffffff021916908363ffffffff16021790555060608201518160000160066101000a81548163ffffffff021916908363ffffffff160217905550608082015181600001600a6101000a81548163ffffffff021916908363ffffffff1602179055509050508115158463ffffffff16876001600160a01b03167fb84219eaee5910cc5311a393fbd4287b14bc791973b97f64d4b61b6d8554adc78887604051808363ffffffff1663ffffffff1681526020018263ffffffff1663ffffffff1681526020019250505060405180910390a450600195945050505050565b61342a60048263ffffffff61394b16565b6040516001600160a01b038216907fcd265ebaf09df2871cc7bd4133404a235ba12eff2041bb89d9c714a2621c7c7e90600090a250565b61346b8282612fe0565b611a3782613477611309565b612bc284604051806060016040528060248152602001613e4a602491396001600160a01b038816600090815260026020526040812090612b9b611309565b6134c660048263ffffffff613a0c16565b6040516001600160a01b038216907f6719d08c1888103bea251a4ed56406bd0c3e69723c8a1686e017e7bbe159b6f890600090a250565b6000612c8061350a611309565b84612bc285604051806060016040528060258152602001613efb6025913960026000613534611309565b6001600160a01b03908116825260208083019390935260409182016000908120918d1681529252902054919063ffffffff6138f116565b60055460009060ff16156135b9576040805162461bcd60e51b815260206004820152601060248201526f14185d5cd8589b194e881c185d5cd95960821b604482015290519081900360640190fd5b6113b88383613a8d565b60006113b883836040518060400160405280601e81526020017f536166654d6174683a207375627472616374696f6e206f766572666c6f7700008152506138f1565b8061360f81612ca4565b61364e576040805162461bcd60e51b81526020600482015260166024820152600080516020613d58833981519152604482015290519081900360640190fd5b613656611ebb565b613695576040805162461bcd60e51b81526020600482018190526024820152600080516020613e08833981519152604482015290519081900360640190fd5b611a3782613aa1565b6000806136aa84611bf3565b90506000610f446136bb8686612906565b839063ffffffff6135c316565b6000612c806136d5611309565b8484612a58565b600063ffffffff8216156136f05781610f66565b610f666123a7565b60008261370757506000610f66565b8282028284828161371457fe5b04146113b85760405162461bcd60e51b8152600401808060200182810382526021815260200180613dbf6021913960400191505060405180910390fd5b60006113b883836040518060400160405280601a81526020017f536166654d6174683a206469766973696f6e206279207a65726f000000000000815250613af1565b6001600160a01b0383166137d85760405162461bcd60e51b8152600401808060200182810382526025815260200180613e8f6025913960400191505060405180910390fd5b6001600160a01b03821661381d5760405162461bcd60e51b8152600401808060200182810382526023815260200180613c9b6023913960400191505060405180910390fd5b61386081604051806060016040528060268152602001613d78602691396001600160a01b038616600090815260016020526040902054919063ffffffff6138f116565b6001600160a01b038085166000908152600160205260408082209390935590841681522054613895908263ffffffff6139b216565b6001600160a01b0380841660008181526001602090815260409182902094909455805185815290519193928716927fddf252ad1be2c89b69c2b068fc378daa952ba7f163c4a11628f55a4df523b3ef92918290030190a3505050565b600081848411156139435760405162461bcd60e51b8152602060048201818152835160248401528351909283926044909101919085019080838360008315610efe578181015183820152602001610ee6565b505050900390565b613955828261289f565b6139905760405162461bcd60e51b8152600401808060200182810382526021815260200180613d9e6021913960400191505060405180910390fd5b6001600160a01b0316600090815260209190915260409020805460ff19169055565b6000828201838110156113b8576040805162461bcd60e51b815260206004820152601b60248201527f536166654d6174683a206164646974696f6e206f766572666c6f770000000000604482015290519081900360640190fd5b613a16828261289f565b15613a68576040805162461bcd60e51b815260206004820152601f60248201527f526f6c65733a206163636f756e7420616c72656164792068617320726f6c6500604482015290519081900360640190fd5b6001600160a01b0316600090815260209190915260409020805460ff19166001179055565b6000612c80613a9a611309565b8484613793565b613aa9611ebb565b613ae8576040805162461bcd60e51b81526020600482018190526024820152600080516020613e08833981519152604482015290519081900360640190fd5b61135d81613b56565b60008183613b405760405162461bcd60e51b8152602060048201818152835160248401528351909283926044909101919085019080838360008315610efe578181015183820152602001610ee6565b506000838581613b4c57fe5b0495945050505050565b6001600160a01b038116613b9b5760405162461bcd60e51b8152600401808060200182810382526026815260200180613d106026913960400191505060405180910390fd5b6008546040516001600160a01b0380841692610100900416907f8be0079c531659141344cd1fd0a4f28419497f9722a3daafe3b4186f6b6457e090600090a3600880546001600160a01b0390921661010002610100600160a81b0319909216919091179055565b828054600181600116156101000203166002900490600052602060002090601f016020900481019282601f10613c4357805160ff1916838001178555613c70565b82800160010185558215613c70579182015b82811115613c70578251825591602001919060010190613c55565b50613c7c929150613c80565b5090565b610e2591905b80821115613c7c5760008155600101613c8656fe45524332303a207472616e7366657220746f20746865207a65726f206164647265737345524332303a206275726e20616d6f756e7420657863656564732062616c616e6365506175736572526f6c653a2063616c6c657220646f6573206e6f742068617665207468652050617573657220726f6c654f776e61626c653a206e6577206f776e657220697320746865207a65726f206164647265737345524332303a20617070726f766520746f20746865207a65726f20616464726573736163636f756e74206e6f7420726567697374657265640000000000000000000045524332303a207472616e7366657220616d6f756e7420657863656564732062616c616e6365526f6c65733a206163636f756e7420646f6573206e6f74206861766520726f6c65536166654d6174683a206d756c7469706c69636174696f6e206f766572666c6f7745524332303a207472616e7366657220616d6f756e74206578636565647320616c6c6f77616e63654f776e61626c653a2063616c6c6572206973206e6f7420746865206f776e6572526f6c65733a206163636f756e7420697320746865207a65726f206164647265737345524332303a206275726e20616d6f756e74206578636565647320616c6c6f77616e636545524332303a206275726e2066726f6d20746865207a65726f206164647265737345524332303a207472616e736665722066726f6d20746865207a65726f206164647265737345524332303a20617070726f76652066726f6d20746865207a65726f2061646472657373696e76616c696420636c6966662f6475726174696f6e20666f7220696e74657276616c45524332303a2064656372656173656420616c6c6f77616e63652062656c6f77207a65726fa265627a7a72315820061fac8d542a4ce8dbdc2261200277748bc524bbcf57c641a1d5c0a1f80e0c3464736f6c634300050b0032526f6c65733a206163636f756e7420697320746865207a65726f2061646472657373",
  "source": "pragma solidity ^0.5.7;\n\nimport \"./Identity.sol\";\nimport \"../openzeppelin-contracts/contracts/token/ERC20/ERC20Burnable.sol\";\nimport \"../openzeppelin-contracts/contracts/token/ERC20/ERC20Detailed.sol\";\nimport \"./UniformTokenGrantor.sol\";\n\n/**\n * @dev An ERC20 implementation of the Paypolitan Token. All tokens are initially pre-assigned to\n * the creator, and can later be distributed freely using transfer transferFrom and other ERC20\n * functions.\n */\ncontract PaypolitanToken is\n    Identity,\n    ERC20,\n    ERC20Pausable,\n    ERC20Burnable,\n    ERC20Detailed,\n    UniformTokenGrantor\n{\n    uint32 public constant VERSION = 6;\n\n    uint8 private constant DECIMALS = 18;\n    uint256 private constant TOKEN_WEI = 10**uint256(DECIMALS);\n\n    uint256 private constant INITIAL_WHOLE_TOKENS = uint256(946970000);\n    uint256 private constant INITIAL_SUPPLY = uint256(INITIAL_WHOLE_TOKENS) * uint256(TOKEN_WEI);\n\n    /**\n     * @dev Constructor that gives msg.sender all of existing tokens.\n     */\n    constructor() public ERC20Detailed(\"paypolitan.io paypolitan token\", \"PPA\", DECIMALS) {\n        // This is the only place where we ever mint tokens.\n        _mint(msg.sender, INITIAL_SUPPLY);\n    }\n\n    event DepositReceived(address indexed from, uint256 value);\n\n    /**\n     * fallback function: collect any ether sent to us (whether we asked for it or not).\n     */\n    function() external payable {\n        // Track where unexpected ETH came from so we can follow up later.\n        emit DepositReceived(msg.sender, msg.value);\n    }\n\n    /**\n     * @dev Allow only the owner to burn tokens from the owner's wallet, also decreasing the total\n     * supply. There is no reason for a token holder to EVER call this method directly. It will be\n     * used by the future Dyncoin contract to implement the PaypolitanToken side of of token redemption.\n     */\n    function burn(uint256 value) public onlyIfFundsAvailableNow(msg.sender, value) {\n        // This is the only place where we ever burn tokens.\n        _burn(msg.sender, value);\n    }\n\n    /**\n     * @dev Allow pauser to kill the contract (which must already be paused), with enough restrictions\n     * in place to ensure this could not happen by accident very easily. ETH is returned to owner wallet.\n     */\n    function kill() public whenPaused onlyPauser returns (bool itsDeadJim) {\n        require(isPauser(msg.sender), \"onlyPauser\");\n        address payable payableOwner = address(uint160(owner()));\n        selfdestruct(payableOwner);\n        return true;\n    }\n}\n",
  "sourcePath": "/home/adrian/work/paypolitan_token/Paypolitan_token/contracts/PaypolitanToken.sol",
  "compiler": {
    "name": "solc",
    "version": "0.5.11+commit.c082d0b4.Emscripten.clang"
  },
  "schemaVersion": "3.0.13",
  "updatedAt": "2019-09-11T08:55:54.348Z",
  "devdoc": {
    "details": "An ERC20 implementation of the Paypolitan Token. All tokens are initially pre-assigned to the creator, and can later be distributed freely using transfer transferFrom and other ERC20 functions.",
    "methods": {
      "allowance(address,address)": {
        "details": "See {IERC20-allowance}."
      },
      "approve(address,uint256)": {
        "details": "Additional available funds check to prevent spending held but non-vested tokens."
      },
      "balanceOf(address)": {
        "details": "See {IERC20-balanceOf}."
      },
      "burn(uint256)": {
        "details": "Allow only the owner to burn tokens from the owner's wallet, also decreasing the total supply. There is no reason for a token holder to EVER call this method directly. It will be used by the future Dyncoin contract to implement the PaypolitanToken side of of token redemption."
      },
      "burnFrom(address,uint256)": {
        "details": "See {ERC20-_burnFrom}."
      },
      "constructor": {
        "details": "Constructor that gives msg.sender all of existing tokens."
      },
      "decimals()": {
        "details": "Returns the number of decimals used to get its user representation. For example, if `decimals` equals `2`, a balance of `505` tokens should be displayed to a user as `5,05` (`505 / 10 ** 2`).     * Tokens usually opt for a value of 18, imitating the relationship between Ether and Wei.     * NOTE: This information is only used for _display_ purposes: it in no way affects any of the arithmetic of the contract, including {IERC20-balanceOf} and {IERC20-transfer}."
      },
      "getIntrinsicVestingSchedule(address)": {
        "details": "returns all information about the vesting schedule directly associated with the given account. This can be used to double check that a uniform grantor has been set up with a correct vesting schedule. Also, recipients of standard (non-uniform) grants can use this. This method is only callable by the account holder or a grantor, so this is mainly intended for administrative use.     * Holders of uniform grants must use vestingAsOf() to view their vesting schedule, as it is stored in the grantor account.",
        "params": {
          "grantHolder": "= The address to do this for.  the special value 0 to indicate today."
        },
        "return": "= A tuple with the following values:  vestDuration = grant duration in days.  cliffDuration = duration of the cliff.  vestIntervalDays = number of days between vesting periods."
      },
      "grantUniformVestingTokens(address,uint256,uint256,uint32)": {
        "details": "Immediately grants tokens to an address, including a portion that will vest over time according to the uniform vesting schedule already established in the grantor's account.",
        "params": {
          "beneficiary": "= Address to which tokens will be granted.",
          "startDay": "= Start day of the grant's vesting schedule, in days since the UNIX epoch  (start of day). The startDay may be given as a date in the future or in the past, going as far  back as year 2000.",
          "totalAmount": "= Total number of tokens to deposit into the account.",
          "vestingAmount": "= Out of totalAmount, the number of tokens subject to vesting."
        }
      },
      "grantVestingTokens(address,uint256,uint256,uint32,uint32,uint32,uint32,bool)": {
        "details": "Immediately grants tokens to an address, including a portion that will vest over time according to a set vesting schedule. The overall duration and cliff duration of the grant must be an even multiple of the vesting interval.",
        "params": {
          "beneficiary": "= Address to which tokens will be granted.",
          "cliffDuration": "= Duration of the cliff, with respect to the grant start day, in days.",
          "duration": "= Duration of the vesting schedule, with respect to the grant start day, in days.",
          "interval": "= Number of days between vesting increases.",
          "isRevocable": "= True if the grant can be revoked (i.e. was a gift) or false if it cannot  be revoked (i.e. tokens were purchased).",
          "startDay": "= Start day of the grant's vesting schedule, in days since the UNIX epoch  (start of day). The startDay may be given as a date in the future or in the past, going as far  back as year 2000.",
          "totalAmount": "= Total number of tokens to deposit into the account.",
          "vestingAmount": "= Out of totalAmount, the number of tokens subject to vesting."
        }
      },
      "isOwner()": {
        "details": "Returns true if the caller is the current owner."
      },
      "kill()": {
        "details": "Allow pauser to kill the contract (which must already be paused), with enough restrictions in place to ensure this could not happen by accident very easily. ETH is returned to owner wallet."
      },
      "name()": {
        "details": "Returns the name of the token."
      },
      "owner()": {
        "details": "Returns the address of the current owner."
      },
      "pause()": {
        "details": "Called by a pauser to pause, triggers stopped state."
      },
      "paused()": {
        "details": "Returns true if the contract is paused, and false otherwise."
      },
      "revokeGrant(address,uint32)": {
        "details": "If the account has a revocable grant, this forces the grant to end based on computing the amount vested up to the given date. All tokens that would no longer vest are returned to the account of the original grantor.",
        "params": {
          "grantHolder": "= Address to which tokens will be granted.",
          "onDay": "= The date upon which the vesting schedule will be effectively terminated,  in days since the UNIX epoch (start of day)."
        }
      },
      "safeGrantUniformVestingTokens(address,uint256,uint256,uint32)": {
        "details": "This variant only grants tokens if the beneficiary account has previously self-registered."
      },
      "safeGrantVestingTokens(address,uint256,uint256,uint32,uint32,uint32,uint32,bool)": {
        "details": "This variant only grants tokens if the beneficiary account has previously self-registered."
      },
      "setGrantorVestingSchedule(address,uint32,uint32,uint32,bool)": {
        "details": "Lets owner permanently establish a vesting schedule for a restricted grantor to use when creating uniform token grants. Grantee accounts forever refer to the grantor's account to look up vesting, so this method can only be used once per grantor.",
        "params": {
          "cliffDuration": "= Duration of the cliff, with respect to the grant start day, in days.",
          "duration": "= Duration of the vesting schedule, with respect to the grant start day, in days.",
          "grantor": "= Address which will receive the uniform grantable vesting schedule.",
          "interval": "= Number of days between vesting increases.",
          "isRevocable": "= True if the grant can be revoked (i.e. was a gift) or false if it cannot  be revoked (i.e. tokens were purchased)."
        }
      },
      "setRestrictions(address,uint32,uint32,uint32)": {
        "details": "Lets owner set or change existing specific restrictions. Restrictions must be established before the grantor will be allowed to issue grants.     * All date values are expressed as number of days since the UNIX epoch. Note that the inputs are themselves not very thoroughly restricted. However, this method can be called more than once if incorrect values need to be changed, or to extend a grantor's expiration date.",
        "params": {
          "expirationDay": "= The last day this grantor may make grants.",
          "grantor": "= Address which will receive the uniform grantable vesting schedule.",
          "maxStartDay": "= The maximum value for startDay allowed in grant creation.",
          "minStartDay": "= The smallest value for startDay allowed in grant creation."
        }
      },
      "symbol()": {
        "details": "Returns the symbol of the token, usually a shorter version of the name."
      },
      "today()": {
        "details": "returns the day number of the current day, in days since the UNIX epoch."
      },
      "totalSupply()": {
        "details": "See {IERC20-totalSupply}."
      },
      "transfer(address,uint256)": {
        "details": "Methods transfer() and approve() require an additional available funds check to prevent spending held but non-vested tokens. Note that transferFrom() does NOT have this additional check because approved funds come from an already set-aside allowance, not from the wallet."
      },
      "transferOwnership(address)": {
        "details": "Allows the current owner to transfer control of the contract to a newOwner.",
        "params": {
          "newOwner": "The address to transfer ownership to."
        }
      },
      "unpause()": {
        "details": "Called by a pauser to unpause, returns to normal state."
      },
      "vestingAsOf(uint32)": {
        "details": "returns all information about the grant's vesting as of the given day for the current account, to be called by the account holder.",
        "params": {
          "onDayOrToday": "= The day to check for, in days since the UNIX epoch. Can pass  the special value 0 to indicate today."
        },
        "return": "= A tuple with the following values:  amountVested = the amount out of vestingAmount that is vested  amountNotVested = the amount that is vested (equal to vestingAmount - vestedAmount)  amountOfGrant = the amount of tokens subject to vesting.  vestStartDay = starting day of the grant (in days since the UNIX epoch).  cliffDuration = duration of the cliff.  vestDuration = grant duration in days.  vestIntervalDays = number of days between vesting periods.  isActive = true if the vesting schedule is currently active.  wasRevoked = true if the vesting schedule was revoked."
      },
      "vestingForAccountAsOf(address,uint32)": {
        "details": "returns all information about the grant's vesting as of the given day for the given account. Only callable by the account holder or a grantor, so this is mainly intended for administrative use.",
        "params": {
          "grantHolder": "= The address to do this for.",
          "onDayOrToday": "= The day to check for, in days since the UNIX epoch. Can pass  the special value 0 to indicate today."
        },
        "return": "= A tuple with the following values:  amountVested = the amount out of vestingAmount that is vested  amountNotVested = the amount that is vested (equal to vestingAmount - vestedAmount)  amountOfGrant = the amount of tokens subject to vesting.  vestStartDay = starting day of the grant (in days since the UNIX epoch).  vestDuration = grant duration in days.  cliffDuration = duration of the cliff.  vestIntervalDays = number of days between vesting periods.  isActive = true if the vesting schedule is currently active.  wasRevoked = true if the vesting schedule was revoked."
      }
    }
  },
  "userdoc": {
    "methods": {
      "iAm(string)": {
        "notice": "Associate short name with the account"
      },
      "registerAccount()": {
        "notice": "This registers the calling wallet address as a known address. Operations that transfer responsibility may require the target account to be a registered account, to protect the system from getting into a state where administration or a large amount of funds can become forever inaccessible."
      },
      "renounceOwnership()": {
        "notice": "Ensure there is no way for the contract to end up with no owner. That would inadvertently result in token grant administration becoming impossible. We override this to always disallow it."
      },
      "whereAmI()": {
        "notice": "Function to confirm the address of the current account"
      },
      "whoAmI()": {
        "notice": "Confirm the shortName of the current account"
      }
    }
  }
}