{
  "contractName": "PaypolitanToken",
  "abi": [
    {
      "constant": true,
      "inputs": [],
      "name": "name",
      "outputs": [
        {
          "internalType": "string",
          "name": "",
          "type": "string"
        }
      ],
      "payable": false,
      "stateMutability": "view",
      "type": "function"
    },
    {
      "constant": false,
      "inputs": [
        {
          "internalType": "address",
          "name": "spender",
          "type": "address"
        },
        {
          "internalType": "uint256",
          "name": "value",
          "type": "uint256"
        }
      ],
      "name": "approve",
      "outputs": [
        {
          "internalType": "bool",
          "name": "ok",
          "type": "bool"
        }
      ],
      "payable": false,
      "stateMutability": "nonpayable",
      "type": "function"
    },
    {
      "constant": true,
      "inputs": [],
      "name": "totalSupply",
      "outputs": [
        {
          "internalType": "uint256",
          "name": "",
          "type": "uint256"
        }
      ],
      "payable": false,
      "stateMutability": "view",
      "type": "function"
    },
    {
      "constant": true,
      "inputs": [
        {
          "internalType": "address",
          "name": "account",
          "type": "address"
        }
      ],
      "name": "isGrantor",
      "outputs": [
        {
          "internalType": "bool",
          "name": "",
          "type": "bool"
        }
      ],
      "payable": false,
      "stateMutability": "view",
      "type": "function"
    },
    {
      "constant": false,
      "inputs": [
        {
          "internalType": "address",
          "name": "grantHolder",
          "type": "address"
        },
        {
          "internalType": "uint32",
          "name": "onDay",
          "type": "uint32"
        }
      ],
      "name": "revokeGrant",
      "outputs": [
        {
          "internalType": "bool",
          "name": "ok",
          "type": "bool"
        }
      ],
      "payable": false,
      "stateMutability": "nonpayable",
      "type": "function"
    },
    {
      "constant": false,
      "inputs": [
        {
          "internalType": "address",
          "name": "from",
          "type": "address"
        },
        {
          "internalType": "address",
          "name": "to",
          "type": "address"
        },
        {
          "internalType": "uint256",
          "name": "value",
          "type": "uint256"
        }
      ],
      "name": "transferFrom",
      "outputs": [
        {
          "internalType": "bool",
          "name": "",
          "type": "bool"
        }
      ],
      "payable": false,
      "stateMutability": "nonpayable",
      "type": "function"
    },
    {
      "constant": true,
      "inputs": [
        {
          "internalType": "uint32",
          "name": "onDayOrToday",
          "type": "uint32"
        }
      ],
      "name": "vestingAsOf",
      "outputs": [
        {
          "internalType": "uint256",
          "name": "amountVested",
          "type": "uint256"
        },
        {
          "internalType": "uint256",
          "name": "amountNotVested",
          "type": "uint256"
        },
        {
          "internalType": "uint256",
          "name": "amountOfGrant",
          "type": "uint256"
        },
        {
          "internalType": "uint32",
          "name": "vestStartDay",
          "type": "uint32"
        },
        {
          "internalType": "uint32",
          "name": "vestDuration",
          "type": "uint32"
        },
        {
          "internalType": "uint32",
          "name": "cliffDuration",
          "type": "uint32"
        },
        {
          "internalType": "uint32",
          "name": "vestIntervalDays",
          "type": "uint32"
        },
        {
          "internalType": "bool",
          "name": "isActive",
          "type": "bool"
        },
        {
          "internalType": "bool",
          "name": "wasRevoked",
          "type": "bool"
        }
      ],
      "payable": false,
      "stateMutability": "view",
      "type": "function"
    },
    {
      "constant": true,
      "inputs": [],
      "name": "decimals",
      "outputs": [
        {
          "internalType": "uint8",
          "name": "",
          "type": "uint8"
        }
      ],
      "payable": false,
      "stateMutability": "view",
      "type": "function"
    },
    {
      "constant": true,
      "inputs": [],
      "name": "whereAmI",
      "outputs": [
        {
          "internalType": "address",
          "name": "yourAddress",
          "type": "address"
        }
      ],
      "payable": false,
      "stateMutability": "view",
      "type": "function"
    },
    {
      "constant": false,
      "inputs": [
        {
          "internalType": "address",
          "name": "account",
          "type": "address"
        }
      ],
      "name": "removeGrantor",
      "outputs": [],
      "payable": false,
      "stateMutability": "nonpayable",
      "type": "function"
    },
    {
      "constant": false,
      "inputs": [
        {
          "internalType": "address",
          "name": "spender",
          "type": "address"
        },
        {
          "internalType": "uint256",
          "name": "addedValue",
          "type": "uint256"
        }
      ],
      "name": "increaseAllowance",
      "outputs": [
        {
          "internalType": "bool",
          "name": "",
          "type": "bool"
        }
      ],
      "payable": false,
      "stateMutability": "nonpayable",
      "type": "function"
    },
    {
      "constant": false,
      "inputs": [
        {
          "internalType": "address",
          "name": "beneficiary",
          "type": "address"
        },
        {
          "internalType": "uint256",
          "name": "totalAmount",
          "type": "uint256"
        },
        {
          "internalType": "uint256",
          "name": "vestingAmount",
          "type": "uint256"
        },
        {
          "internalType": "uint32",
          "name": "startDay",
          "type": "uint32"
        }
      ],
      "name": "safeGrantUniformVestingTokens",
      "outputs": [
        {
          "internalType": "bool",
          "name": "ok",
          "type": "bool"
        }
      ],
      "payable": false,
      "stateMutability": "nonpayable",
      "type": "function"
    },
    {
      "constant": false,
      "inputs": [],
      "name": "unpause",
      "outputs": [],
      "payable": false,
      "stateMutability": "nonpayable",
      "type": "function"
    },
    {
      "constant": false,
      "inputs": [
        {
          "internalType": "address",
          "name": "beneficiary",
          "type": "address"
        },
        {
          "internalType": "uint256",
          "name": "totalAmount",
          "type": "uint256"
        },
        {
          "internalType": "uint256",
          "name": "vestingAmount",
          "type": "uint256"
        },
        {
          "internalType": "uint32",
          "name": "startDay",
          "type": "uint32"
        },
        {
          "internalType": "uint32",
          "name": "duration",
          "type": "uint32"
        },
        {
          "internalType": "uint32",
          "name": "cliffDuration",
          "type": "uint32"
        },
        {
          "internalType": "uint32",
          "name": "interval",
          "type": "uint32"
        },
        {
          "internalType": "bool",
          "name": "isRevocable",
          "type": "bool"
        }
      ],
      "name": "safeGrantVestingTokens",
      "outputs": [
        {
          "internalType": "bool",
          "name": "ok",
          "type": "bool"
        }
      ],
      "payable": false,
      "stateMutability": "nonpayable",
      "type": "function"
    },
    {
      "constant": false,
      "inputs": [
        {
          "internalType": "address",
          "name": "to",
          "type": "address"
        },
        {
          "internalType": "uint256",
          "name": "value",
          "type": "uint256"
        }
      ],
      "name": "safeTransfer",
      "outputs": [
        {
          "internalType": "bool",
          "name": "ok",
          "type": "bool"
        }
      ],
      "payable": false,
      "stateMutability": "nonpayable",
      "type": "function"
    },
    {
      "constant": false,
      "inputs": [
        {
          "internalType": "address",
          "name": "from",
          "type": "address"
        },
        {
          "internalType": "address",
          "name": "to",
          "type": "address"
        },
        {
          "internalType": "uint256",
          "name": "value",
          "type": "uint256"
        }
      ],
      "name": "safeTransferFrom",
      "outputs": [
        {
          "internalType": "bool",
          "name": "ok",
          "type": "bool"
        }
      ],
      "payable": false,
      "stateMutability": "nonpayable",
      "type": "function"
    },
    {
      "constant": false,
      "inputs": [
        {
          "internalType": "address",
          "name": "account",
          "type": "address"
        },
        {
          "internalType": "bool",
          "name": "isUniformGrantor",
          "type": "bool"
        }
      ],
      "name": "addGrantor",
      "outputs": [],
      "payable": false,
      "stateMutability": "nonpayable",
      "type": "function"
    },
    {
      "constant": true,
      "inputs": [
        {
          "internalType": "address",
          "name": "account",
          "type": "address"
        }
      ],
      "name": "isPauser",
      "outputs": [
        {
          "internalType": "bool",
          "name": "",
          "type": "bool"
        }
      ],
      "payable": false,
      "stateMutability": "view",
      "type": "function"
    },
    {
      "constant": true,
      "inputs": [],
      "name": "paused",
      "outputs": [
        {
          "internalType": "bool",
          "name": "",
          "type": "bool"
        }
      ],
      "payable": false,
      "stateMutability": "view",
      "type": "function"
    },
    {
      "constant": false,
      "inputs": [
        {
          "internalType": "address",
          "name": "grantor",
          "type": "address"
        },
        {
          "internalType": "uint32",
          "name": "duration",
          "type": "uint32"
        },
        {
          "internalType": "uint32",
          "name": "cliffDuration",
          "type": "uint32"
        },
        {
          "internalType": "uint32",
          "name": "interval",
          "type": "uint32"
        },
        {
          "internalType": "bool",
          "name": "isRevocable",
          "type": "bool"
        }
      ],
      "name": "setGrantorVestingSchedule",
      "outputs": [
        {
          "internalType": "bool",
          "name": "ok",
          "type": "bool"
        }
      ],
      "payable": false,
      "stateMutability": "nonpayable",
      "type": "function"
    },
    {
      "constant": true,
      "inputs": [
        {
          "internalType": "address",
          "name": "account",
          "type": "address"
        }
      ],
      "name": "isUniformGrantor",
      "outputs": [
        {
          "internalType": "bool",
          "name": "",
          "type": "bool"
        }
      ],
      "payable": false,
      "stateMutability": "view",
      "type": "function"
    },
    {
      "constant": false,
      "inputs": [],
      "name": "renouncePauser",
      "outputs": [],
      "payable": false,
      "stateMutability": "nonpayable",
      "type": "function"
    },
    {
      "constant": true,
      "inputs": [
        {
          "internalType": "address",
          "name": "account",
          "type": "address"
        }
      ],
      "name": "balanceOf",
      "outputs": [
        {
          "internalType": "uint256",
          "name": "",
          "type": "uint256"
        }
      ],
      "payable": false,
      "stateMutability": "view",
      "type": "function"
    },
    {
      "constant": false,
      "inputs": [],
      "name": "renounceOwnership",
      "outputs": [],
      "payable": false,
      "stateMutability": "nonpayable",
      "type": "function"
    },
    {
      "constant": false,
      "inputs": [
        {
          "internalType": "address",
          "name": "account",
          "type": "address"
        },
        {
          "internalType": "uint256",
          "name": "amount",
          "type": "uint256"
        }
      ],
      "name": "burnFrom",
      "outputs": [],
      "payable": false,
      "stateMutability": "nonpayable",
      "type": "function"
    },
    {
      "constant": false,
      "inputs": [
        {
          "internalType": "address",
          "name": "beneficiary",
          "type": "address"
        },
        {
          "internalType": "uint256",
          "name": "totalAmount",
          "type": "uint256"
        },
        {
          "internalType": "uint256",
          "name": "vestingAmount",
          "type": "uint256"
        },
        {
          "internalType": "uint32",
          "name": "startDay",
          "type": "uint32"
        },
        {
          "internalType": "uint32",
          "name": "duration",
          "type": "uint32"
        },
        {
          "internalType": "uint32",
          "name": "cliffDuration",
          "type": "uint32"
        },
        {
          "internalType": "uint32",
          "name": "interval",
          "type": "uint32"
        },
        {
          "internalType": "bool",
          "name": "isRevocable",
          "type": "bool"
        }
      ],
      "name": "grantVestingTokens",
      "outputs": [
        {
          "internalType": "bool",
          "name": "ok",
          "type": "bool"
        }
      ],
      "payable": false,
      "stateMutability": "nonpayable",
      "type": "function"
    },
    {
      "constant": false,
      "inputs": [
        {
          "internalType": "address",
          "name": "account",
          "type": "address"
        }
      ],
      "name": "addPauser",
      "outputs": [],
      "payable": false,
      "stateMutability": "nonpayable",
      "type": "function"
    },
    {
      "constant": false,
      "inputs": [
        {
          "internalType": "string",
          "name": "shortName",
          "type": "string"
        }
      ],
      "name": "iAm",
      "outputs": [],
      "payable": false,
      "stateMutability": "nonpayable",
      "type": "function"
    },
    {
      "constant": false,
      "inputs": [],
      "name": "pause",
      "outputs": [],
      "payable": false,
      "stateMutability": "nonpayable",
      "type": "function"
    },
    {
      "constant": true,
      "inputs": [],
      "name": "owner",
      "outputs": [
        {
          "internalType": "address",
          "name": "",
          "type": "address"
        }
      ],
      "payable": false,
      "stateMutability": "view",
      "type": "function"
    },
    {
      "constant": true,
      "inputs": [],
      "name": "isOwner",
      "outputs": [
        {
          "internalType": "bool",
          "name": "",
          "type": "bool"
        }
      ],
      "payable": false,
      "stateMutability": "view",
      "type": "function"
    },
    {
      "constant": true,
      "inputs": [],
      "name": "symbol",
      "outputs": [
        {
          "internalType": "string",
          "name": "",
          "type": "string"
        }
      ],
      "payable": false,
      "stateMutability": "view",
      "type": "function"
    },
    {
      "constant": false,
      "inputs": [
        {
          "internalType": "address",
          "name": "grantor",
          "type": "address"
        },
        {
          "internalType": "uint32",
          "name": "minStartDay",
          "type": "uint32"
        },
        {
          "internalType": "uint32",
          "name": "maxStartDay",
          "type": "uint32"
        },
        {
          "internalType": "uint32",
          "name": "expirationDay",
          "type": "uint32"
        }
      ],
      "name": "setRestrictions",
      "outputs": [
        {
          "internalType": "bool",
          "name": "ok",
          "type": "bool"
        }
      ],
      "payable": false,
      "stateMutability": "nonpayable",
      "type": "function"
    },
    {
      "constant": false,
      "inputs": [
        {
          "internalType": "address",
          "name": "spender",
          "type": "address"
        },
        {
          "internalType": "uint256",
          "name": "subtractedValue",
          "type": "uint256"
        }
      ],
      "name": "decreaseAllowance",
      "outputs": [
        {
          "internalType": "bool",
          "name": "",
          "type": "bool"
        }
      ],
      "payable": false,
      "stateMutability": "nonpayable",
      "type": "function"
    },
    {
      "constant": false,
      "inputs": [
        {
          "internalType": "address",
          "name": "to",
          "type": "address"
        },
        {
          "internalType": "uint256",
          "name": "value",
          "type": "uint256"
        }
      ],
      "name": "transfer",
      "outputs": [
        {
          "internalType": "bool",
          "name": "ok",
          "type": "bool"
        }
      ],
      "payable": false,
      "stateMutability": "nonpayable",
      "type": "function"
    },
    {
      "constant": true,
      "inputs": [
        {
          "internalType": "address",
          "name": "grantHolder",
          "type": "address"
        }
      ],
      "name": "getIntrinsicVestingSchedule",
      "outputs": [
        {
          "internalType": "uint32",
          "name": "vestDuration",
          "type": "uint32"
        },
        {
          "internalType": "uint32",
          "name": "cliffDuration",
          "type": "uint32"
        },
        {
          "internalType": "uint32",
          "name": "vestIntervalDays",
          "type": "uint32"
        }
      ],
      "payable": false,
      "stateMutability": "view",
      "type": "function"
    },
    {
      "constant": true,
      "inputs": [],
      "name": "today",
      "outputs": [
        {
          "internalType": "uint32",
          "name": "dayNumber",
          "type": "uint32"
        }
      ],
      "payable": false,
      "stateMutability": "view",
      "type": "function"
    },
    {
      "constant": true,
      "inputs": [
        {
          "internalType": "address",
          "name": "account",
          "type": "address"
        }
      ],
      "name": "isRegistered",
      "outputs": [
        {
          "internalType": "bool",
          "name": "ok",
          "type": "bool"
        }
      ],
      "payable": false,
      "stateMutability": "view",
      "type": "function"
    },
    {
      "constant": true,
      "inputs": [
        {
          "internalType": "address",
          "name": "grantHolder",
          "type": "address"
        },
        {
          "internalType": "uint32",
          "name": "onDayOrToday",
          "type": "uint32"
        }
      ],
      "name": "vestingForAccountAsOf",
      "outputs": [
        {
          "internalType": "uint256",
          "name": "amountVested",
          "type": "uint256"
        },
        {
          "internalType": "uint256",
          "name": "amountNotVested",
          "type": "uint256"
        },
        {
          "internalType": "uint256",
          "name": "amountOfGrant",
          "type": "uint256"
        },
        {
          "internalType": "uint32",
          "name": "vestStartDay",
          "type": "uint32"
        },
        {
          "internalType": "uint32",
          "name": "vestDuration",
          "type": "uint32"
        },
        {
          "internalType": "uint32",
          "name": "cliffDuration",
          "type": "uint32"
        },
        {
          "internalType": "uint32",
          "name": "vestIntervalDays",
          "type": "uint32"
        },
        {
          "internalType": "bool",
          "name": "isActive",
          "type": "bool"
        },
        {
          "internalType": "bool",
          "name": "wasRevoked",
          "type": "bool"
        }
      ],
      "payable": false,
      "stateMutability": "view",
      "type": "function"
    },
    {
      "constant": false,
      "inputs": [],
      "name": "registerAccount",
      "outputs": [
        {
          "internalType": "bool",
          "name": "ok",
          "type": "bool"
        }
      ],
      "payable": false,
      "stateMutability": "nonpayable",
      "type": "function"
    },
    {
      "constant": true,
      "inputs": [],
      "name": "whoAmI",
      "outputs": [
        {
          "internalType": "string",
          "name": "yourName",
          "type": "string"
        }
      ],
      "payable": false,
      "stateMutability": "view",
      "type": "function"
    },
    {
      "constant": true,
      "inputs": [
        {
          "internalType": "address",
          "name": "owner",
          "type": "address"
        },
        {
          "internalType": "address",
          "name": "spender",
          "type": "address"
        }
      ],
      "name": "allowance",
      "outputs": [
        {
          "internalType": "uint256",
          "name": "",
          "type": "uint256"
        }
      ],
      "payable": false,
      "stateMutability": "view",
      "type": "function"
    },
    {
      "constant": false,
      "inputs": [
        {
          "internalType": "address",
          "name": "newOwner",
          "type": "address"
        }
      ],
      "name": "transferOwnership",
      "outputs": [],
      "payable": false,
      "stateMutability": "nonpayable",
      "type": "function"
    },
    {
      "constant": false,
      "inputs": [
        {
          "internalType": "address",
          "name": "spender",
          "type": "address"
        },
        {
          "internalType": "uint256",
          "name": "value",
          "type": "uint256"
        }
      ],
      "name": "safeApprove",
      "outputs": [
        {
          "internalType": "bool",
          "name": "ok",
          "type": "bool"
        }
      ],
      "payable": false,
      "stateMutability": "nonpayable",
      "type": "function"
    },
    {
      "constant": false,
      "inputs": [
        {
          "internalType": "address",
          "name": "beneficiary",
          "type": "address"
        },
        {
          "internalType": "uint256",
          "name": "totalAmount",
          "type": "uint256"
        },
        {
          "internalType": "uint256",
          "name": "vestingAmount",
          "type": "uint256"
        },
        {
          "internalType": "uint32",
          "name": "startDay",
          "type": "uint32"
        }
      ],
      "name": "grantUniformVestingTokens",
      "outputs": [
        {
          "internalType": "bool",
          "name": "ok",
          "type": "bool"
        }
      ],
      "payable": false,
      "stateMutability": "nonpayable",
      "type": "function"
    },
    {
      "constant": true,
      "inputs": [],
      "name": "VERSION",
      "outputs": [
        {
          "internalType": "uint32",
          "name": "",
          "type": "uint32"
        }
      ],
      "payable": false,
      "stateMutability": "view",
      "type": "function"
    },
    {
      "inputs": [],
      "payable": false,
      "stateMutability": "nonpayable",
      "type": "constructor"
    },
    {
      "payable": true,
      "stateMutability": "payable",
      "type": "fallback"
    },
    {
      "anonymous": false,
      "inputs": [
        {
          "indexed": true,
          "internalType": "address",
          "name": "from",
          "type": "address"
        },
        {
          "indexed": false,
          "internalType": "uint256",
          "name": "value",
          "type": "uint256"
        }
      ],
      "name": "DepositReceived",
      "type": "event"
    },
    {
      "anonymous": false,
      "inputs": [
        {
          "indexed": true,
          "internalType": "address",
          "name": "grantor",
          "type": "address"
        },
        {
          "indexed": false,
          "internalType": "uint32",
          "name": "minStartDay",
          "type": "uint32"
        },
        {
          "indexed": false,
          "internalType": "uint32",
          "name": "maxStartDay",
          "type": "uint32"
        },
        {
          "indexed": false,
          "internalType": "uint32",
          "name": "expirationDay",
          "type": "uint32"
        }
      ],
      "name": "GrantorRestrictionsSet",
      "type": "event"
    },
    {
      "anonymous": false,
      "inputs": [
        {
          "indexed": true,
          "internalType": "address",
          "name": "vestingLocation",
          "type": "address"
        },
        {
          "indexed": false,
          "internalType": "uint32",
          "name": "cliffDuration",
          "type": "uint32"
        },
        {
          "indexed": true,
          "internalType": "uint32",
          "name": "duration",
          "type": "uint32"
        },
        {
          "indexed": false,
          "internalType": "uint32",
          "name": "interval",
          "type": "uint32"
        },
        {
          "indexed": true,
          "internalType": "bool",
          "name": "isRevocable",
          "type": "bool"
        }
      ],
      "name": "VestingScheduleCreated",
      "type": "event"
    },
    {
      "anonymous": false,
      "inputs": [
        {
          "indexed": true,
          "internalType": "address",
          "name": "beneficiary",
          "type": "address"
        },
        {
          "indexed": true,
          "internalType": "uint256",
          "name": "vestingAmount",
          "type": "uint256"
        },
        {
          "indexed": false,
          "internalType": "uint32",
          "name": "startDay",
          "type": "uint32"
        },
        {
          "indexed": false,
          "internalType": "address",
          "name": "vestingLocation",
          "type": "address"
        },
        {
          "indexed": true,
          "internalType": "address",
          "name": "grantor",
          "type": "address"
        }
      ],
      "name": "VestingTokensGranted",
      "type": "event"
    },
    {
      "anonymous": false,
      "inputs": [
        {
          "indexed": true,
          "internalType": "address",
          "name": "grantHolder",
          "type": "address"
        },
        {
          "indexed": true,
          "internalType": "uint32",
          "name": "onDay",
          "type": "uint32"
        }
      ],
      "name": "GrantRevoked",
      "type": "event"
    },
    {
      "anonymous": false,
      "inputs": [
        {
          "indexed": true,
          "internalType": "address",
          "name": "account",
          "type": "address"
        }
      ],
      "name": "GrantorAdded",
      "type": "event"
    },
    {
      "anonymous": false,
      "inputs": [
        {
          "indexed": true,
          "internalType": "address",
          "name": "account",
          "type": "address"
        }
      ],
      "name": "GrantorRemoved",
      "type": "event"
    },
    {
      "anonymous": false,
      "inputs": [
        {
          "indexed": true,
          "internalType": "address",
          "name": "account",
          "type": "address"
        }
      ],
      "name": "AccountRegistered",
      "type": "event"
    },
    {
      "anonymous": false,
      "inputs": [
        {
          "indexed": true,
          "internalType": "address",
          "name": "previousOwner",
          "type": "address"
        },
        {
          "indexed": true,
          "internalType": "address",
          "name": "newOwner",
          "type": "address"
        }
      ],
      "name": "OwnershipTransferred",
      "type": "event"
    },
    {
      "anonymous": false,
      "inputs": [
        {
          "indexed": false,
          "internalType": "address",
          "name": "account",
          "type": "address"
        }
      ],
      "name": "Paused",
      "type": "event"
    },
    {
      "anonymous": false,
      "inputs": [
        {
          "indexed": false,
          "internalType": "address",
          "name": "account",
          "type": "address"
        }
      ],
      "name": "Unpaused",
      "type": "event"
    },
    {
      "anonymous": false,
      "inputs": [
        {
          "indexed": true,
          "internalType": "address",
          "name": "account",
          "type": "address"
        }
      ],
      "name": "PauserAdded",
      "type": "event"
    },
    {
      "anonymous": false,
      "inputs": [
        {
          "indexed": true,
          "internalType": "address",
          "name": "account",
          "type": "address"
        }
      ],
      "name": "PauserRemoved",
      "type": "event"
    },
    {
      "anonymous": false,
      "inputs": [
        {
          "indexed": true,
          "internalType": "address",
          "name": "from",
          "type": "address"
        },
        {
          "indexed": true,
          "internalType": "address",
          "name": "to",
          "type": "address"
        },
        {
          "indexed": false,
          "internalType": "uint256",
          "name": "value",
          "type": "uint256"
        }
      ],
      "name": "Transfer",
      "type": "event"
    },
    {
      "anonymous": false,
      "inputs": [
        {
          "indexed": true,
          "internalType": "address",
          "name": "owner",
          "type": "address"
        },
        {
          "indexed": true,
          "internalType": "address",
          "name": "spender",
          "type": "address"
        },
        {
          "indexed": false,
          "internalType": "uint256",
          "name": "value",
          "type": "uint256"
        }
      ],
      "name": "Approval",
      "type": "event"
    },
    {
      "constant": false,
      "inputs": [
        {
          "internalType": "uint256",
          "name": "value",
          "type": "uint256"
        }
      ],
      "name": "burn",
      "outputs": [],
      "payable": false,
      "stateMutability": "nonpayable",
      "type": "function"
    },
    {
      "constant": false,
      "inputs": [],
      "name": "kill",
      "outputs": [
        {
          "internalType": "bool",
          "name": "itsDeadJim",
          "type": "bool"
        }
      ],
      "payable": false,
      "stateMutability": "nonpayable",
      "type": "function"
    }
  ],
  "bytecode": "0x60806040523480156200001157600080fd5b506040518060400160405280601e81526020017f706179706f6c6974616e2e696f20706179706f6c6974616e20746f6b656e00008152506040518060400160405280600381526020017f50504100000000000000000000000000000000000000000000000000000000008152506012620000a0620000946200022160201b60201c565b6200022960201b60201c565b6000600560006101000a81548160ff0219169083151502179055508260069080519060200190620000d39291906200083b565b508160079080519060200190620000ec9291906200083b565b5080600860006101000a81548160ff021916908360ff1602179055505050506200011b6200022160201b60201c565b600860016101000a81548173ffffffffffffffffffffffffffffffffffffffff021916908373ffffffffffffffffffffffffffffffffffffffff160217905550600860019054906101000a900473ffffffffffffffffffffffffffffffffffffffff1673ffffffffffffffffffffffffffffffffffffffff16600073ffffffffffffffffffffffffffffffffffffffff167f8be0079c531659141344cd1fd0a4f28419497f9722a3daafe3b4186f6b6457e060405160405180910390a3620001e86200028a60201b60201c565b50620001fc3360006200032e60201b60201c565b6200021b33601260ff16600a0a6338719d90026200042260201b60201c565b620008ea565b600033905090565b62000244816004620005ee60201b620061111790919060201c565b8073ffffffffffffffffffffffffffffffffffffffff167f6719d08c1888103bea251a4ed56406bd0c3e69723c8a1686e017e7bbe159b6f860405160405180910390a250565b60006001600960003373ffffffffffffffffffffffffffffffffffffffff1673ffffffffffffffffffffffffffffffffffffffff16815260200190815260200160002060006101000a81548160ff0219169083151502179055503373ffffffffffffffffffffffffffffffffffffffff167fcd822dc9688e20acea68724a2fbcfe4f3e526d20ecaa37b18fe3047ab377d6a560405160405180910390a26001905090565b600073ffffffffffffffffffffffffffffffffffffffff168273ffffffffffffffffffffffffffffffffffffffff1614156200036957600080fd5b6200038482600a620005ee60201b620061111790919060201c565b80600b60008473ffffffffffffffffffffffffffffffffffffffff1673ffffffffffffffffffffffffffffffffffffffff16815260200190815260200160002060006101000a81548160ff0219169083151502179055508173ffffffffffffffffffffffffffffffffffffffff167f614c7c37719098320f845a142223983b9adcc4c3f2663971d5b0eb4c661a24e760405160405180910390a25050565b600073ffffffffffffffffffffffffffffffffffffffff168273ffffffffffffffffffffffffffffffffffffffff161415620004c6576040517f08c379a000000000000000000000000000000000000000000000000000000000815260040180806020018281038252601f8152602001807f45524332303a206d696e7420746f20746865207a65726f20616464726573730081525060200191505060405180910390fd5b620004e281600354620006d260201b620060891790919060201c565b6003819055506200054181600160008573ffffffffffffffffffffffffffffffffffffffff1673ffffffffffffffffffffffffffffffffffffffff16815260200190815260200160002054620006d260201b620060891790919060201c565b600160008473ffffffffffffffffffffffffffffffffffffffff1673ffffffffffffffffffffffffffffffffffffffff168152602001908152602001600020819055508173ffffffffffffffffffffffffffffffffffffffff16600073ffffffffffffffffffffffffffffffffffffffff167fddf252ad1be2c89b69c2b068fc378daa952ba7f163c4a11628f55a4df523b3ef836040518082815260200191505060405180910390a35050565b6200060082826200075b60201b60201c565b1562000674576040517f08c379a000000000000000000000000000000000000000000000000000000000815260040180806020018281038252601f8152602001807f526f6c65733a206163636f756e7420616c72656164792068617320726f6c650081525060200191505060405180910390fd5b60018260000160008373ffffffffffffffffffffffffffffffffffffffff1673ffffffffffffffffffffffffffffffffffffffff16815260200190815260200160002060006101000a81548160ff0219169083151502179055505050565b60008082840190508381101562000751576040517f08c379a000000000000000000000000000000000000000000000000000000000815260040180806020018281038252601b8152602001807f536166654d6174683a206164646974696f6e206f766572666c6f77000000000081525060200191505060405180910390fd5b8091505092915050565b60008073ffffffffffffffffffffffffffffffffffffffff168273ffffffffffffffffffffffffffffffffffffffff161415620007e4576040517f08c379a0000000000000000000000000000000000000000000000000000000008152600401808060200182810382526022815260200180620070b56022913960400191505060405180910390fd5b8260000160008373ffffffffffffffffffffffffffffffffffffffff1673ffffffffffffffffffffffffffffffffffffffff16815260200190815260200160002060009054906101000a900460ff16905092915050565b828054600181600116156101000203166002900490600052602060002090601f016020900481019282601f106200087e57805160ff1916838001178555620008af565b82800160010185558215620008af579182015b82811115620008ae57825182559160200191906001019062000891565b5b509050620008be9190620008c2565b5090565b620008e791905b80821115620008e3576000816000905550600101620008c9565b5090565b90565b6167bb80620008fa6000396000f3fe6080604052600436106102935760003560e01c806370a082311161015a578063a9059cbb116100c1578063da91254c1161007a578063da91254c14611440578063dd62ed3e146114d0578063f2fde38b14611555578063fbc6d1cb146115a6578063fd1154c214611619578063ffa1ad74146116a657610293565b8063a9059cbb14611182578063acc27b98146111f5578063b74e452b1461128c578063c3c5a547146112c3578063d56ad0ba1461132c578063d9f226e91461141157610293565b80638456cb59116101135780638456cb5914610f495780638da5cb5b14610f605780638f32d59b14610fb757806395d89b4114610fe657806399ad427b14611076578063a457c2d71461110f57610293565b806370a0823114610c8f578063715018a614610cf457806379cc679014610d0b5780637af023a914610d6657806382dc1ec414610e305780638403eeb514610e8157610293565b80633f4ba83a116101fe57806344e393cb116101b757806344e393cb14610a7557806346fbf68e14610ad25780635c975abb14610b3b5780636d589d6414610b6a5780636d71a9c614610c0f5780636ef8d66d14610c7857610293565b80633f4ba83a1461082457806341c0e1b51461083b57806341d5f6191461086a578063423f6cef1461093457806342842e0e146109a757806342966c6814610a3a57610293565b80632455a035116102505780632455a03514610586578063313ce5671461064b57806332ae38481461067c578063332cc9c6146106d357806339509351146107245780633d3b993c1461079757610293565b806306fdde03146102e3578063095ea7b31461037357806318160ddd146103e6578063190de9f7146104115780631bd2cf381461047a57806323b872dd146104f3575b3373ffffffffffffffffffffffffffffffffffffffff167f9936746a4565f9766fa768f88f56a7487c78780ac179562773d1c75c5269537e346040518082815260200191505060405180910390a2005b3480156102ef57600080fd5b506102f86116dd565b6040518080602001828103825283818151815260200191508051906020019080838360005b8381101561033857808201518184015260208101905061031d565b50505050905090810190601f1680156103655780820380516001836020036101000a031916815260200191505b509250505060405180910390f35b34801561037f57600080fd5b506103cc6004803603604081101561039657600080fd5b81019080803573ffffffffffffffffffffffffffffffffffffffff1690602001909291908035906020019092919050505061177f565b604051808215151515815260200191505060405180910390f35b3480156103f257600080fd5b506103fb6118d1565b6040518082815260200191505060405180910390f35b34801561041d57600080fd5b506104606004803603602081101561043457600080fd5b81019080803573ffffffffffffffffffffffffffffffffffffffff1690602001909291905050506118db565b604051808215151515815260200191505060405180910390f35b34801561048657600080fd5b506104d96004803603604081101561049d57600080fd5b81019080803573ffffffffffffffffffffffffffffffffffffffff169060200190929190803563ffffffff1690602001909291905050506118f8565b604051808215151515815260200191505060405180910390f35b3480156104ff57600080fd5b5061056c6004803603606081101561051657600080fd5b81019080803573ffffffffffffffffffffffffffffffffffffffff169060200190929190803573ffffffffffffffffffffffffffffffffffffffff16906020019092919080359060200190929190505050611ed8565b604051808215151515815260200191505060405180910390f35b34801561059257600080fd5b506105c5600480360360208110156105a957600080fd5b81019080803563ffffffff169060200190929190505050611f71565b604051808a81526020018981526020018881526020018763ffffffff1663ffffffff1681526020018663ffffffff1663ffffffff1681526020018563ffffffff1663ffffffff1681526020018463ffffffff1663ffffffff1681526020018315151515815260200182151515158152602001995050505050505050505060405180910390f35b34801561065757600080fd5b50610660611fa8565b604051808260ff1660ff16815260200191505060405180910390f35b34801561068857600080fd5b50610691611fbf565b604051808273ffffffffffffffffffffffffffffffffffffffff1673ffffffffffffffffffffffffffffffffffffffff16815260200191505060405180910390f35b3480156106df57600080fd5b50610722600480360360208110156106f657600080fd5b81019080803573ffffffffffffffffffffffffffffffffffffffff169060200190929190505050611fcc565b005b34801561073057600080fd5b5061077d6004803603604081101561074757600080fd5b81019080803573ffffffffffffffffffffffffffffffffffffffff16906020019092919080359060200190929190505050612052565b604051808215151515815260200191505060405180910390f35b3480156107a357600080fd5b5061080a600480360360808110156107ba57600080fd5b81019080803573ffffffffffffffffffffffffffffffffffffffff1690602001909291908035906020019092919080359060200190929190803563ffffffff1690602001909291905050506120e9565b604051808215151515815260200191505060405180910390f35b34801561083057600080fd5b50610839612424565b005b34801561084757600080fd5b50610850612592565b604051808215151515815260200191505060405180910390f35b34801561087657600080fd5b5061091a600480360361010081101561088e57600080fd5b81019080803573ffffffffffffffffffffffffffffffffffffffff1690602001909291908035906020019092919080359060200190929190803563ffffffff169060200190929190803563ffffffff169060200190929190803563ffffffff169060200190929190803563ffffffff16906020019092919080351515906020019092919050505061271b565b604051808215151515815260200191505060405180910390f35b34801561094057600080fd5b5061098d6004803603604081101561095757600080fd5b81019080803573ffffffffffffffffffffffffffffffffffffffff16906020019092919080359060200190929190505050612833565b604051808215151515815260200191505060405180910390f35b3480156109b357600080fd5b50610a20600480360360608110156109ca57600080fd5b81019080803573ffffffffffffffffffffffffffffffffffffffff169060200190929190803573ffffffffffffffffffffffffffffffffffffffff169060200190929190803590602001909291905050506128c7565b604051808215151515815260200191505060405180910390f35b348015610a4657600080fd5b50610a7360048036036020811015610a5d57600080fd5b810190808035906020019092919050505061295d565b005b348015610a8157600080fd5b50610ad060048036036040811015610a9857600080fd5b81019080803573ffffffffffffffffffffffffffffffffffffffff169060200190929190803515159060200190929190505050612aa8565b005b348015610ade57600080fd5b50610b2160048036036020811015610af557600080fd5b81019080803573ffffffffffffffffffffffffffffffffffffffff169060200190929190505050612b30565b604051808215151515815260200191505060405180910390f35b348015610b4757600080fd5b50610b50612b4d565b604051808215151515815260200191505060405180910390f35b348015610b7657600080fd5b50610bf5600480360360a0811015610b8d57600080fd5b81019080803573ffffffffffffffffffffffffffffffffffffffff169060200190929190803563ffffffff169060200190929190803563ffffffff169060200190929190803563ffffffff169060200190929190803515159060200190929190505050612b64565b604051808215151515815260200191505060405180910390f35b348015610c1b57600080fd5b50610c5e60048036036020811015610c3257600080fd5b81019080803573ffffffffffffffffffffffffffffffffffffffff169060200190929190505050612d6f565b604051808215151515815260200191505060405180910390f35b348015610c8457600080fd5b50610c8d612dd6565b005b348015610c9b57600080fd5b50610cde60048036036020811015610cb257600080fd5b81019080803573ffffffffffffffffffffffffffffffffffffffff169060200190929190505050612de8565b6040518082815260200191505060405180910390f35b348015610d0057600080fd5b50610d09612e31565b005b348015610d1757600080fd5b50610d6460048036036040811015610d2e57600080fd5b81019080803573ffffffffffffffffffffffffffffffffffffffff16906020019092919080359060200190929190505050612f21565b005b348015610d7257600080fd5b50610e166004803603610100811015610d8a57600080fd5b81019080803573ffffffffffffffffffffffffffffffffffffffff1690602001909291908035906020019092919080359060200190929190803563ffffffff169060200190929190803563ffffffff169060200190929190803563ffffffff169060200190929190803563ffffffff169060200190929190803515159060200190929190505050612f2f565b604051808215151515815260200191505060405180910390f35b348015610e3c57600080fd5b50610e7f60048036036020811015610e5357600080fd5b81019080803573ffffffffffffffffffffffffffffffffffffffff16906020019092919050505061309c565b005b348015610e8d57600080fd5b50610f4760048036036020811015610ea457600080fd5b8101908080359060200190640100000000811115610ec157600080fd5b820183602082011115610ed357600080fd5b80359060200191846001830284011164010000000083111715610ef557600080fd5b91908080601f016020809104026020016040519081016040528093929190818152602001838380828437600081840152601f19601f82011690508083019250505050505050919291929050505061310d565b005b348015610f5557600080fd5b50610f5e613163565b005b348015610f6c57600080fd5b50610f756132d2565b604051808273ffffffffffffffffffffffffffffffffffffffff1673ffffffffffffffffffffffffffffffffffffffff16815260200191505060405180910390f35b348015610fc357600080fd5b50610fcc6132fc565b604051808215151515815260200191505060405180910390f35b348015610ff257600080fd5b50610ffb61335b565b6040518080602001828103825283818151815260200191508051906020019080838360005b8381101561103b578082015181840152602081019050611020565b50505050905090810190601f1680156110685780820380516001836020036101000a031916815260200191505b509250505060405180910390f35b34801561108257600080fd5b506110f56004803603608081101561109957600080fd5b81019080803573ffffffffffffffffffffffffffffffffffffffff169060200190929190803563ffffffff169060200190929190803563ffffffff169060200190929190803563ffffffff1690602001909291905050506133fd565b604051808215151515815260200191505060405180910390f35b34801561111b57600080fd5b506111686004803603604081101561113257600080fd5b81019080803573ffffffffffffffffffffffffffffffffffffffff16906020019092919080359060200190929190505050613741565b604051808215151515815260200191505060405180910390f35b34801561118e57600080fd5b506111db600480360360408110156111a557600080fd5b81019080803573ffffffffffffffffffffffffffffffffffffffff169060200190929190803590602001909291905050506137d8565b604051808215151515815260200191505060405180910390f35b34801561120157600080fd5b506112446004803603602081101561121857600080fd5b81019080803573ffffffffffffffffffffffffffffffffffffffff16906020019092919050505061392a565b604051808463ffffffff1663ffffffff1681526020018363ffffffff1663ffffffff1681526020018263ffffffff1663ffffffff168152602001935050505060405180910390f35b34801561129857600080fd5b506112a1613ae8565b604051808263ffffffff1663ffffffff16815260200191505060405180910390f35b3480156112cf57600080fd5b50611312600480360360208110156112e657600080fd5b81019080803573ffffffffffffffffffffffffffffffffffffffff169060200190929190505050613b02565b604051808215151515815260200191505060405180910390f35b34801561133857600080fd5b5061138b6004803603604081101561134f57600080fd5b81019080803573ffffffffffffffffffffffffffffffffffffffff169060200190929190803563ffffffff169060200190929190505050613b58565b604051808a81526020018981526020018881526020018763ffffffff1663ffffffff1681526020018663ffffffff1663ffffffff1681526020018563ffffffff1663ffffffff1681526020018463ffffffff1663ffffffff1681526020018315151515815260200182151515158152602001995050505050505050505060405180910390f35b34801561141d57600080fd5b50611426613d8a565b604051808215151515815260200191505060405180910390f35b34801561144c57600080fd5b50611455613e2e565b6040518080602001828103825283818151815260200191508051906020019080838360005b8381101561149557808201518184015260208101905061147a565b50505050905090810190601f1680156114c25780820380516001836020036101000a031916815260200191505b509250505060405180910390f35b3480156114dc57600080fd5b5061153f600480360360408110156114f357600080fd5b81019080803573ffffffffffffffffffffffffffffffffffffffff169060200190929190803573ffffffffffffffffffffffffffffffffffffffff169060200190929190505050613f0c565b6040518082815260200191505060405180910390f35b34801561156157600080fd5b506115a46004803603602081101561157857600080fd5b81019080803573ffffffffffffffffffffffffffffffffffffffff169060200190929190505050613f93565b005b3480156115b257600080fd5b506115ff600480360360408110156115c957600080fd5b81019080803573ffffffffffffffffffffffffffffffffffffffff1690602001909291908035906020019092919050505061402d565b604051808215151515815260200191505060405180910390f35b34801561162557600080fd5b5061168c6004803603608081101561163c57600080fd5b81019080803573ffffffffffffffffffffffffffffffffffffffff1690602001909291908035906020019092919080359060200190929190803563ffffffff1690602001909291905050506140c1565b604051808215151515815260200191505060405180910390f35b3480156116b257600080fd5b506116bb61437f565b604051808263ffffffff1663ffffffff16815260200191505060405180910390f35b606060068054600181600116156101000203166002900480601f0160208091040260200160405190810160405280929190818152602001828054600181600116156101000203166002900480156117755780601f1061174a57610100808354040283529160200191611775565b820191906000526020600020905b81548152906001019060200180831161175857829003601f168201915b5050505050905090565b600033826117958282611790613ae8565b614384565b8161179f84612de8565b106117df576040518060400160405280601981526020017f696e73756666696369656e74207665737465642066756e647300000000000000815250611816565b6040518060400160405280601281526020017f696e73756666696369656e742066756e647300000000000000000000000000008152505b906118bc576040517f08c379a00000000000000000000000000000000000000000000000000000000081526004018080602001828103825283818151815260200191508051906020019080838360005b83811015611881578082015181840152602081019050611866565b50505050905090810190601f1680156118ae5780820380516001836020036101000a031916815260200191505b509250505060405180910390fd5b506118c7858561439c565b9250505092915050565b6000600354905090565b60006118f182600a61443390919063ffffffff16565b9050919050565b6000611903336118db565b611975576040517f08c379a000000000000000000000000000000000000000000000000000000000815260040180806020018281038252600b8152602001807f6f6e6c794772616e746f7200000000000000000000000000000000000000000081525060200191505060405180910390fd5b6000600d60008573ffffffffffffffffffffffffffffffffffffffff1673ffffffffffffffffffffffffffffffffffffffff16815260200190815260200160002090506000600c60008360020160009054906101000a900473ffffffffffffffffffffffffffffffffffffffff1673ffffffffffffffffffffffffffffffffffffffff1673ffffffffffffffffffffffffffffffffffffffff16815260200190815260200160002090506000611a296132d2565b73ffffffffffffffffffffffffffffffffffffffff163373ffffffffffffffffffffffffffffffffffffffff161480611ab157508260030160009054906101000a900473ffffffffffffffffffffffffffffffffffffffff1673ffffffffffffffffffffffffffffffffffffffff163373ffffffffffffffffffffffffffffffffffffffff16145b611b23576040517f08c379a000000000000000000000000000000000000000000000000000000000815260040180806020018281038252600b8152602001807f6e6f7420616c6c6f77656400000000000000000000000000000000000000000081525060200191505060405180910390fd5b8260000160009054906101000a900460ff16611ba7576040517f08c379a000000000000000000000000000000000000000000000000000000000815260040180806020018281038252601a8152602001807f6e6f206163746976652076657374696e67207363686564756c6500000000000081525060200191505060405180910390fd5b8160000160019054906101000a900460ff16611c2b576040517f08c379a000000000000000000000000000000000000000000000000000000000815260040180806020018281038252600b8152602001807f69727265766f6361626c6500000000000000000000000000000000000000000081525060200191505060405180910390fd5b8160000160069054906101000a900463ffffffff168360000160029054906101000a900463ffffffff160163ffffffff168563ffffffff161115611cd7576040517f08c379a00000000000000000000000000000000000000000000000000000000081526004018080602001828103825260098152602001807f6e6f20656666656374000000000000000000000000000000000000000000000081525060200191505060405180910390fd5b611cdf613ae8565b63ffffffff168563ffffffff161015611d60576040517f08c379a000000000000000000000000000000000000000000000000000000000815260040180806020018281038252601d8152602001807f63616e6e6f74207265766f6b652076657374656420686f6c64696e677300000081525060200191505060405180910390fd5b611d6a8686614511565b9050611d9b868460030160009054906101000a900473ffffffffffffffffffffffffffffffffffffffff168361474b565b611dca868460030160009054906101000a900473ffffffffffffffffffffffffffffffffffffffff1683611ed8565b506001600d60008873ffffffffffffffffffffffffffffffffffffffff1673ffffffffffffffffffffffffffffffffffffffff16815260200190815260200160002060000160016101000a81548160ff0219169083151502179055506000600d60008873ffffffffffffffffffffffffffffffffffffffff1673ffffffffffffffffffffffffffffffffffffffff16815260200190815260200160002060000160006101000a81548160ff0219169083151502179055508463ffffffff168673ffffffffffffffffffffffffffffffffffffffff167f906c0c4c98565a396c542d9102cae7a794e84af6763123e068a1b277333bf4a460405160405180910390a36001935050505092915050565b6000600560009054906101000a900460ff1615611f5d576040517f08c379a00000000000000000000000000000000000000000000000000000000081526004018080602001828103825260108152602001807f5061757361626c653a207061757365640000000000000000000000000000000081525060200191505060405180910390fd5b611f68848484614942565b90509392505050565b6000806000806000806000806000611f89338b613b58565b9850985098509850985098509850985098509193959799909294969850565b6000600860009054906101000a900460ff16905090565b6000803390508091505090565b611fd46132fc565b612046576040517f08c379a00000000000000000000000000000000000000000000000000000000081526004018080602001828103825260208152602001807f4f776e61626c653a2063616c6c6572206973206e6f7420746865206f776e657281525060200191505060405180910390fd5b61204f81614a1b565b50565b6000600560009054906101000a900460ff16156120d7576040517f08c379a00000000000000000000000000000000000000000000000000000000081526004018080602001828103825260108152602001807f5061757361626c653a207061757365640000000000000000000000000000000081525060200191505060405180910390fd5b6120e18383614aaf565b905092915050565b6000336120f581614b62565b612167576040517f08c379a00000000000000000000000000000000000000000000000000000000081526004018080602001828103825260198152602001807f6772616e746f72206163636f756e74206e6f742072656164790000000000000081525060200191505060405180910390fd5b826000600e60003373ffffffffffffffffffffffffffffffffffffffff1673ffffffffffffffffffffffffffffffffffffffff16815260200190815260200160002090508060000160009054906101000a900460ff1661222f576040517f08c379a00000000000000000000000000000000000000000000000000000000081526004018080602001828103825260168152602001807f736574207265737472696374696f6e732066697273740000000000000000000081525060200191505060405180910390fd5b8060000160019054906101000a900463ffffffff1663ffffffff168263ffffffff161015801561227e57508060000160059054906101000a900463ffffffff1663ffffffff168263ffffffff16105b6122f0576040517f08c379a00000000000000000000000000000000000000000000000000000000081526004018080602001828103825260128152602001807f737461727444617920746f6f206561726c79000000000000000000000000000081525060200191505060405180910390fd5b8060000160099054906101000a900463ffffffff1663ffffffff16612313613ae8565b63ffffffff161061238c576040517f08c379a000000000000000000000000000000000000000000000000000000000815260040180806020018281038252600f8152602001807f6772616e746f722065787069726564000000000000000000000000000000000081525060200191505060405180910390fd5b8761239681614b85565b612408576040517f08c379a00000000000000000000000000000000000000000000000000000000081526004018080602001828103825260168152602001807f6163636f756e74206e6f7420726567697374657265640000000000000000000081525060200191505060405180910390fd5b612416898989893333614c11565b945050505050949350505050565b61243461242f6150a4565b612b30565b612489576040517f08c379a00000000000000000000000000000000000000000000000000000000081526004018080602001828103825260308152602001806165876030913960400191505060405180910390fd5b600560009054906101000a900460ff1661250b576040517f08c379a00000000000000000000000000000000000000000000000000000000081526004018080602001828103825260148152602001807f5061757361626c653a206e6f742070617573656400000000000000000000000081525060200191505060405180910390fd5b6000600560006101000a81548160ff0219169083151502179055507f5db9ee0a495bf2e6ff9c91a7834c1ba4fdd244a5e8aa4e537bd38aeae4b073aa61254f6150a4565b604051808273ffffffffffffffffffffffffffffffffffffffff1673ffffffffffffffffffffffffffffffffffffffff16815260200191505060405180910390a1565b6000600560009054906101000a900460ff16612616576040517f08c379a00000000000000000000000000000000000000000000000000000000081526004018080602001828103825260148152602001807f5061757361626c653a206e6f742070617573656400000000000000000000000081525060200191505060405180910390fd5b6126266126216150a4565b612b30565b61267b576040517f08c379a00000000000000000000000000000000000000000000000000000000081526004018080602001828103825260308152602001806165876030913960400191505060405180910390fd5b61268433612b30565b6126f6576040517f08c379a000000000000000000000000000000000000000000000000000000000815260040180806020018281038252600a8152602001807f6f6e6c795061757365720000000000000000000000000000000000000000000081525060200191505060405180910390fd5b60006127006132d2565b90508073ffffffffffffffffffffffffffffffffffffffff16ff5b6000612726336118db565b612798576040517f08c379a000000000000000000000000000000000000000000000000000000000815260040180806020018281038252600b8152602001807f6f6e6c794772616e746f7200000000000000000000000000000000000000000081525060200191505060405180910390fd5b886127a281614b85565b612814576040517f08c379a00000000000000000000000000000000000000000000000000000000081526004018080602001828103825260168152602001807f6163636f756e74206e6f7420726567697374657265640000000000000000000081525060200191505060405180910390fd5b6128248a8a8a8a8a8a8a8a612f2f565b91505098975050505050505050565b60008261283f81614b85565b6128b1576040517f08c379a00000000000000000000000000000000000000000000000000000000081526004018080602001828103825260168152602001807f6163636f756e74206e6f7420726567697374657265640000000000000000000081525060200191505060405180910390fd5b6128bb84846137d8565b50600191505092915050565b6000826128d381614b85565b612945576040517f08c379a00000000000000000000000000000000000000000000000000000000081526004018080602001828103825260168152602001807f6163636f756e74206e6f7420726567697374657265640000000000000000000081525060200191505060405180910390fd5b612950858585611ed8565b5060019150509392505050565b3381612971828261296c613ae8565b614384565b8161297b84612de8565b106129bb576040518060400160405280601981526020017f696e73756666696369656e74207665737465642066756e6473000000000000008152506129f2565b6040518060400160405280601281526020017f696e73756666696369656e742066756e647300000000000000000000000000008152505b90612a98576040517f08c379a00000000000000000000000000000000000000000000000000000000081526004018080602001828103825283818151815260200191508051906020019080838360005b83811015612a5d578082015181840152602081019050612a42565b50505050905090810190601f168015612a8a5780820380516001836020036101000a031916815260200191505b509250505060405180910390fd5b50612aa333846150ac565b505050565b612ab06132fc565b612b22576040517f08c379a00000000000000000000000000000000000000000000000000000000081526004018080602001828103825260208152602001807f4f776e61626c653a2063616c6c6572206973206e6f7420746865206f776e657281525060200191505060405180910390fd5b612b2c8282615266565b5050565b6000612b4682600461443390919063ffffffff16565b9050919050565b6000600560009054906101000a900460ff16905090565b6000612b6e6132fc565b612be0576040517f08c379a00000000000000000000000000000000000000000000000000000000081526004018080602001828103825260208152602001807f4f776e61626c653a2063616c6c6572206973206e6f7420746865206f776e657281525060200191505060405180910390fd5b85612bea81614b85565b612c5c576040517f08c379a00000000000000000000000000000000000000000000000000000000081526004018080602001828103825260168152602001807f6163636f756e74206e6f7420726567697374657265640000000000000000000081525060200191505060405180910390fd5b612c6587612d6f565b612cd7576040517f08c379a00000000000000000000000000000000000000000000000000000000081526004018080602001828103825260148152602001807f756e69666f726d206772616e746f72206f6e6c7900000000000000000000000081525060200191505060405180910390fd5b612ce087615352565b15612d53576040517f08c379a00000000000000000000000000000000000000000000000000000000081526004018080602001828103825260178152602001807f7363686564756c6520616c72656164792065786973747300000000000000000081525060200191505060405180910390fd5b612d6087868887876153ab565b50600191505095945050505050565b6000612d7a826118db565b8015612dcf5750600b60008373ffffffffffffffffffffffffffffffffffffffff1673ffffffffffffffffffffffffffffffffffffffff16815260200190815260200160002060009054906101000a900460ff165b9050919050565b612de6612de16150a4565b6156d2565b565b6000600160008373ffffffffffffffffffffffffffffffffffffffff1673ffffffffffffffffffffffffffffffffffffffff168152602001908152602001600020549050919050565b612e396132fc565b612eab576040517f08c379a00000000000000000000000000000000000000000000000000000000081526004018080602001828103825260208152602001807f4f776e61626c653a2063616c6c6572206973206e6f7420746865206f776e657281525060200191505060405180910390fd5b6000612f1f576040517f08c379a00000000000000000000000000000000000000000000000000000000081526004018080602001828103825260098152602001807f666f7262696464656e000000000000000000000000000000000000000000000081525060200191505060405180910390fd5b565b612f2b828261572c565b5050565b6000612f3a336118db565b612fac576040517f08c379a000000000000000000000000000000000000000000000000000000000815260040180806020018281038252600b8152602001807f6f6e6c794772616e746f7200000000000000000000000000000000000000000081525060200191505060405180910390fd5b600d60008a73ffffffffffffffffffffffffffffffffffffffff1673ffffffffffffffffffffffffffffffffffffffff16815260200190815260200160002060000160009054906101000a900460ff161561306f576040517f08c379a00000000000000000000000000000000000000000000000000000000081526004018080602001828103825260148152602001807f6772616e7420616c72656164792065786973747300000000000000000000000081525060200191505060405180910390fd5b61307c89858786866153ab565b5061308b898989898d33614c11565b506001905098975050505050505050565b6130ac6130a76150a4565b612b30565b613101576040517f08c379a00000000000000000000000000000000000000000000000000000000081526004018080602001828103825260308152602001806165876030913960400191505060405180910390fd5b61310a816157fb565b50565b806000803373ffffffffffffffffffffffffffffffffffffffff1673ffffffffffffffffffffffffffffffffffffffff168152602001908152602001600020908051906020019061315f92919061649c565b5050565b61317361316e6150a4565b612b30565b6131c8576040517f08c379a00000000000000000000000000000000000000000000000000000000081526004018080602001828103825260308152602001806165876030913960400191505060405180910390fd5b600560009054906101000a900460ff161561324b576040517f08c379a00000000000000000000000000000000000000000000000000000000081526004018080602001828103825260108152602001807f5061757361626c653a207061757365640000000000000000000000000000000081525060200191505060405180910390fd5b6001600560006101000a81548160ff0219169083151502179055507f62e78cea01bee320cd4e420270b5ea74000d11b0c9f74754ebdbfc544b05a25861328f6150a4565b604051808273ffffffffffffffffffffffffffffffffffffffff1673ffffffffffffffffffffffffffffffffffffffff16815260200191505060405180910390a1565b6000600860019054906101000a900473ffffffffffffffffffffffffffffffffffffffff16905090565b6000600860019054906101000a900473ffffffffffffffffffffffffffffffffffffffff1673ffffffffffffffffffffffffffffffffffffffff1661333f6150a4565b73ffffffffffffffffffffffffffffffffffffffff1614905090565b606060078054600181600116156101000203166002900480601f0160208091040260200160405190810160405280929190818152602001828054600181600116156101000203166002900480156133f35780601f106133c8576101008083540402835291602001916133f3565b820191906000526020600020905b8154815290600101906020018083116133d657829003601f168201915b5050505050905090565b60006134076132fc565b613479576040517f08c379a00000000000000000000000000000000000000000000000000000000081526004018080602001828103825260208152602001807f4f776e61626c653a2063616c6c6572206973206e6f7420746865206f776e657281525060200191505060405180910390fd5b8461348381614b85565b6134f5576040517f08c379a00000000000000000000000000000000000000000000000000000000081526004018080602001828103825260168152602001807f6163636f756e74206e6f7420726567697374657265640000000000000000000081525060200191505060405180910390fd5b6134fe86612d6f565b801561351557508463ffffffff168463ffffffff16115b80156135335750613524613ae8565b63ffffffff168363ffffffff16115b6135a5576040517f08c379a000000000000000000000000000000000000000000000000000000000815260040180806020018281038252600e8152602001807f696e76616c696420706172616d7300000000000000000000000000000000000081525060200191505060405180910390fd5b60405180608001604052806001151581526020018663ffffffff1681526020018563ffffffff1681526020018463ffffffff16815250600e60008873ffffffffffffffffffffffffffffffffffffffff1673ffffffffffffffffffffffffffffffffffffffff16815260200190815260200160002060008201518160000160006101000a81548160ff02191690831515021790555060208201518160000160016101000a81548163ffffffff021916908363ffffffff16021790555060408201518160000160056101000a81548163ffffffff021916908363ffffffff16021790555060608201518160000160096101000a81548163ffffffff021916908363ffffffff1602179055509050508573ffffffffffffffffffffffffffffffffffffffff167fd204f080300249d73110cd2c2e8d720f0362e94b8e0f1b797ac249acca176551868686604051808463ffffffff1663ffffffff1681526020018363ffffffff1663ffffffff1681526020018263ffffffff1663ffffffff168152602001935050505060405180910390a26001915050949350505050565b6000600560009054906101000a900460ff16156137c6576040517f08c379a00000000000000000000000000000000000000000000000000000000081526004018080602001828103825260108152602001807f5061757361626c653a207061757365640000000000000000000000000000000081525060200191505060405180910390fd5b6137d08383615855565b905092915050565b600033826137ee82826137e9613ae8565b614384565b816137f884612de8565b10613838576040518060400160405280601981526020017f696e73756666696369656e74207665737465642066756e64730000000000000081525061386f565b6040518060400160405280601281526020017f696e73756666696369656e742066756e647300000000000000000000000000008152505b90613915576040517f08c379a00000000000000000000000000000000000000000000000000000000081526004018080602001828103825283818151815260200191508051906020019080838360005b838110156138da5780820151818401526020810190506138bf565b50505050905090810190601f1680156139075780820380516001836020036101000a031916815260200191505b509250505060405180910390fd5b506139208585615922565b9250505092915050565b600080600083613939336118db565b8061396f57508073ffffffffffffffffffffffffffffffffffffffff163373ffffffffffffffffffffffffffffffffffffffff16145b6139e1576040517f08c379a00000000000000000000000000000000000000000000000000000000081526004018080602001828103825260118152602001807f6f6e6c794772616e746f724f7253656c6600000000000000000000000000000081525060200191505060405180910390fd5b600c60008673ffffffffffffffffffffffffffffffffffffffff1673ffffffffffffffffffffffffffffffffffffffff16815260200190815260200160002060000160069054906101000a900463ffffffff16600c60008773ffffffffffffffffffffffffffffffffffffffff1673ffffffffffffffffffffffffffffffffffffffff16815260200190815260200160002060000160029054906101000a900463ffffffff16600c60008873ffffffffffffffffffffffffffffffffffffffff1673ffffffffffffffffffffffffffffffffffffffff168152602001908152602001600020600001600a9054906101000a900463ffffffff16935093509350509193909250565b60006201518063ffffffff164281613afc57fe5b04905090565b6000600960008373ffffffffffffffffffffffffffffffffffffffff1673ffffffffffffffffffffffffffffffffffffffff16815260200190815260200160002060009054906101000a900460ff169050919050565b60008060008060008060008060008a613b70336118db565b80613ba657508073ffffffffffffffffffffffffffffffffffffffff163373ffffffffffffffffffffffffffffffffffffffff16145b613c18576040517f08c379a00000000000000000000000000000000000000000000000000000000081526004018080602001828103825260118152602001807f6f6e6c794772616e746f724f7253656c6600000000000000000000000000000081525060200191505060405180910390fd5b6000600d60008e73ffffffffffffffffffffffffffffffffffffffff1673ffffffffffffffffffffffffffffffffffffffff16815260200190815260200160002090506000600c60008360020160009054906101000a900473ffffffffffffffffffffffffffffffffffffffff1673ffffffffffffffffffffffffffffffffffffffff1673ffffffffffffffffffffffffffffffffffffffff16815260200190815260200160002090506000613cce8f8f614511565b9050600083600101549050613cec82826159b990919063ffffffff16565b82828660000160029054906101000a900463ffffffff168660000160069054906101000a900463ffffffff168760000160029054906101000a900463ffffffff1688600001600a9054906101000a900463ffffffff168a60000160009054906101000a900460ff168b60000160019054906101000a900460ff169d509d509d509d509d509d509d509d509d5050505050509295985092959850929598565b60006001600960003373ffffffffffffffffffffffffffffffffffffffff1673ffffffffffffffffffffffffffffffffffffffff16815260200190815260200160002060006101000a81548160ff0219169083151502179055503373ffffffffffffffffffffffffffffffffffffffff167fcd822dc9688e20acea68724a2fbcfe4f3e526d20ecaa37b18fe3047ab377d6a560405160405180910390a26001905090565b60606000803373ffffffffffffffffffffffffffffffffffffffff1673ffffffffffffffffffffffffffffffffffffffff1681526020019081526020016000208054600181600116156101000203166002900480601f016020809104026020016040519081016040528092919081815260200182805460018160011615610100020316600290048015613f025780601f10613ed757610100808354040283529160200191613f02565b820191906000526020600020905b815481529060010190602001808311613ee557829003601f168201915b5050505050905090565b6000600260008473ffffffffffffffffffffffffffffffffffffffff1673ffffffffffffffffffffffffffffffffffffffff16815260200190815260200160002060008373ffffffffffffffffffffffffffffffffffffffff1673ffffffffffffffffffffffffffffffffffffffff16815260200190815260200160002054905092915050565b613f9b6132fc565b61400d576040517f08c379a00000000000000000000000000000000000000000000000000000000081526004018080602001828103825260208152602001807f4f776e61626c653a2063616c6c6572206973206e6f7420746865206f776e657281525060200191505060405180910390fd5b61401633614a1b565b61401f81615a03565b61402a816000615266565b50565b60008261403981614b85565b6140ab576040517f08c379a00000000000000000000000000000000000000000000000000000000081526004018080602001828103825260168152602001807f6163636f756e74206e6f7420726567697374657265640000000000000000000081525060200191505060405180910390fd5b6140b5848461177f565b50600191505092915050565b6000336140cd81614b62565b61413f576040517f08c379a00000000000000000000000000000000000000000000000000000000081526004018080602001828103825260198152602001807f6772616e746f72206163636f756e74206e6f742072656164790000000000000081525060200191505060405180910390fd5b826000600e60003373ffffffffffffffffffffffffffffffffffffffff1673ffffffffffffffffffffffffffffffffffffffff16815260200190815260200160002090508060000160009054906101000a900460ff16614207576040517f08c379a00000000000000000000000000000000000000000000000000000000081526004018080602001828103825260168152602001807f736574207265737472696374696f6e732066697273740000000000000000000081525060200191505060405180910390fd5b8060000160019054906101000a900463ffffffff1663ffffffff168263ffffffff161015801561425657508060000160059054906101000a900463ffffffff1663ffffffff168263ffffffff16105b6142c8576040517f08c379a00000000000000000000000000000000000000000000000000000000081526004018080602001828103825260128152602001807f737461727444617920746f6f206561726c79000000000000000000000000000081525060200191505060405180910390fd5b8060000160099054906101000a900463ffffffff1663ffffffff166142eb613ae8565b63ffffffff1610614364576040517f08c379a000000000000000000000000000000000000000000000000000000000815260040180806020018281038252600f8152602001807f6772616e746f722065787069726564000000000000000000000000000000000081525060200191505060405180910390fd5b614372888888883333614c11565b9350505050949350505050565b600681565b60006143908483615b06565b83111590509392505050565b6000600560009054906101000a900460ff1615614421576040517f08c379a00000000000000000000000000000000000000000000000000000000081526004018080602001828103825260108152602001807f5061757361626c653a207061757365640000000000000000000000000000000081525060200191505060405180910390fd5b61442b8383615b3f565b905092915050565b60008073ffffffffffffffffffffffffffffffffffffffff168273ffffffffffffffffffffffffffffffffffffffff1614156144ba576040517f08c379a000000000000000000000000000000000000000000000000000000000815260040180806020018281038252602281526020018061668f6022913960400191505060405180910390fd5b8260000160008373ffffffffffffffffffffffffffffffffffffffff1673ffffffffffffffffffffffffffffffffffffffff16815260200190815260200160002060009054906101000a900460ff16905092915050565b600080600d60008573ffffffffffffffffffffffffffffffffffffffff1673ffffffffffffffffffffffffffffffffffffffff16815260200190815260200160002090506000600c60008360020160009054906101000a900473ffffffffffffffffffffffffffffffffffffffff1673ffffffffffffffffffffffffffffffffffffffff1673ffffffffffffffffffffffffffffffffffffffff168152602001908152602001600020905060006145c785615b5d565b90508260000160009054906101000a900460ff16158061461c57508160000160029054906101000a900463ffffffff168360000160029054906101000a900463ffffffff160163ffffffff168163ffffffff16105b156146305782600101549350505050614745565b8160000160069054906101000a900463ffffffff168360000160029054906101000a900463ffffffff160163ffffffff168163ffffffff16106146795760009350505050614745565b60008360000160029054906101000a900463ffffffff1682039050600083600001600a9054906101000a900463ffffffff1684600001600a9054906101000a900463ffffffff1663ffffffff168363ffffffff16816146d457fe5b0402905060006147238560000160069054906101000a900463ffffffff1663ffffffff166147158463ffffffff168960010154615b8290919063ffffffff16565b615c0890919063ffffffff16565b905061473c8187600101546159b990919063ffffffff16565b96505050505050505b92915050565b600073ffffffffffffffffffffffffffffffffffffffff168373ffffffffffffffffffffffffffffffffffffffff1614156147d1576040517f08c379a000000000000000000000000000000000000000000000000000000000815260040180806020018281038252602481526020018061671b6024913960400191505060405180910390fd5b600073ffffffffffffffffffffffffffffffffffffffff168273ffffffffffffffffffffffffffffffffffffffff161415614857576040517f08c379a00000000000000000000000000000000000000000000000000000000081526004018080602001828103825260228152602001806165dd6022913960400191505060405180910390fd5b80600260008573ffffffffffffffffffffffffffffffffffffffff1673ffffffffffffffffffffffffffffffffffffffff16815260200190815260200160002060008473ffffffffffffffffffffffffffffffffffffffff1673ffffffffffffffffffffffffffffffffffffffff168152602001908152602001600020819055508173ffffffffffffffffffffffffffffffffffffffff168373ffffffffffffffffffffffffffffffffffffffff167f8c5be1e5ebec7d5bd14f71427d1e84f3dd0314c0f7b2291e5b200ac8c7c3b925836040518082815260200191505060405180910390a3505050565b600061494f848484615c52565b614a108461495b6150a4565b614a0b8560405180606001604052806028815260200161666760289139600260008b73ffffffffffffffffffffffffffffffffffffffff1673ffffffffffffffffffffffffffffffffffffffff16815260200190815260200160002060006149c16150a4565b73ffffffffffffffffffffffffffffffffffffffff1673ffffffffffffffffffffffffffffffffffffffff16815260200190815260200160002054615f0c9092919063ffffffff16565b61474b565b600190509392505050565b600073ffffffffffffffffffffffffffffffffffffffff168173ffffffffffffffffffffffffffffffffffffffff161415614a5557600080fd5b614a6981600a615fcc90919063ffffffff16565b8073ffffffffffffffffffffffffffffffffffffffff167f33a8bb468e8361c5c40d643192eb6970b91cb87aa0200f8709f5b805087b905360405160405180910390a250565b6000614b58614abc6150a4565b84614b538560026000614acd6150a4565b73ffffffffffffffffffffffffffffffffffffffff1673ffffffffffffffffffffffffffffffffffffffff16815260200190815260200160002060008973ffffffffffffffffffffffffffffffffffffffff1673ffffffffffffffffffffffffffffffffffffffff1681526020019081526020016000205461608990919063ffffffff16565b61474b565b6001905092915050565b6000614b6d82612d6f565b8015614b7e5750614b7d82615352565b5b9050919050565b60003373ffffffffffffffffffffffffffffffffffffffff168273ffffffffffffffffffffffffffffffffffffffff161480614c0a5750600960008373ffffffffffffffffffffffffffffffffffffffff1673ffffffffffffffffffffffffffffffffffffffff16815260200190815260200160002060009054906101000a900460ff165b9050919050565b6000600d60008873ffffffffffffffffffffffffffffffffffffffff1673ffffffffffffffffffffffffffffffffffffffff16815260200190815260200160002060000160009054906101000a900460ff1615614cd6576040517f08c379a00000000000000000000000000000000000000000000000000000000081526004018080602001828103825260148152602001807f6772616e7420616c72656164792065786973747300000000000000000000000081525060200191505060405180910390fd5b858511158015614ce65750600085115b8015614d1a57506201518063ffffffff1663386d438063ffffffff1681614d0957fe5b0463ffffffff168463ffffffff1610155b8015614d525750620592bb6201518063ffffffff1663386d438063ffffffff1681614d4157fe5b040163ffffffff168463ffffffff16105b614dc4576040517f08c379a00000000000000000000000000000000000000000000000000000000081526004018080602001828103825260168152602001807f696e76616c69642076657374696e6720706172616d730000000000000000000081525060200191505060405180910390fd5b614dcd83615352565b614e3f576040517f08c379a00000000000000000000000000000000000000000000000000000000081526004018080602001828103825260188152602001807f6e6f20737563682076657374696e67207363686564756c65000000000000000081525060200191505060405180910390fd5b614e4a828888615c52565b6040518060c001604052806001151581526020016000151581526020018563ffffffff1681526020018681526020018473ffffffffffffffffffffffffffffffffffffffff1681526020018373ffffffffffffffffffffffffffffffffffffffff16815250600d60008973ffffffffffffffffffffffffffffffffffffffff1673ffffffffffffffffffffffffffffffffffffffff16815260200190815260200160002060008201518160000160006101000a81548160ff02191690831515021790555060208201518160000160016101000a81548160ff02191690831515021790555060408201518160000160026101000a81548163ffffffff021916908363ffffffff1602179055506060820151816001015560808201518160020160006101000a81548173ffffffffffffffffffffffffffffffffffffffff021916908373ffffffffffffffffffffffffffffffffffffffff16021790555060a08201518160030160006101000a81548173ffffffffffffffffffffffffffffffffffffffff021916908373ffffffffffffffffffffffffffffffffffffffff1602179055509050508173ffffffffffffffffffffffffffffffffffffffff16858873ffffffffffffffffffffffffffffffffffffffff167fce19dc9f3460f5845c81c7fa52526977d7e7275df4b1d0e40ea09653252e0c758787604051808363ffffffff1663ffffffff1681526020018273ffffffffffffffffffffffffffffffffffffffff1673ffffffffffffffffffffffffffffffffffffffff1681526020019250505060405180910390a4600190509695505050505050565b600033905090565b600073ffffffffffffffffffffffffffffffffffffffff168273ffffffffffffffffffffffffffffffffffffffff161415615132576040517f08c379a00000000000000000000000000000000000000000000000000000000081526004018080602001828103825260218152602001806166d56021913960400191505060405180910390fd5b61519e8160405180606001604052806022815260200161656560229139600160008673ffffffffffffffffffffffffffffffffffffffff1673ffffffffffffffffffffffffffffffffffffffff16815260200190815260200160002054615f0c9092919063ffffffff16565b600160008473ffffffffffffffffffffffffffffffffffffffff1673ffffffffffffffffffffffffffffffffffffffff168152602001908152602001600020819055506151f6816003546159b990919063ffffffff16565b600381905550600073ffffffffffffffffffffffffffffffffffffffff168273ffffffffffffffffffffffffffffffffffffffff167fddf252ad1be2c89b69c2b068fc378daa952ba7f163c4a11628f55a4df523b3ef836040518082815260200191505060405180910390a35050565b600073ffffffffffffffffffffffffffffffffffffffff168273ffffffffffffffffffffffffffffffffffffffff1614156152a057600080fd5b6152b482600a61611190919063ffffffff16565b80600b60008473ffffffffffffffffffffffffffffffffffffffff1673ffffffffffffffffffffffffffffffffffffffff16815260200190815260200160002060006101000a81548160ff0219169083151502179055508173ffffffffffffffffffffffffffffffffffffffff167f614c7c37719098320f845a142223983b9adcc4c3f2663971d5b0eb4c661a24e760405160405180910390a25050565b6000600c60008373ffffffffffffffffffffffffffffffffffffffff1673ffffffffffffffffffffffffffffffffffffffff16815260200190815260200160002060000160009054906101000a900460ff169050919050565b6000808463ffffffff161180156153e157506064620592bb63ffffffff16816153d057fe5b0463ffffffff168463ffffffff1611155b80156153f857508363ffffffff168563ffffffff16105b801561540b575060018363ffffffff1610155b61547d576040517f08c379a00000000000000000000000000000000000000000000000000000000081526004018080602001828103825260188152602001807f696e76616c69642076657374696e67207363686564756c65000000000000000081525060200191505060405180910390fd5b60008363ffffffff168563ffffffff168161549457fe5b0663ffffffff161480156154c3575060008363ffffffff168663ffffffff16816154ba57fe5b0663ffffffff16145b615518576040517f08c379a000000000000000000000000000000000000000000000000000000000815260040180806020018281038252602381526020018061673f6023913960400191505060405180910390fd5b6040518060a0016040528060011515815260200183151581526020018663ffffffff1681526020018563ffffffff1681526020018463ffffffff16815250600c60008873ffffffffffffffffffffffffffffffffffffffff1673ffffffffffffffffffffffffffffffffffffffff16815260200190815260200160002060008201518160000160006101000a81548160ff02191690831515021790555060208201518160000160016101000a81548160ff02191690831515021790555060408201518160000160026101000a81548163ffffffff021916908363ffffffff16021790555060608201518160000160066101000a81548163ffffffff021916908363ffffffff160217905550608082015181600001600a6101000a81548163ffffffff021916908363ffffffff1602179055509050508115158463ffffffff168773ffffffffffffffffffffffffffffffffffffffff167fb84219eaee5910cc5311a393fbd4287b14bc791973b97f64d4b61b6d8554adc78887604051808363ffffffff1663ffffffff1681526020018263ffffffff1663ffffffff1681526020019250505060405180910390a46001905095945050505050565b6156e6816004615fcc90919063ffffffff16565b8073ffffffffffffffffffffffffffffffffffffffff167fcd265ebaf09df2871cc7bd4133404a235ba12eff2041bb89d9c714a2621c7c7e60405160405180910390a250565b61573682826150ac565b6157f7826157426150a4565b6157f2846040518060600160405280602481526020016166b160249139600260008973ffffffffffffffffffffffffffffffffffffffff1673ffffffffffffffffffffffffffffffffffffffff16815260200190815260200160002060006157a86150a4565b73ffffffffffffffffffffffffffffffffffffffff1673ffffffffffffffffffffffffffffffffffffffff16815260200190815260200160002054615f0c9092919063ffffffff16565b61474b565b5050565b61580f81600461611190919063ffffffff16565b8073ffffffffffffffffffffffffffffffffffffffff167f6719d08c1888103bea251a4ed56406bd0c3e69723c8a1686e017e7bbe159b6f860405160405180910390a250565b60006159186158626150a4565b8461591385604051806060016040528060258152602001616762602591396002600061588c6150a4565b73ffffffffffffffffffffffffffffffffffffffff1673ffffffffffffffffffffffffffffffffffffffff16815260200190815260200160002060008a73ffffffffffffffffffffffffffffffffffffffff1673ffffffffffffffffffffffffffffffffffffffff16815260200190815260200160002054615f0c9092919063ffffffff16565b61474b565b6001905092915050565b6000600560009054906101000a900460ff16156159a7576040517f08c379a00000000000000000000000000000000000000000000000000000000081526004018080602001828103825260108152602001807f5061757361626c653a207061757365640000000000000000000000000000000081525060200191505060405180910390fd5b6159b183836161ec565b905092915050565b60006159fb83836040518060400160405280601e81526020017f536166654d6174683a207375627472616374696f6e206f766572666c6f770000815250615f0c565b905092915050565b80615a0d81614b85565b615a7f576040517f08c379a00000000000000000000000000000000000000000000000000000000081526004018080602001828103825260168152602001807f6163636f756e74206e6f7420726567697374657265640000000000000000000081525060200191505060405180910390fd5b615a876132fc565b615af9576040517f08c379a00000000000000000000000000000000000000000000000000000000081526004018080602001828103825260208152602001807f4f776e61626c653a2063616c6c6572206973206e6f7420746865206f776e657281525060200191505060405180910390fd5b615b028261620a565b5050565b600080615b1284612de8565b90506000615b32615b238686614511565b836159b990919063ffffffff16565b9050809250505092915050565b6000615b53615b4c6150a4565b848461474b565b6001905092915050565b6000808263ffffffff1614615b725781615b7b565b615b7a613ae8565b5b9050919050565b600080831415615b955760009050615c02565b6000828402905082848281615ba657fe5b0414615bfd576040517f08c379a00000000000000000000000000000000000000000000000000000000081526004018080602001828103825260218152602001806166466021913960400191505060405180910390fd5b809150505b92915050565b6000615c4a83836040518060400160405280601a81526020017f536166654d6174683a206469766973696f6e206279207a65726f000000000000815250616290565b905092915050565b600073ffffffffffffffffffffffffffffffffffffffff168373ffffffffffffffffffffffffffffffffffffffff161415615cd8576040517f08c379a00000000000000000000000000000000000000000000000000000000081526004018080602001828103825260258152602001806166f66025913960400191505060405180910390fd5b600073ffffffffffffffffffffffffffffffffffffffff168273ffffffffffffffffffffffffffffffffffffffff161415615d5e576040517f08c379a00000000000000000000000000000000000000000000000000000000081526004018080602001828103825260238152602001806165426023913960400191505060405180910390fd5b615dca816040518060600160405280602681526020016165ff60269139600160008773ffffffffffffffffffffffffffffffffffffffff1673ffffffffffffffffffffffffffffffffffffffff16815260200190815260200160002054615f0c9092919063ffffffff16565b600160008573ffffffffffffffffffffffffffffffffffffffff1673ffffffffffffffffffffffffffffffffffffffff16815260200190815260200160002081905550615e5f81600160008573ffffffffffffffffffffffffffffffffffffffff1673ffffffffffffffffffffffffffffffffffffffff1681526020019081526020016000205461608990919063ffffffff16565b600160008473ffffffffffffffffffffffffffffffffffffffff1673ffffffffffffffffffffffffffffffffffffffff168152602001908152602001600020819055508173ffffffffffffffffffffffffffffffffffffffff168373ffffffffffffffffffffffffffffffffffffffff167fddf252ad1be2c89b69c2b068fc378daa952ba7f163c4a11628f55a4df523b3ef836040518082815260200191505060405180910390a3505050565b6000838311158290615fb9576040517f08c379a00000000000000000000000000000000000000000000000000000000081526004018080602001828103825283818151815260200191508051906020019080838360005b83811015615f7e578082015181840152602081019050615f63565b50505050905090810190601f168015615fab5780820380516001836020036101000a031916815260200191505b509250505060405180910390fd5b5060008385039050809150509392505050565b615fd68282614433565b61602b576040517f08c379a00000000000000000000000000000000000000000000000000000000081526004018080602001828103825260218152602001806166256021913960400191505060405180910390fd5b60008260000160008373ffffffffffffffffffffffffffffffffffffffff1673ffffffffffffffffffffffffffffffffffffffff16815260200190815260200160002060006101000a81548160ff0219169083151502179055505050565b600080828401905083811015616107576040517f08c379a000000000000000000000000000000000000000000000000000000000815260040180806020018281038252601b8152602001807f536166654d6174683a206164646974696f6e206f766572666c6f77000000000081525060200191505060405180910390fd5b8091505092915050565b61611b8282614433565b1561618e576040517f08c379a000000000000000000000000000000000000000000000000000000000815260040180806020018281038252601f8152602001807f526f6c65733a206163636f756e7420616c72656164792068617320726f6c650081525060200191505060405180910390fd5b60018260000160008373ffffffffffffffffffffffffffffffffffffffff1673ffffffffffffffffffffffffffffffffffffffff16815260200190815260200160002060006101000a81548160ff0219169083151502179055505050565b60006162006161f96150a4565b8484615c52565b6001905092915050565b6162126132fc565b616284576040517f08c379a00000000000000000000000000000000000000000000000000000000081526004018080602001828103825260208152602001807f4f776e61626c653a2063616c6c6572206973206e6f7420746865206f776e657281525060200191505060405180910390fd5b61628d81616356565b50565b6000808311829061633c576040517f08c379a00000000000000000000000000000000000000000000000000000000081526004018080602001828103825283818151815260200191508051906020019080838360005b838110156163015780820151818401526020810190506162e6565b50505050905090810190601f16801561632e5780820380516001836020036101000a031916815260200191505b509250505060405180910390fd5b50600083858161634857fe5b049050809150509392505050565b600073ffffffffffffffffffffffffffffffffffffffff168173ffffffffffffffffffffffffffffffffffffffff1614156163dc576040517f08c379a00000000000000000000000000000000000000000000000000000000081526004018080602001828103825260268152602001806165b76026913960400191505060405180910390fd5b8073ffffffffffffffffffffffffffffffffffffffff16600860019054906101000a900473ffffffffffffffffffffffffffffffffffffffff1673ffffffffffffffffffffffffffffffffffffffff167f8be0079c531659141344cd1fd0a4f28419497f9722a3daafe3b4186f6b6457e060405160405180910390a380600860016101000a81548173ffffffffffffffffffffffffffffffffffffffff021916908373ffffffffffffffffffffffffffffffffffffffff16021790555050565b828054600181600116156101000203166002900490600052602060002090601f016020900481019282601f106164dd57805160ff191683800117855561650b565b8280016001018555821561650b579182015b8281111561650a5782518255916020019190600101906164ef565b5b509050616518919061651c565b5090565b61653e91905b8082111561653a576000816000905550600101616522565b5090565b9056fe45524332303a207472616e7366657220746f20746865207a65726f206164647265737345524332303a206275726e20616d6f756e7420657863656564732062616c616e6365506175736572526f6c653a2063616c6c657220646f6573206e6f742068617665207468652050617573657220726f6c654f776e61626c653a206e6577206f776e657220697320746865207a65726f206164647265737345524332303a20617070726f766520746f20746865207a65726f206164647265737345524332303a207472616e7366657220616d6f756e7420657863656564732062616c616e6365526f6c65733a206163636f756e7420646f6573206e6f74206861766520726f6c65536166654d6174683a206d756c7469706c69636174696f6e206f766572666c6f7745524332303a207472616e7366657220616d6f756e74206578636565647320616c6c6f77616e6365526f6c65733a206163636f756e7420697320746865207a65726f206164647265737345524332303a206275726e20616d6f756e74206578636565647320616c6c6f77616e636545524332303a206275726e2066726f6d20746865207a65726f206164647265737345524332303a207472616e736665722066726f6d20746865207a65726f206164647265737345524332303a20617070726f76652066726f6d20746865207a65726f2061646472657373696e76616c696420636c6966662f6475726174696f6e20666f7220696e74657276616c45524332303a2064656372656173656420616c6c6f77616e63652062656c6f77207a65726fa265627a7a723158203037753e3f373567eeb2a32d09a4a6fafc004600a34df3e98007ae5b195fba3764736f6c634300050b0032526f6c65733a206163636f756e7420697320746865207a65726f2061646472657373",
  "source": "pragma solidity ^0.5.7;\n\nimport \"./Identity.sol\";\nimport \"../openzeppelin-contracts/contracts/token/ERC20/ERC20Burnable.sol\";\nimport \"../openzeppelin-contracts/contracts/token/ERC20/ERC20Detailed.sol\";\nimport \"./UniformTokenGrantor.sol\";\n\n/**\n * @dev An ERC20 implementation of the Paypolitan Token. All tokens are initially pre-assigned to\n * the creator, and can later be distributed freely using transfer transferFrom and other ERC20\n * functions.\n */\ncontract PaypolitanToken is\n    Identity,\n    ERC20,\n    ERC20Pausable,\n    ERC20Burnable,\n    ERC20Detailed,\n    UniformTokenGrantor\n{\n    uint32 public constant VERSION = 6;\n\n    uint8 private constant DECIMALS = 18;\n    uint256 private constant TOKEN_WEI = 10**uint256(DECIMALS);\n\n    uint256 private constant INITIAL_WHOLE_TOKENS = uint256(946970000);\n    uint256 private constant INITIAL_SUPPLY = uint256(INITIAL_WHOLE_TOKENS) * uint256(TOKEN_WEI);\n\n    /**\n     * @dev Constructor that gives msg.sender all of existing tokens.\n     */\n    constructor() public ERC20Detailed(\"paypolitan.io paypolitan token\", \"PPA\", DECIMALS) {\n        // This is the only place where we ever mint tokens.\n        _mint(msg.sender, INITIAL_SUPPLY);\n    }\n\n    event DepositReceived(address indexed from, uint256 value);\n\n    /**\n     * fallback function: collect any ether sent to us (whether we asked for it or not).\n     */\n    function() external payable {\n        // Track where unexpected ETH came from so we can follow up later.\n        emit DepositReceived(msg.sender, msg.value);\n    }\n\n    /**\n     * @dev Allow only the owner to burn tokens from the owner's wallet, also decreasing the total\n     * supply. There is no reason for a token holder to EVER call this method directly. It will be\n     * used by the future Dyncoin contract to implement the PaypolitanToken side of of token redemption.\n     */\n    function burn(uint256 value) public onlyIfFundsAvailableNow(msg.sender, value) {\n        // This is the only place where we ever burn tokens.\n        _burn(msg.sender, value);\n    }\n\n    /**\n     * @dev Allow pauser to kill the contract (which must already be paused), with enough restrictions\n     * in place to ensure this could not happen by accident very easily. ETH is returned to owner wallet.\n     */\n    function kill() public whenPaused onlyPauser returns (bool itsDeadJim) {\n        require(isPauser(msg.sender), \"onlyPauser\");\n        address payable payableOwner = address(uint160(owner()));\n        selfdestruct(payableOwner);\n        return true;\n    }\n}\n",
  "sourcePath": "/home/adrian/work/paypolitan_token/Paypolitan_token/contracts/PaypolitanToken.sol",
  "compiler": {
    "name": "solc",
    "version": "0.5.11+commit.c082d0b4.Emscripten.clang"
  },
  "schemaVersion": "3.0.13",
  "updatedAt": "2019-09-04T13:40:08.349Z",
  "devdoc": {
    "details": "An ERC20 implementation of the Paypolitan Token. All tokens are initially pre-assigned to the creator, and can later be distributed freely using transfer transferFrom and other ERC20 functions.",
    "methods": {
      "allowance(address,address)": {
        "details": "See {IERC20-allowance}."
      },
      "approve(address,uint256)": {
        "details": "Additional available funds check to prevent spending held but non-vested tokens."
      },
      "balanceOf(address)": {
        "details": "See {IERC20-balanceOf}."
      },
      "burn(uint256)": {
        "details": "Allow only the owner to burn tokens from the owner's wallet, also decreasing the total supply. There is no reason for a token holder to EVER call this method directly. It will be used by the future Dyncoin contract to implement the PaypolitanToken side of of token redemption."
      },
      "burnFrom(address,uint256)": {
        "details": "See {ERC20-_burnFrom}."
      },
      "constructor": {
        "details": "Constructor that gives msg.sender all of existing tokens."
      },
      "decimals()": {
        "details": "Returns the number of decimals used to get its user representation. For example, if `decimals` equals `2`, a balance of `505` tokens should be displayed to a user as `5,05` (`505 / 10 ** 2`).     * Tokens usually opt for a value of 18, imitating the relationship between Ether and Wei.     * NOTE: This information is only used for _display_ purposes: it in no way affects any of the arithmetic of the contract, including {IERC20-balanceOf} and {IERC20-transfer}."
      },
      "getIntrinsicVestingSchedule(address)": {
        "details": "returns all information about the vesting schedule directly associated with the given account. This can be used to double check that a uniform grantor has been set up with a correct vesting schedule. Also, recipients of standard (non-uniform) grants can use this. This method is only callable by the account holder or a grantor, so this is mainly intended for administrative use.     * Holders of uniform grants must use vestingAsOf() to view their vesting schedule, as it is stored in the grantor account.",
        "params": {
          "grantHolder": "= The address to do this for.  the special value 0 to indicate today."
        },
        "return": "= A tuple with the following values:  vestDuration = grant duration in days.  cliffDuration = duration of the cliff.  vestIntervalDays = number of days between vesting periods."
      },
      "grantUniformVestingTokens(address,uint256,uint256,uint32)": {
        "details": "Immediately grants tokens to an address, including a portion that will vest over time according to the uniform vesting schedule already established in the grantor's account.",
        "params": {
          "beneficiary": "= Address to which tokens will be granted.",
          "startDay": "= Start day of the grant's vesting schedule, in days since the UNIX epoch  (start of day). The startDay may be given as a date in the future or in the past, going as far  back as year 2000.",
          "totalAmount": "= Total number of tokens to deposit into the account.",
          "vestingAmount": "= Out of totalAmount, the number of tokens subject to vesting."
        }
      },
      "grantVestingTokens(address,uint256,uint256,uint32,uint32,uint32,uint32,bool)": {
        "details": "Immediately grants tokens to an address, including a portion that will vest over time according to a set vesting schedule. The overall duration and cliff duration of the grant must be an even multiple of the vesting interval.",
        "params": {
          "beneficiary": "= Address to which tokens will be granted.",
          "cliffDuration": "= Duration of the cliff, with respect to the grant start day, in days.",
          "duration": "= Duration of the vesting schedule, with respect to the grant start day, in days.",
          "interval": "= Number of days between vesting increases.",
          "isRevocable": "= True if the grant can be revoked (i.e. was a gift) or false if it cannot  be revoked (i.e. tokens were purchased).",
          "startDay": "= Start day of the grant's vesting schedule, in days since the UNIX epoch  (start of day). The startDay may be given as a date in the future or in the past, going as far  back as year 2000.",
          "totalAmount": "= Total number of tokens to deposit into the account.",
          "vestingAmount": "= Out of totalAmount, the number of tokens subject to vesting."
        }
      },
      "isOwner()": {
        "details": "Returns true if the caller is the current owner."
      },
      "kill()": {
        "details": "Allow pauser to kill the contract (which must already be paused), with enough restrictions in place to ensure this could not happen by accident very easily. ETH is returned to owner wallet."
      },
      "name()": {
        "details": "Returns the name of the token."
      },
      "owner()": {
        "details": "Returns the address of the current owner."
      },
      "pause()": {
        "details": "Called by a pauser to pause, triggers stopped state."
      },
      "paused()": {
        "details": "Returns true if the contract is paused, and false otherwise."
      },
      "revokeGrant(address,uint32)": {
        "details": "If the account has a revocable grant, this forces the grant to end based on computing the amount vested up to the given date. All tokens that would no longer vest are returned to the account of the original grantor.",
        "params": {
          "grantHolder": "= Address to which tokens will be granted.",
          "onDay": "= The date upon which the vesting schedule will be effectively terminated,  in days since the UNIX epoch (start of day)."
        }
      },
      "safeGrantUniformVestingTokens(address,uint256,uint256,uint32)": {
        "details": "This variant only grants tokens if the beneficiary account has previously self-registered."
      },
      "safeGrantVestingTokens(address,uint256,uint256,uint32,uint32,uint32,uint32,bool)": {
        "details": "This variant only grants tokens if the beneficiary account has previously self-registered."
      },
      "setGrantorVestingSchedule(address,uint32,uint32,uint32,bool)": {
        "details": "Lets owner permanently establish a vesting schedule for a restricted grantor to use when creating uniform token grants. Grantee accounts forever refer to the grantor's account to look up vesting, so this method can only be used once per grantor.",
        "params": {
          "cliffDuration": "= Duration of the cliff, with respect to the grant start day, in days.",
          "duration": "= Duration of the vesting schedule, with respect to the grant start day, in days.",
          "grantor": "= Address which will receive the uniform grantable vesting schedule.",
          "interval": "= Number of days between vesting increases.",
          "isRevocable": "= True if the grant can be revoked (i.e. was a gift) or false if it cannot  be revoked (i.e. tokens were purchased)."
        }
      },
      "setRestrictions(address,uint32,uint32,uint32)": {
        "details": "Lets owner set or change existing specific restrictions. Restrictions must be established before the grantor will be allowed to issue grants.     * All date values are expressed as number of days since the UNIX epoch. Note that the inputs are themselves not very thoroughly restricted. However, this method can be called more than once if incorrect values need to be changed, or to extend a grantor's expiration date.",
        "params": {
          "expirationDay": "= The last day this grantor may make grants.",
          "grantor": "= Address which will receive the uniform grantable vesting schedule.",
          "maxStartDay": "= The maximum value for startDay allowed in grant creation.",
          "minStartDay": "= The smallest value for startDay allowed in grant creation."
        }
      },
      "symbol()": {
        "details": "Returns the symbol of the token, usually a shorter version of the name."
      },
      "today()": {
        "details": "returns the day number of the current day, in days since the UNIX epoch."
      },
      "totalSupply()": {
        "details": "See {IERC20-totalSupply}."
      },
      "transfer(address,uint256)": {
        "details": "Methods transfer() and approve() require an additional available funds check to prevent spending held but non-vested tokens. Note that transferFrom() does NOT have this additional check because approved funds come from an already set-aside allowance, not from the wallet."
      },
      "transferOwnership(address)": {
        "details": "Allows the current owner to transfer control of the contract to a newOwner.",
        "params": {
          "newOwner": "The address to transfer ownership to."
        }
      },
      "unpause()": {
        "details": "Called by a pauser to unpause, returns to normal state."
      },
      "vestingAsOf(uint32)": {
        "details": "returns all information about the grant's vesting as of the given day for the current account, to be called by the account holder.",
        "params": {
          "onDayOrToday": "= The day to check for, in days since the UNIX epoch. Can pass  the special value 0 to indicate today."
        },
        "return": "= A tuple with the following values:  amountVested = the amount out of vestingAmount that is vested  amountNotVested = the amount that is vested (equal to vestingAmount - vestedAmount)  amountOfGrant = the amount of tokens subject to vesting.  vestStartDay = starting day of the grant (in days since the UNIX epoch).  cliffDuration = duration of the cliff.  vestDuration = grant duration in days.  vestIntervalDays = number of days between vesting periods.  isActive = true if the vesting schedule is currently active.  wasRevoked = true if the vesting schedule was revoked."
      },
      "vestingForAccountAsOf(address,uint32)": {
        "details": "returns all information about the grant's vesting as of the given day for the given account. Only callable by the account holder or a grantor, so this is mainly intended for administrative use.",
        "params": {
          "grantHolder": "= The address to do this for.",
          "onDayOrToday": "= The day to check for, in days since the UNIX epoch. Can pass  the special value 0 to indicate today."
        },
        "return": "= A tuple with the following values:  amountVested = the amount out of vestingAmount that is vested  amountNotVested = the amount that is vested (equal to vestingAmount - vestedAmount)  amountOfGrant = the amount of tokens subject to vesting.  vestStartDay = starting day of the grant (in days since the UNIX epoch).  vestDuration = grant duration in days.  cliffDuration = duration of the cliff.  vestIntervalDays = number of days between vesting periods.  isActive = true if the vesting schedule is currently active.  wasRevoked = true if the vesting schedule was revoked."
      }
    }
  },
  "userdoc": {
    "methods": {
      "iAm(string)": {
        "notice": "Associate short name with the account"
      },
      "registerAccount()": {
        "notice": "This registers the calling wallet address as a known address. Operations that transfer responsibility may require the target account to be a registered account, to protect the system from getting into a state where administration or a large amount of funds can become forever inaccessible."
      },
      "renounceOwnership()": {
        "notice": "Ensure there is no way for the contract to end up with no owner. That would inadvertently result in token grant administration becoming impossible. We override this to always disallow it."
      },
      "whereAmI()": {
        "notice": "Function to confirm the address of the current account"
      },
      "whoAmI()": {
        "notice": "Confirm the shortName of the current account"
      }
    }
  }
}