{
  "contractName": "UniformTokenGrantor",
  "abi": [
    {
      "constant": false,
      "inputs": [
        {
          "internalType": "address",
          "name": "spender",
          "type": "address"
        },
        {
          "internalType": "uint256",
          "name": "value",
          "type": "uint256"
        }
      ],
      "name": "approve",
      "outputs": [
        {
          "internalType": "bool",
          "name": "ok",
          "type": "bool"
        }
      ],
      "payable": false,
      "stateMutability": "nonpayable",
      "type": "function"
    },
    {
      "constant": true,
      "inputs": [],
      "name": "totalSupply",
      "outputs": [
        {
          "internalType": "uint256",
          "name": "",
          "type": "uint256"
        }
      ],
      "payable": false,
      "stateMutability": "view",
      "type": "function"
    },
    {
      "constant": true,
      "inputs": [
        {
          "internalType": "address",
          "name": "account",
          "type": "address"
        }
      ],
      "name": "isGrantor",
      "outputs": [
        {
          "internalType": "bool",
          "name": "",
          "type": "bool"
        }
      ],
      "payable": false,
      "stateMutability": "view",
      "type": "function"
    },
    {
      "constant": false,
      "inputs": [
        {
          "internalType": "address",
          "name": "grantHolder",
          "type": "address"
        },
        {
          "internalType": "uint32",
          "name": "onDay",
          "type": "uint32"
        }
      ],
      "name": "revokeGrant",
      "outputs": [
        {
          "internalType": "bool",
          "name": "ok",
          "type": "bool"
        }
      ],
      "payable": false,
      "stateMutability": "nonpayable",
      "type": "function"
    },
    {
      "constant": false,
      "inputs": [
        {
          "internalType": "address",
          "name": "sender",
          "type": "address"
        },
        {
          "internalType": "address",
          "name": "recipient",
          "type": "address"
        },
        {
          "internalType": "uint256",
          "name": "amount",
          "type": "uint256"
        }
      ],
      "name": "transferFrom",
      "outputs": [
        {
          "internalType": "bool",
          "name": "",
          "type": "bool"
        }
      ],
      "payable": false,
      "stateMutability": "nonpayable",
      "type": "function"
    },
    {
      "constant": true,
      "inputs": [
        {
          "internalType": "uint32",
          "name": "onDayOrToday",
          "type": "uint32"
        }
      ],
      "name": "vestingAsOf",
      "outputs": [
        {
          "internalType": "uint256",
          "name": "amountVested",
          "type": "uint256"
        },
        {
          "internalType": "uint256",
          "name": "amountNotVested",
          "type": "uint256"
        },
        {
          "internalType": "uint256",
          "name": "amountOfGrant",
          "type": "uint256"
        },
        {
          "internalType": "uint32",
          "name": "vestStartDay",
          "type": "uint32"
        },
        {
          "internalType": "uint32",
          "name": "vestDuration",
          "type": "uint32"
        },
        {
          "internalType": "uint32",
          "name": "cliffDuration",
          "type": "uint32"
        },
        {
          "internalType": "uint32",
          "name": "vestIntervalDays",
          "type": "uint32"
        },
        {
          "internalType": "bool",
          "name": "isActive",
          "type": "bool"
        },
        {
          "internalType": "bool",
          "name": "wasRevoked",
          "type": "bool"
        }
      ],
      "payable": false,
      "stateMutability": "view",
      "type": "function"
    },
    {
      "constant": false,
      "inputs": [
        {
          "internalType": "address",
          "name": "account",
          "type": "address"
        }
      ],
      "name": "removeGrantor",
      "outputs": [],
      "payable": false,
      "stateMutability": "nonpayable",
      "type": "function"
    },
    {
      "constant": false,
      "inputs": [
        {
          "internalType": "address",
          "name": "spender",
          "type": "address"
        },
        {
          "internalType": "uint256",
          "name": "addedValue",
          "type": "uint256"
        }
      ],
      "name": "increaseAllowance",
      "outputs": [
        {
          "internalType": "bool",
          "name": "",
          "type": "bool"
        }
      ],
      "payable": false,
      "stateMutability": "nonpayable",
      "type": "function"
    },
    {
      "constant": false,
      "inputs": [
        {
          "internalType": "address",
          "name": "beneficiary",
          "type": "address"
        },
        {
          "internalType": "uint256",
          "name": "totalAmount",
          "type": "uint256"
        },
        {
          "internalType": "uint256",
          "name": "vestingAmount",
          "type": "uint256"
        },
        {
          "internalType": "uint32",
          "name": "startDay",
          "type": "uint32"
        },
        {
          "internalType": "uint32",
          "name": "duration",
          "type": "uint32"
        },
        {
          "internalType": "uint32",
          "name": "cliffDuration",
          "type": "uint32"
        },
        {
          "internalType": "uint32",
          "name": "interval",
          "type": "uint32"
        },
        {
          "internalType": "bool",
          "name": "isRevocable",
          "type": "bool"
        }
      ],
      "name": "safeGrantVestingTokens",
      "outputs": [
        {
          "internalType": "bool",
          "name": "ok",
          "type": "bool"
        }
      ],
      "payable": false,
      "stateMutability": "nonpayable",
      "type": "function"
    },
    {
      "constant": false,
      "inputs": [
        {
          "internalType": "address",
          "name": "to",
          "type": "address"
        },
        {
          "internalType": "uint256",
          "name": "value",
          "type": "uint256"
        }
      ],
      "name": "safeTransfer",
      "outputs": [
        {
          "internalType": "bool",
          "name": "ok",
          "type": "bool"
        }
      ],
      "payable": false,
      "stateMutability": "nonpayable",
      "type": "function"
    },
    {
      "constant": false,
      "inputs": [
        {
          "internalType": "address",
          "name": "from",
          "type": "address"
        },
        {
          "internalType": "address",
          "name": "to",
          "type": "address"
        },
        {
          "internalType": "uint256",
          "name": "value",
          "type": "uint256"
        }
      ],
      "name": "safeTransferFrom",
      "outputs": [
        {
          "internalType": "bool",
          "name": "ok",
          "type": "bool"
        }
      ],
      "payable": false,
      "stateMutability": "nonpayable",
      "type": "function"
    },
    {
      "constant": false,
      "inputs": [
        {
          "internalType": "address",
          "name": "account",
          "type": "address"
        },
        {
          "internalType": "bool",
          "name": "isUniformGrantor",
          "type": "bool"
        }
      ],
      "name": "addGrantor",
      "outputs": [],
      "payable": false,
      "stateMutability": "nonpayable",
      "type": "function"
    },
    {
      "constant": true,
      "inputs": [
        {
          "internalType": "address",
          "name": "account",
          "type": "address"
        }
      ],
      "name": "isUniformGrantor",
      "outputs": [
        {
          "internalType": "bool",
          "name": "",
          "type": "bool"
        }
      ],
      "payable": false,
      "stateMutability": "view",
      "type": "function"
    },
    {
      "constant": true,
      "inputs": [
        {
          "internalType": "address",
          "name": "account",
          "type": "address"
        }
      ],
      "name": "balanceOf",
      "outputs": [
        {
          "internalType": "uint256",
          "name": "",
          "type": "uint256"
        }
      ],
      "payable": false,
      "stateMutability": "view",
      "type": "function"
    },
    {
      "constant": false,
      "inputs": [],
      "name": "renounceOwnership",
      "outputs": [],
      "payable": false,
      "stateMutability": "nonpayable",
      "type": "function"
    },
    {
      "constant": false,
      "inputs": [
        {
          "internalType": "address",
          "name": "beneficiary",
          "type": "address"
        },
        {
          "internalType": "uint256",
          "name": "totalAmount",
          "type": "uint256"
        },
        {
          "internalType": "uint256",
          "name": "vestingAmount",
          "type": "uint256"
        },
        {
          "internalType": "uint32",
          "name": "startDay",
          "type": "uint32"
        },
        {
          "internalType": "uint32",
          "name": "duration",
          "type": "uint32"
        },
        {
          "internalType": "uint32",
          "name": "cliffDuration",
          "type": "uint32"
        },
        {
          "internalType": "uint32",
          "name": "interval",
          "type": "uint32"
        },
        {
          "internalType": "bool",
          "name": "isRevocable",
          "type": "bool"
        }
      ],
      "name": "grantVestingTokens",
      "outputs": [
        {
          "internalType": "bool",
          "name": "ok",
          "type": "bool"
        }
      ],
      "payable": false,
      "stateMutability": "nonpayable",
      "type": "function"
    },
    {
      "constant": true,
      "inputs": [],
      "name": "owner",
      "outputs": [
        {
          "internalType": "address",
          "name": "",
          "type": "address"
        }
      ],
      "payable": false,
      "stateMutability": "view",
      "type": "function"
    },
    {
      "constant": true,
      "inputs": [],
      "name": "isOwner",
      "outputs": [
        {
          "internalType": "bool",
          "name": "",
          "type": "bool"
        }
      ],
      "payable": false,
      "stateMutability": "view",
      "type": "function"
    },
    {
      "constant": false,
      "inputs": [
        {
          "internalType": "address",
          "name": "spender",
          "type": "address"
        },
        {
          "internalType": "uint256",
          "name": "subtractedValue",
          "type": "uint256"
        }
      ],
      "name": "decreaseAllowance",
      "outputs": [
        {
          "internalType": "bool",
          "name": "",
          "type": "bool"
        }
      ],
      "payable": false,
      "stateMutability": "nonpayable",
      "type": "function"
    },
    {
      "constant": false,
      "inputs": [
        {
          "internalType": "address",
          "name": "to",
          "type": "address"
        },
        {
          "internalType": "uint256",
          "name": "value",
          "type": "uint256"
        }
      ],
      "name": "transfer",
      "outputs": [
        {
          "internalType": "bool",
          "name": "ok",
          "type": "bool"
        }
      ],
      "payable": false,
      "stateMutability": "nonpayable",
      "type": "function"
    },
    {
      "constant": true,
      "inputs": [
        {
          "internalType": "address",
          "name": "grantHolder",
          "type": "address"
        }
      ],
      "name": "getIntrinsicVestingSchedule",
      "outputs": [
        {
          "internalType": "uint32",
          "name": "vestDuration",
          "type": "uint32"
        },
        {
          "internalType": "uint32",
          "name": "cliffDuration",
          "type": "uint32"
        },
        {
          "internalType": "uint32",
          "name": "vestIntervalDays",
          "type": "uint32"
        }
      ],
      "payable": false,
      "stateMutability": "view",
      "type": "function"
    },
    {
      "constant": true,
      "inputs": [],
      "name": "today",
      "outputs": [
        {
          "internalType": "uint32",
          "name": "dayNumber",
          "type": "uint32"
        }
      ],
      "payable": false,
      "stateMutability": "view",
      "type": "function"
    },
    {
      "constant": true,
      "inputs": [
        {
          "internalType": "address",
          "name": "account",
          "type": "address"
        }
      ],
      "name": "isRegistered",
      "outputs": [
        {
          "internalType": "bool",
          "name": "ok",
          "type": "bool"
        }
      ],
      "payable": false,
      "stateMutability": "view",
      "type": "function"
    },
    {
      "constant": true,
      "inputs": [
        {
          "internalType": "address",
          "name": "grantHolder",
          "type": "address"
        },
        {
          "internalType": "uint32",
          "name": "onDayOrToday",
          "type": "uint32"
        }
      ],
      "name": "vestingForAccountAsOf",
      "outputs": [
        {
          "internalType": "uint256",
          "name": "amountVested",
          "type": "uint256"
        },
        {
          "internalType": "uint256",
          "name": "amountNotVested",
          "type": "uint256"
        },
        {
          "internalType": "uint256",
          "name": "amountOfGrant",
          "type": "uint256"
        },
        {
          "internalType": "uint32",
          "name": "vestStartDay",
          "type": "uint32"
        },
        {
          "internalType": "uint32",
          "name": "vestDuration",
          "type": "uint32"
        },
        {
          "internalType": "uint32",
          "name": "cliffDuration",
          "type": "uint32"
        },
        {
          "internalType": "uint32",
          "name": "vestIntervalDays",
          "type": "uint32"
        },
        {
          "internalType": "bool",
          "name": "isActive",
          "type": "bool"
        },
        {
          "internalType": "bool",
          "name": "wasRevoked",
          "type": "bool"
        }
      ],
      "payable": false,
      "stateMutability": "view",
      "type": "function"
    },
    {
      "constant": false,
      "inputs": [],
      "name": "registerAccount",
      "outputs": [
        {
          "internalType": "bool",
          "name": "ok",
          "type": "bool"
        }
      ],
      "payable": false,
      "stateMutability": "nonpayable",
      "type": "function"
    },
    {
      "constant": true,
      "inputs": [
        {
          "internalType": "address",
          "name": "owner",
          "type": "address"
        },
        {
          "internalType": "address",
          "name": "spender",
          "type": "address"
        }
      ],
      "name": "allowance",
      "outputs": [
        {
          "internalType": "uint256",
          "name": "",
          "type": "uint256"
        }
      ],
      "payable": false,
      "stateMutability": "view",
      "type": "function"
    },
    {
      "constant": false,
      "inputs": [
        {
          "internalType": "address",
          "name": "newOwner",
          "type": "address"
        }
      ],
      "name": "transferOwnership",
      "outputs": [],
      "payable": false,
      "stateMutability": "nonpayable",
      "type": "function"
    },
    {
      "constant": false,
      "inputs": [
        {
          "internalType": "address",
          "name": "spender",
          "type": "address"
        },
        {
          "internalType": "uint256",
          "name": "value",
          "type": "uint256"
        }
      ],
      "name": "safeApprove",
      "outputs": [
        {
          "internalType": "bool",
          "name": "ok",
          "type": "bool"
        }
      ],
      "payable": false,
      "stateMutability": "nonpayable",
      "type": "function"
    },
    {
      "anonymous": false,
      "inputs": [
        {
          "indexed": true,
          "internalType": "address",
          "name": "grantor",
          "type": "address"
        },
        {
          "indexed": false,
          "internalType": "uint32",
          "name": "minStartDay",
          "type": "uint32"
        },
        {
          "indexed": false,
          "internalType": "uint32",
          "name": "maxStartDay",
          "type": "uint32"
        },
        {
          "indexed": false,
          "internalType": "uint32",
          "name": "expirationDay",
          "type": "uint32"
        }
      ],
      "name": "GrantorRestrictionsSet",
      "type": "event"
    },
    {
      "anonymous": false,
      "inputs": [
        {
          "indexed": true,
          "internalType": "address",
          "name": "vestingLocation",
          "type": "address"
        },
        {
          "indexed": false,
          "internalType": "uint32",
          "name": "cliffDuration",
          "type": "uint32"
        },
        {
          "indexed": true,
          "internalType": "uint32",
          "name": "duration",
          "type": "uint32"
        },
        {
          "indexed": false,
          "internalType": "uint32",
          "name": "interval",
          "type": "uint32"
        },
        {
          "indexed": true,
          "internalType": "bool",
          "name": "isRevocable",
          "type": "bool"
        }
      ],
      "name": "VestingScheduleCreated",
      "type": "event"
    },
    {
      "anonymous": false,
      "inputs": [
        {
          "indexed": true,
          "internalType": "address",
          "name": "beneficiary",
          "type": "address"
        },
        {
          "indexed": true,
          "internalType": "uint256",
          "name": "vestingAmount",
          "type": "uint256"
        },
        {
          "indexed": false,
          "internalType": "uint32",
          "name": "startDay",
          "type": "uint32"
        },
        {
          "indexed": false,
          "internalType": "address",
          "name": "vestingLocation",
          "type": "address"
        },
        {
          "indexed": true,
          "internalType": "address",
          "name": "grantor",
          "type": "address"
        }
      ],
      "name": "VestingTokensGranted",
      "type": "event"
    },
    {
      "anonymous": false,
      "inputs": [
        {
          "indexed": true,
          "internalType": "address",
          "name": "grantHolder",
          "type": "address"
        },
        {
          "indexed": true,
          "internalType": "uint32",
          "name": "onDay",
          "type": "uint32"
        }
      ],
      "name": "GrantRevoked",
      "type": "event"
    },
    {
      "anonymous": false,
      "inputs": [
        {
          "indexed": true,
          "internalType": "address",
          "name": "account",
          "type": "address"
        }
      ],
      "name": "GrantorAdded",
      "type": "event"
    },
    {
      "anonymous": false,
      "inputs": [
        {
          "indexed": true,
          "internalType": "address",
          "name": "account",
          "type": "address"
        }
      ],
      "name": "GrantorRemoved",
      "type": "event"
    },
    {
      "anonymous": false,
      "inputs": [
        {
          "indexed": true,
          "internalType": "address",
          "name": "account",
          "type": "address"
        }
      ],
      "name": "AccountRegistered",
      "type": "event"
    },
    {
      "anonymous": false,
      "inputs": [
        {
          "indexed": true,
          "internalType": "address",
          "name": "previousOwner",
          "type": "address"
        },
        {
          "indexed": true,
          "internalType": "address",
          "name": "newOwner",
          "type": "address"
        }
      ],
      "name": "OwnershipTransferred",
      "type": "event"
    },
    {
      "anonymous": false,
      "inputs": [
        {
          "indexed": true,
          "internalType": "address",
          "name": "from",
          "type": "address"
        },
        {
          "indexed": true,
          "internalType": "address",
          "name": "to",
          "type": "address"
        },
        {
          "indexed": false,
          "internalType": "uint256",
          "name": "value",
          "type": "uint256"
        }
      ],
      "name": "Transfer",
      "type": "event"
    },
    {
      "anonymous": false,
      "inputs": [
        {
          "indexed": true,
          "internalType": "address",
          "name": "owner",
          "type": "address"
        },
        {
          "indexed": true,
          "internalType": "address",
          "name": "spender",
          "type": "address"
        },
        {
          "indexed": false,
          "internalType": "uint256",
          "name": "value",
          "type": "uint256"
        }
      ],
      "name": "Approval",
      "type": "event"
    },
    {
      "constant": false,
      "inputs": [
        {
          "internalType": "address",
          "name": "grantor",
          "type": "address"
        },
        {
          "internalType": "uint32",
          "name": "minStartDay",
          "type": "uint32"
        },
        {
          "internalType": "uint32",
          "name": "maxStartDay",
          "type": "uint32"
        },
        {
          "internalType": "uint32",
          "name": "expirationDay",
          "type": "uint32"
        }
      ],
      "name": "setRestrictions",
      "outputs": [
        {
          "internalType": "bool",
          "name": "ok",
          "type": "bool"
        }
      ],
      "payable": false,
      "stateMutability": "nonpayable",
      "type": "function"
    },
    {
      "constant": false,
      "inputs": [
        {
          "internalType": "address",
          "name": "grantor",
          "type": "address"
        },
        {
          "internalType": "uint32",
          "name": "duration",
          "type": "uint32"
        },
        {
          "internalType": "uint32",
          "name": "cliffDuration",
          "type": "uint32"
        },
        {
          "internalType": "uint32",
          "name": "interval",
          "type": "uint32"
        },
        {
          "internalType": "bool",
          "name": "isRevocable",
          "type": "bool"
        }
      ],
      "name": "setGrantorVestingSchedule",
      "outputs": [
        {
          "internalType": "bool",
          "name": "ok",
          "type": "bool"
        }
      ],
      "payable": false,
      "stateMutability": "nonpayable",
      "type": "function"
    },
    {
      "constant": false,
      "inputs": [
        {
          "internalType": "address",
          "name": "beneficiary",
          "type": "address"
        },
        {
          "internalType": "uint256",
          "name": "totalAmount",
          "type": "uint256"
        },
        {
          "internalType": "uint256",
          "name": "vestingAmount",
          "type": "uint256"
        },
        {
          "internalType": "uint32",
          "name": "startDay",
          "type": "uint32"
        }
      ],
      "name": "grantUniformVestingTokens",
      "outputs": [
        {
          "internalType": "bool",
          "name": "ok",
          "type": "bool"
        }
      ],
      "payable": false,
      "stateMutability": "nonpayable",
      "type": "function"
    },
    {
      "constant": false,
      "inputs": [
        {
          "internalType": "address",
          "name": "beneficiary",
          "type": "address"
        },
        {
          "internalType": "uint256",
          "name": "totalAmount",
          "type": "uint256"
        },
        {
          "internalType": "uint256",
          "name": "vestingAmount",
          "type": "uint256"
        },
        {
          "internalType": "uint32",
          "name": "startDay",
          "type": "uint32"
        }
      ],
      "name": "safeGrantUniformVestingTokens",
      "outputs": [
        {
          "internalType": "bool",
          "name": "ok",
          "type": "bool"
        }
      ],
      "payable": false,
      "stateMutability": "nonpayable",
      "type": "function"
    }
  ],
  "bytecode": "0x608060405262000014620000fb60201b60201c565b600360006101000a81548173ffffffffffffffffffffffffffffffffffffffff021916908373ffffffffffffffffffffffffffffffffffffffff160217905550600360009054906101000a900473ffffffffffffffffffffffffffffffffffffffff1673ffffffffffffffffffffffffffffffffffffffff16600073ffffffffffffffffffffffffffffffffffffffff167f8be0079c531659141344cd1fd0a4f28419497f9722a3daafe3b4186f6b6457e060405160405180910390a3620000e16200010360201b60201c565b50620000f5336000620001a760201b60201c565b6200045f565b600033905090565b60006001600460003373ffffffffffffffffffffffffffffffffffffffff1673ffffffffffffffffffffffffffffffffffffffff16815260200190815260200160002060006101000a81548160ff0219169083151502179055503373ffffffffffffffffffffffffffffffffffffffff167fcd822dc9688e20acea68724a2fbcfe4f3e526d20ecaa37b18fe3047ab377d6a560405160405180910390a26001905090565b600073ffffffffffffffffffffffffffffffffffffffff168273ffffffffffffffffffffffffffffffffffffffff161415620001e257600080fd5b620001fd8260056200029b60201b62004a291790919060201c565b80600660008473ffffffffffffffffffffffffffffffffffffffff1673ffffffffffffffffffffffffffffffffffffffff16815260200190815260200160002060006101000a81548160ff0219169083151502179055508173ffffffffffffffffffffffffffffffffffffffff167f614c7c37719098320f845a142223983b9adcc4c3f2663971d5b0eb4c661a24e760405160405180910390a25050565b620002ad82826200037f60201b60201c565b1562000321576040517f08c379a000000000000000000000000000000000000000000000000000000000815260040180806020018281038252601f8152602001807f526f6c65733a206163636f756e7420616c72656164792068617320726f6c650081525060200191505060405180910390fd5b60018260000160008373ffffffffffffffffffffffffffffffffffffffff1673ffffffffffffffffffffffffffffffffffffffff16815260200190815260200160002060006101000a81548160ff0219169083151502179055505050565b60008073ffffffffffffffffffffffffffffffffffffffff168273ffffffffffffffffffffffffffffffffffffffff16141562000408576040517f08c379a0000000000000000000000000000000000000000000000000000000008152600401808060200182810382526022815260200180620053e86022913960400191505060405180910390fd5b8260000160008373ffffffffffffffffffffffffffffffffffffffff1673ffffffffffffffffffffffffffffffffffffffff16815260200190815260200160002060009054906101000a900460ff16905092915050565b614f79806200046f6000396000f3fe608060405234801561001057600080fd5b50600436106101f05760003560e01c8063715018a61161010f578063b74e452b116100a2578063dd62ed3e11610071578063dd62ed3e14610d83578063f2fde38b14610dfb578063fbc6d1cb14610e3f578063fd1154c214610ea5576101f0565b8063b74e452b14610c03578063c3c5a54714610c2d578063d56ad0ba14610c89578063d9f226e914610d61576101f0565b806399ad427b116100de57806399ad427b14610a21578063a457c2d714610aad578063a9059cbb14610b13578063acc27b9814610b79576101f0565b8063715018a6146108ee5780637af023a9146108f85780638da5cb5b146109b55780638f32d59b146109ff576101f0565b80633d3b993c1161018757806344e393cb1161015657806344e393cb146107525780636d589d64146107a25780636d71a9c61461083a57806370a0823114610896576101f0565b80633d3b993c1461052957806341d5f619146105a9578063423f6cef1461066657806342842e0e146106cc576101f0565b806323b872dd116101c357806323b872dd146103415780632455a035146103c7578063332cc9c61461047f57806339509351146104c3576101f0565b8063095ea7b3146101f557806318160ddd1461025b578063190de9f7146102795780631bd2cf38146102d5575b600080fd5b6102416004803603604081101561020b57600080fd5b81019080803573ffffffffffffffffffffffffffffffffffffffff16906020019092919080359060200190929190505050610f25565b604051808215151515815260200191505060405180910390f35b610263611077565b6040518082815260200191505060405180910390f35b6102bb6004803603602081101561028f57600080fd5b81019080803573ffffffffffffffffffffffffffffffffffffffff169060200190929190505050611081565b604051808215151515815260200191505060405180910390f35b610327600480360360408110156102eb57600080fd5b81019080803573ffffffffffffffffffffffffffffffffffffffff169060200190929190803563ffffffff16906020019092919050505061109e565b604051808215151515815260200191505060405180910390f35b6103ad6004803603606081101561035757600080fd5b81019080803573ffffffffffffffffffffffffffffffffffffffff169060200190929190803573ffffffffffffffffffffffffffffffffffffffff1690602001909291908035906020019092919050505061167e565b604051808215151515815260200191505060405180910390f35b6103f9600480360360208110156103dd57600080fd5b81019080803563ffffffff169060200190929190505050611757565b604051808a81526020018981526020018881526020018763ffffffff1663ffffffff1681526020018663ffffffff1663ffffffff1681526020018563ffffffff1663ffffffff1681526020018463ffffffff1663ffffffff1681526020018315151515815260200182151515158152602001995050505050505050505060405180910390f35b6104c16004803603602081101561049557600080fd5b81019080803573ffffffffffffffffffffffffffffffffffffffff16906020019092919050505061178e565b005b61050f600480360360408110156104d957600080fd5b81019080803573ffffffffffffffffffffffffffffffffffffffff16906020019092919080359060200190929190505050611814565b604051808215151515815260200191505060405180910390f35b61058f6004803603608081101561053f57600080fd5b81019080803573ffffffffffffffffffffffffffffffffffffffff1690602001909291908035906020019092919080359060200190929190803563ffffffff1690602001909291905050506118c7565b604051808215151515815260200191505060405180910390f35b61064c60048036036101008110156105c057600080fd5b81019080803573ffffffffffffffffffffffffffffffffffffffff1690602001909291908035906020019092919080359060200190929190803563ffffffff169060200190929190803563ffffffff169060200190929190803563ffffffff169060200190929190803563ffffffff169060200190929190803515159060200190929190505050611c02565b604051808215151515815260200191505060405180910390f35b6106b26004803603604081101561067c57600080fd5b81019080803573ffffffffffffffffffffffffffffffffffffffff16906020019092919080359060200190929190505050611d1a565b604051808215151515815260200191505060405180910390f35b610738600480360360608110156106e257600080fd5b81019080803573ffffffffffffffffffffffffffffffffffffffff169060200190929190803573ffffffffffffffffffffffffffffffffffffffff16906020019092919080359060200190929190505050611dae565b604051808215151515815260200191505060405180910390f35b6107a06004803603604081101561076857600080fd5b81019080803573ffffffffffffffffffffffffffffffffffffffff169060200190929190803515159060200190929190505050611e44565b005b610820600480360360a08110156107b857600080fd5b81019080803573ffffffffffffffffffffffffffffffffffffffff169060200190929190803563ffffffff169060200190929190803563ffffffff169060200190929190803563ffffffff169060200190929190803515159060200190929190505050611ecc565b604051808215151515815260200191505060405180910390f35b61087c6004803603602081101561085057600080fd5b81019080803573ffffffffffffffffffffffffffffffffffffffff1690602001909291905050506120d7565b604051808215151515815260200191505060405180910390f35b6108d8600480360360208110156108ac57600080fd5b81019080803573ffffffffffffffffffffffffffffffffffffffff16906020019092919050505061213e565b6040518082815260200191505060405180910390f35b6108f6612186565b005b61099b600480360361010081101561090f57600080fd5b81019080803573ffffffffffffffffffffffffffffffffffffffff1690602001909291908035906020019092919080359060200190929190803563ffffffff169060200190929190803563ffffffff169060200190929190803563ffffffff169060200190929190803563ffffffff169060200190929190803515159060200190929190505050612276565b604051808215151515815260200191505060405180910390f35b6109bd6123e3565b604051808273ffffffffffffffffffffffffffffffffffffffff1673ffffffffffffffffffffffffffffffffffffffff16815260200191505060405180910390f35b610a0761240d565b604051808215151515815260200191505060405180910390f35b610a9360048036036080811015610a3757600080fd5b81019080803573ffffffffffffffffffffffffffffffffffffffff169060200190929190803563ffffffff169060200190929190803563ffffffff169060200190929190803563ffffffff16906020019092919050505061246c565b604051808215151515815260200191505060405180910390f35b610af960048036036040811015610ac357600080fd5b81019080803573ffffffffffffffffffffffffffffffffffffffff169060200190929190803590602001909291905050506127b0565b604051808215151515815260200191505060405180910390f35b610b5f60048036036040811015610b2957600080fd5b81019080803573ffffffffffffffffffffffffffffffffffffffff1690602001909291908035906020019092919050505061287d565b604051808215151515815260200191505060405180910390f35b610bbb60048036036020811015610b8f57600080fd5b81019080803573ffffffffffffffffffffffffffffffffffffffff1690602001909291905050506129cf565b604051808463ffffffff1663ffffffff1681526020018363ffffffff1663ffffffff1681526020018263ffffffff1663ffffffff168152602001935050505060405180910390f35b610c0b612b8d565b604051808263ffffffff1663ffffffff16815260200191505060405180910390f35b610c6f60048036036020811015610c4357600080fd5b81019080803573ffffffffffffffffffffffffffffffffffffffff169060200190929190505050612ba7565b604051808215151515815260200191505060405180910390f35b610cdb60048036036040811015610c9f57600080fd5b81019080803573ffffffffffffffffffffffffffffffffffffffff169060200190929190803563ffffffff169060200190929190505050612bfd565b604051808a81526020018981526020018881526020018763ffffffff1663ffffffff1681526020018663ffffffff1663ffffffff1681526020018563ffffffff1663ffffffff1681526020018463ffffffff1663ffffffff1681526020018315151515815260200182151515158152602001995050505050505050505060405180910390f35b610d69612e2f565b604051808215151515815260200191505060405180910390f35b610de560048036036040811015610d9957600080fd5b81019080803573ffffffffffffffffffffffffffffffffffffffff169060200190929190803573ffffffffffffffffffffffffffffffffffffffff169060200190929190505050612ed3565b6040518082815260200191505060405180910390f35b610e3d60048036036020811015610e1157600080fd5b81019080803573ffffffffffffffffffffffffffffffffffffffff169060200190929190505050612f5a565b005b610e8b60048036036040811015610e5557600080fd5b81019080803573ffffffffffffffffffffffffffffffffffffffff16906020019092919080359060200190929190505050612ff4565b604051808215151515815260200191505060405180910390f35b610f0b60048036036080811015610ebb57600080fd5b81019080803573ffffffffffffffffffffffffffffffffffffffff1690602001909291908035906020019092919080359060200190929190803563ffffffff169060200190929190505050613088565b604051808215151515815260200191505060405180910390f35b60003382610f3b8282610f36612b8d565b613346565b81610f458461213e565b10610f85576040518060400160405280601981526020017f696e73756666696369656e74207665737465642066756e647300000000000000815250610fbc565b6040518060400160405280601281526020017f696e73756666696369656e742066756e647300000000000000000000000000008152505b90611062576040517f08c379a00000000000000000000000000000000000000000000000000000000081526004018080602001828103825283818151815260200191508051906020019080838360005b8381101561102757808201518184015260208101905061100c565b50505050905090810190601f1680156110545780820380516001836020036101000a031916815260200191505b509250505060405180910390fd5b5061106d858561335e565b9250505092915050565b6000600254905090565b600061109782600561337c90919063ffffffff16565b9050919050565b60006110a933611081565b61111b576040517f08c379a000000000000000000000000000000000000000000000000000000000815260040180806020018281038252600b8152602001807f6f6e6c794772616e746f7200000000000000000000000000000000000000000081525060200191505060405180910390fd5b6000600860008573ffffffffffffffffffffffffffffffffffffffff1673ffffffffffffffffffffffffffffffffffffffff16815260200190815260200160002090506000600760008360020160009054906101000a900473ffffffffffffffffffffffffffffffffffffffff1673ffffffffffffffffffffffffffffffffffffffff1673ffffffffffffffffffffffffffffffffffffffff168152602001908152602001600020905060006111cf6123e3565b73ffffffffffffffffffffffffffffffffffffffff163373ffffffffffffffffffffffffffffffffffffffff16148061125757508260030160009054906101000a900473ffffffffffffffffffffffffffffffffffffffff1673ffffffffffffffffffffffffffffffffffffffff163373ffffffffffffffffffffffffffffffffffffffff16145b6112c9576040517f08c379a000000000000000000000000000000000000000000000000000000000815260040180806020018281038252600b8152602001807f6e6f7420616c6c6f77656400000000000000000000000000000000000000000081525060200191505060405180910390fd5b8260000160009054906101000a900460ff1661134d576040517f08c379a000000000000000000000000000000000000000000000000000000000815260040180806020018281038252601a8152602001807f6e6f206163746976652076657374696e67207363686564756c6500000000000081525060200191505060405180910390fd5b8160000160019054906101000a900460ff166113d1576040517f08c379a000000000000000000000000000000000000000000000000000000000815260040180806020018281038252600b8152602001807f69727265766f6361626c6500000000000000000000000000000000000000000081525060200191505060405180910390fd5b8160000160069054906101000a900463ffffffff168360000160029054906101000a900463ffffffff160163ffffffff168563ffffffff16111561147d576040517f08c379a00000000000000000000000000000000000000000000000000000000081526004018080602001828103825260098152602001807f6e6f20656666656374000000000000000000000000000000000000000000000081525060200191505060405180910390fd5b611485612b8d565b63ffffffff168563ffffffff161015611506576040517f08c379a000000000000000000000000000000000000000000000000000000000815260040180806020018281038252601d8152602001807f63616e6e6f74207265766f6b652076657374656420686f6c64696e677300000081525060200191505060405180910390fd5b611510868661345a565b9050611541868460030160009054906101000a900473ffffffffffffffffffffffffffffffffffffffff1683613694565b611570868460030160009054906101000a900473ffffffffffffffffffffffffffffffffffffffff168361167e565b506001600860008873ffffffffffffffffffffffffffffffffffffffff1673ffffffffffffffffffffffffffffffffffffffff16815260200190815260200160002060000160016101000a81548160ff0219169083151502179055506000600860008873ffffffffffffffffffffffffffffffffffffffff1673ffffffffffffffffffffffffffffffffffffffff16815260200190815260200160002060000160006101000a81548160ff0219169083151502179055508463ffffffff168673ffffffffffffffffffffffffffffffffffffffff167f906c0c4c98565a396c542d9102cae7a794e84af6763123e068a1b277333bf4a460405160405180910390a36001935050505092915050565b600061168b84848461388b565b61174c84611697613b41565b61174785604051806060016040528060288152602001614e6a60289139600160008b73ffffffffffffffffffffffffffffffffffffffff1673ffffffffffffffffffffffffffffffffffffffff16815260200190815260200160002060006116fd613b41565b73ffffffffffffffffffffffffffffffffffffffff1673ffffffffffffffffffffffffffffffffffffffff16815260200190815260200160002054613b499092919063ffffffff16565b613694565b600190509392505050565b600080600080600080600080600061176f338b612bfd565b9850985098509850985098509850985098509193959799909294969850565b61179661240d565b611808576040517f08c379a00000000000000000000000000000000000000000000000000000000081526004018080602001828103825260208152602001807f4f776e61626c653a2063616c6c6572206973206e6f7420746865206f776e657281525060200191505060405180910390fd5b61181181613c09565b50565b60006118bd611821613b41565b846118b88560016000611832613b41565b73ffffffffffffffffffffffffffffffffffffffff1673ffffffffffffffffffffffffffffffffffffffff16815260200190815260200160002060008973ffffffffffffffffffffffffffffffffffffffff1673ffffffffffffffffffffffffffffffffffffffff16815260200190815260200160002054613c9d90919063ffffffff16565b613694565b6001905092915050565b6000336118d381613d25565b611945576040517f08c379a00000000000000000000000000000000000000000000000000000000081526004018080602001828103825260198152602001807f6772616e746f72206163636f756e74206e6f742072656164790000000000000081525060200191505060405180910390fd5b826000600960003373ffffffffffffffffffffffffffffffffffffffff1673ffffffffffffffffffffffffffffffffffffffff16815260200190815260200160002090508060000160009054906101000a900460ff16611a0d576040517f08c379a00000000000000000000000000000000000000000000000000000000081526004018080602001828103825260168152602001807f736574207265737472696374696f6e732066697273740000000000000000000081525060200191505060405180910390fd5b8060000160019054906101000a900463ffffffff1663ffffffff168263ffffffff1610158015611a5c57508060000160059054906101000a900463ffffffff1663ffffffff168263ffffffff16105b611ace576040517f08c379a00000000000000000000000000000000000000000000000000000000081526004018080602001828103825260128152602001807f737461727444617920746f6f206561726c79000000000000000000000000000081525060200191505060405180910390fd5b8060000160099054906101000a900463ffffffff1663ffffffff16611af1612b8d565b63ffffffff1610611b6a576040517f08c379a000000000000000000000000000000000000000000000000000000000815260040180806020018281038252600f8152602001807f6772616e746f722065787069726564000000000000000000000000000000000081525060200191505060405180910390fd5b87611b7481613d48565b611be6576040517f08c379a00000000000000000000000000000000000000000000000000000000081526004018080602001828103825260168152602001807f6163636f756e74206e6f7420726567697374657265640000000000000000000081525060200191505060405180910390fd5b611bf4898989893333613dd4565b945050505050949350505050565b6000611c0d33611081565b611c7f576040517f08c379a000000000000000000000000000000000000000000000000000000000815260040180806020018281038252600b8152602001807f6f6e6c794772616e746f7200000000000000000000000000000000000000000081525060200191505060405180910390fd5b88611c8981613d48565b611cfb576040517f08c379a00000000000000000000000000000000000000000000000000000000081526004018080602001828103825260168152602001807f6163636f756e74206e6f7420726567697374657265640000000000000000000081525060200191505060405180910390fd5b611d0b8a8a8a8a8a8a8a8a612276565b91505098975050505050505050565b600082611d2681613d48565b611d98576040517f08c379a00000000000000000000000000000000000000000000000000000000081526004018080602001828103825260168152602001807f6163636f756e74206e6f7420726567697374657265640000000000000000000081525060200191505060405180910390fd5b611da2848461287d565b50600191505092915050565b600082611dba81613d48565b611e2c576040517f08c379a00000000000000000000000000000000000000000000000000000000081526004018080602001828103825260168152602001807f6163636f756e74206e6f7420726567697374657265640000000000000000000081525060200191505060405180910390fd5b611e3785858561167e565b5060019150509392505050565b611e4c61240d565b611ebe576040517f08c379a00000000000000000000000000000000000000000000000000000000081526004018080602001828103825260208152602001807f4f776e61626c653a2063616c6c6572206973206e6f7420746865206f776e657281525060200191505060405180910390fd5b611ec88282614267565b5050565b6000611ed661240d565b611f48576040517f08c379a00000000000000000000000000000000000000000000000000000000081526004018080602001828103825260208152602001807f4f776e61626c653a2063616c6c6572206973206e6f7420746865206f776e657281525060200191505060405180910390fd5b85611f5281613d48565b611fc4576040517f08c379a00000000000000000000000000000000000000000000000000000000081526004018080602001828103825260168152602001807f6163636f756e74206e6f7420726567697374657265640000000000000000000081525060200191505060405180910390fd5b611fcd876120d7565b61203f576040517f08c379a00000000000000000000000000000000000000000000000000000000081526004018080602001828103825260148152602001807f756e69666f726d206772616e746f72206f6e6c7900000000000000000000000081525060200191505060405180910390fd5b61204887614353565b156120bb576040517f08c379a00000000000000000000000000000000000000000000000000000000081526004018080602001828103825260178152602001807f7363686564756c6520616c72656164792065786973747300000000000000000081525060200191505060405180910390fd5b6120c887868887876143ac565b50600191505095945050505050565b60006120e282611081565b80156121375750600660008373ffffffffffffffffffffffffffffffffffffffff1673ffffffffffffffffffffffffffffffffffffffff16815260200190815260200160002060009054906101000a900460ff165b9050919050565b60008060008373ffffffffffffffffffffffffffffffffffffffff1673ffffffffffffffffffffffffffffffffffffffff168152602001908152602001600020549050919050565b61218e61240d565b612200576040517f08c379a00000000000000000000000000000000000000000000000000000000081526004018080602001828103825260208152602001807f4f776e61626c653a2063616c6c6572206973206e6f7420746865206f776e657281525060200191505060405180910390fd5b6000612274576040517f08c379a00000000000000000000000000000000000000000000000000000000081526004018080602001828103825260098152602001807f666f7262696464656e000000000000000000000000000000000000000000000081525060200191505060405180910390fd5b565b600061228133611081565b6122f3576040517f08c379a000000000000000000000000000000000000000000000000000000000815260040180806020018281038252600b8152602001807f6f6e6c794772616e746f7200000000000000000000000000000000000000000081525060200191505060405180910390fd5b600860008a73ffffffffffffffffffffffffffffffffffffffff1673ffffffffffffffffffffffffffffffffffffffff16815260200190815260200160002060000160009054906101000a900460ff16156123b6576040517f08c379a00000000000000000000000000000000000000000000000000000000081526004018080602001828103825260148152602001807f6772616e7420616c72656164792065786973747300000000000000000000000081525060200191505060405180910390fd5b6123c389858786866143ac565b506123d2898989898d33613dd4565b506001905098975050505050505050565b6000600360009054906101000a900473ffffffffffffffffffffffffffffffffffffffff16905090565b6000600360009054906101000a900473ffffffffffffffffffffffffffffffffffffffff1673ffffffffffffffffffffffffffffffffffffffff16612450613b41565b73ffffffffffffffffffffffffffffffffffffffff1614905090565b600061247661240d565b6124e8576040517f08c379a00000000000000000000000000000000000000000000000000000000081526004018080602001828103825260208152602001807f4f776e61626c653a2063616c6c6572206973206e6f7420746865206f776e657281525060200191505060405180910390fd5b846124f281613d48565b612564576040517f08c379a00000000000000000000000000000000000000000000000000000000081526004018080602001828103825260168152602001807f6163636f756e74206e6f7420726567697374657265640000000000000000000081525060200191505060405180910390fd5b61256d866120d7565b801561258457508463ffffffff168463ffffffff16115b80156125a25750612593612b8d565b63ffffffff168363ffffffff16115b612614576040517f08c379a000000000000000000000000000000000000000000000000000000000815260040180806020018281038252600e8152602001807f696e76616c696420706172616d7300000000000000000000000000000000000081525060200191505060405180910390fd5b60405180608001604052806001151581526020018663ffffffff1681526020018563ffffffff1681526020018463ffffffff16815250600960008873ffffffffffffffffffffffffffffffffffffffff1673ffffffffffffffffffffffffffffffffffffffff16815260200190815260200160002060008201518160000160006101000a81548160ff02191690831515021790555060208201518160000160016101000a81548163ffffffff021916908363ffffffff16021790555060408201518160000160056101000a81548163ffffffff021916908363ffffffff16021790555060608201518160000160096101000a81548163ffffffff021916908363ffffffff1602179055509050508573ffffffffffffffffffffffffffffffffffffffff167fd204f080300249d73110cd2c2e8d720f0362e94b8e0f1b797ac249acca176551868686604051808463ffffffff1663ffffffff1681526020018363ffffffff1663ffffffff1681526020018263ffffffff1663ffffffff168152602001935050505060405180910390a26001915050949350505050565b60006128736127bd613b41565b8461286e85604051806060016040528060258152602001614f2060259139600160006127e7613b41565b73ffffffffffffffffffffffffffffffffffffffff1673ffffffffffffffffffffffffffffffffffffffff16815260200190815260200160002060008a73ffffffffffffffffffffffffffffffffffffffff1673ffffffffffffffffffffffffffffffffffffffff16815260200190815260200160002054613b499092919063ffffffff16565b613694565b6001905092915050565b60003382612893828261288e612b8d565b613346565b8161289d8461213e565b106128dd576040518060400160405280601981526020017f696e73756666696369656e74207665737465642066756e647300000000000000815250612914565b6040518060400160405280601281526020017f696e73756666696369656e742066756e647300000000000000000000000000008152505b906129ba576040517f08c379a00000000000000000000000000000000000000000000000000000000081526004018080602001828103825283818151815260200191508051906020019080838360005b8381101561297f578082015181840152602081019050612964565b50505050905090810190601f1680156129ac5780820380516001836020036101000a031916815260200191505b509250505060405180910390fd5b506129c585856146d3565b9250505092915050565b6000806000836129de33611081565b80612a1457508073ffffffffffffffffffffffffffffffffffffffff163373ffffffffffffffffffffffffffffffffffffffff16145b612a86576040517f08c379a00000000000000000000000000000000000000000000000000000000081526004018080602001828103825260118152602001807f6f6e6c794772616e746f724f7253656c6600000000000000000000000000000081525060200191505060405180910390fd5b600760008673ffffffffffffffffffffffffffffffffffffffff1673ffffffffffffffffffffffffffffffffffffffff16815260200190815260200160002060000160069054906101000a900463ffffffff16600760008773ffffffffffffffffffffffffffffffffffffffff1673ffffffffffffffffffffffffffffffffffffffff16815260200190815260200160002060000160029054906101000a900463ffffffff16600760008873ffffffffffffffffffffffffffffffffffffffff1673ffffffffffffffffffffffffffffffffffffffff168152602001908152602001600020600001600a9054906101000a900463ffffffff16935093509350509193909250565b60006201518063ffffffff164281612ba157fe5b04905090565b6000600460008373ffffffffffffffffffffffffffffffffffffffff1673ffffffffffffffffffffffffffffffffffffffff16815260200190815260200160002060009054906101000a900460ff169050919050565b60008060008060008060008060008a612c1533611081565b80612c4b57508073ffffffffffffffffffffffffffffffffffffffff163373ffffffffffffffffffffffffffffffffffffffff16145b612cbd576040517f08c379a00000000000000000000000000000000000000000000000000000000081526004018080602001828103825260118152602001807f6f6e6c794772616e746f724f7253656c6600000000000000000000000000000081525060200191505060405180910390fd5b6000600860008e73ffffffffffffffffffffffffffffffffffffffff1673ffffffffffffffffffffffffffffffffffffffff16815260200190815260200160002090506000600760008360020160009054906101000a900473ffffffffffffffffffffffffffffffffffffffff1673ffffffffffffffffffffffffffffffffffffffff1673ffffffffffffffffffffffffffffffffffffffff16815260200190815260200160002090506000612d738f8f61345a565b9050600083600101549050612d9182826146f190919063ffffffff16565b82828660000160029054906101000a900463ffffffff168660000160069054906101000a900463ffffffff168760000160029054906101000a900463ffffffff1688600001600a9054906101000a900463ffffffff168a60000160009054906101000a900460ff168b60000160019054906101000a900460ff169d509d509d509d509d509d509d509d509d5050505050509295985092959850929598565b60006001600460003373ffffffffffffffffffffffffffffffffffffffff1673ffffffffffffffffffffffffffffffffffffffff16815260200190815260200160002060006101000a81548160ff0219169083151502179055503373ffffffffffffffffffffffffffffffffffffffff167fcd822dc9688e20acea68724a2fbcfe4f3e526d20ecaa37b18fe3047ab377d6a560405160405180910390a26001905090565b6000600160008473ffffffffffffffffffffffffffffffffffffffff1673ffffffffffffffffffffffffffffffffffffffff16815260200190815260200160002060008373ffffffffffffffffffffffffffffffffffffffff1673ffffffffffffffffffffffffffffffffffffffff16815260200190815260200160002054905092915050565b612f6261240d565b612fd4576040517f08c379a00000000000000000000000000000000000000000000000000000000081526004018080602001828103825260208152602001807f4f776e61626c653a2063616c6c6572206973206e6f7420746865206f776e657281525060200191505060405180910390fd5b612fdd33613c09565b612fe68161473b565b612ff1816000614267565b50565b60008261300081613d48565b613072576040517f08c379a00000000000000000000000000000000000000000000000000000000081526004018080602001828103825260168152602001807f6163636f756e74206e6f7420726567697374657265640000000000000000000081525060200191505060405180910390fd5b61307c8484610f25565b50600191505092915050565b60003361309481613d25565b613106576040517f08c379a00000000000000000000000000000000000000000000000000000000081526004018080602001828103825260198152602001807f6772616e746f72206163636f756e74206e6f742072656164790000000000000081525060200191505060405180910390fd5b826000600960003373ffffffffffffffffffffffffffffffffffffffff1673ffffffffffffffffffffffffffffffffffffffff16815260200190815260200160002090508060000160009054906101000a900460ff166131ce576040517f08c379a00000000000000000000000000000000000000000000000000000000081526004018080602001828103825260168152602001807f736574207265737472696374696f6e732066697273740000000000000000000081525060200191505060405180910390fd5b8060000160019054906101000a900463ffffffff1663ffffffff168263ffffffff161015801561321d57508060000160059054906101000a900463ffffffff1663ffffffff168263ffffffff16105b61328f576040517f08c379a00000000000000000000000000000000000000000000000000000000081526004018080602001828103825260128152602001807f737461727444617920746f6f206561726c79000000000000000000000000000081525060200191505060405180910390fd5b8060000160099054906101000a900463ffffffff1663ffffffff166132b2612b8d565b63ffffffff161061332b576040517f08c379a000000000000000000000000000000000000000000000000000000000815260040180806020018281038252600f8152602001807f6772616e746f722065787069726564000000000000000000000000000000000081525060200191505060405180910390fd5b613339888888883333613dd4565b9350505050949350505050565b6000613352848361483e565b83111590509392505050565b600061337261336b613b41565b8484613694565b6001905092915050565b60008073ffffffffffffffffffffffffffffffffffffffff168273ffffffffffffffffffffffffffffffffffffffff161415613403576040517f08c379a0000000000000000000000000000000000000000000000000000000008152600401808060200182810382526022815260200180614e926022913960400191505060405180910390fd5b8260000160008373ffffffffffffffffffffffffffffffffffffffff1673ffffffffffffffffffffffffffffffffffffffff16815260200190815260200160002060009054906101000a900460ff16905092915050565b600080600860008573ffffffffffffffffffffffffffffffffffffffff1673ffffffffffffffffffffffffffffffffffffffff16815260200190815260200160002090506000600760008360020160009054906101000a900473ffffffffffffffffffffffffffffffffffffffff1673ffffffffffffffffffffffffffffffffffffffff1673ffffffffffffffffffffffffffffffffffffffff1681526020019081526020016000209050600061351085614877565b90508260000160009054906101000a900460ff16158061356557508160000160029054906101000a900463ffffffff168360000160029054906101000a900463ffffffff160163ffffffff168163ffffffff16105b15613579578260010154935050505061368e565b8160000160069054906101000a900463ffffffff168360000160029054906101000a900463ffffffff160163ffffffff168163ffffffff16106135c2576000935050505061368e565b60008360000160029054906101000a900463ffffffff1682039050600083600001600a9054906101000a900463ffffffff1684600001600a9054906101000a900463ffffffff1663ffffffff168363ffffffff168161361d57fe5b04029050600061366c8560000160069054906101000a900463ffffffff1663ffffffff1661365e8463ffffffff16896001015461489c90919063ffffffff16565b61492290919063ffffffff16565b90506136858187600101546146f190919063ffffffff16565b96505050505050505b92915050565b600073ffffffffffffffffffffffffffffffffffffffff168373ffffffffffffffffffffffffffffffffffffffff16141561371a576040517f08c379a0000000000000000000000000000000000000000000000000000000008152600401808060200182810382526024815260200180614ed96024913960400191505060405180910390fd5b600073ffffffffffffffffffffffffffffffffffffffff168273ffffffffffffffffffffffffffffffffffffffff1614156137a0576040517f08c379a0000000000000000000000000000000000000000000000000000000008152600401808060200182810382526022815260200180614de06022913960400191505060405180910390fd5b80600160008573ffffffffffffffffffffffffffffffffffffffff1673ffffffffffffffffffffffffffffffffffffffff16815260200190815260200160002060008473ffffffffffffffffffffffffffffffffffffffff1673ffffffffffffffffffffffffffffffffffffffff168152602001908152602001600020819055508173ffffffffffffffffffffffffffffffffffffffff168373ffffffffffffffffffffffffffffffffffffffff167f8c5be1e5ebec7d5bd14f71427d1e84f3dd0314c0f7b2291e5b200ac8c7c3b925836040518082815260200191505060405180910390a3505050565b600073ffffffffffffffffffffffffffffffffffffffff168373ffffffffffffffffffffffffffffffffffffffff161415613911576040517f08c379a0000000000000000000000000000000000000000000000000000000008152600401808060200182810382526025815260200180614eb46025913960400191505060405180910390fd5b600073ffffffffffffffffffffffffffffffffffffffff168273ffffffffffffffffffffffffffffffffffffffff161415613997576040517f08c379a0000000000000000000000000000000000000000000000000000000008152600401808060200182810382526023815260200180614d976023913960400191505060405180910390fd5b613a0281604051806060016040528060268152602001614e02602691396000808773ffffffffffffffffffffffffffffffffffffffff1673ffffffffffffffffffffffffffffffffffffffff16815260200190815260200160002054613b499092919063ffffffff16565b6000808573ffffffffffffffffffffffffffffffffffffffff1673ffffffffffffffffffffffffffffffffffffffff16815260200190815260200160002081905550613a95816000808573ffffffffffffffffffffffffffffffffffffffff1673ffffffffffffffffffffffffffffffffffffffff16815260200190815260200160002054613c9d90919063ffffffff16565b6000808473ffffffffffffffffffffffffffffffffffffffff1673ffffffffffffffffffffffffffffffffffffffff168152602001908152602001600020819055508173ffffffffffffffffffffffffffffffffffffffff168373ffffffffffffffffffffffffffffffffffffffff167fddf252ad1be2c89b69c2b068fc378daa952ba7f163c4a11628f55a4df523b3ef836040518082815260200191505060405180910390a3505050565b600033905090565b6000838311158290613bf6576040517f08c379a00000000000000000000000000000000000000000000000000000000081526004018080602001828103825283818151815260200191508051906020019080838360005b83811015613bbb578082015181840152602081019050613ba0565b50505050905090810190601f168015613be85780820380516001836020036101000a031916815260200191505b509250505060405180910390fd5b5060008385039050809150509392505050565b600073ffffffffffffffffffffffffffffffffffffffff168173ffffffffffffffffffffffffffffffffffffffff161415613c4357600080fd5b613c5781600561496c90919063ffffffff16565b8073ffffffffffffffffffffffffffffffffffffffff167f33a8bb468e8361c5c40d643192eb6970b91cb87aa0200f8709f5b805087b905360405160405180910390a250565b600080828401905083811015613d1b576040517f08c379a000000000000000000000000000000000000000000000000000000000815260040180806020018281038252601b8152602001807f536166654d6174683a206164646974696f6e206f766572666c6f77000000000081525060200191505060405180910390fd5b8091505092915050565b6000613d30826120d7565b8015613d415750613d4082614353565b5b9050919050565b60003373ffffffffffffffffffffffffffffffffffffffff168273ffffffffffffffffffffffffffffffffffffffff161480613dcd5750600460008373ffffffffffffffffffffffffffffffffffffffff1673ffffffffffffffffffffffffffffffffffffffff16815260200190815260200160002060009054906101000a900460ff165b9050919050565b6000600860008873ffffffffffffffffffffffffffffffffffffffff1673ffffffffffffffffffffffffffffffffffffffff16815260200190815260200160002060000160009054906101000a900460ff1615613e99576040517f08c379a00000000000000000000000000000000000000000000000000000000081526004018080602001828103825260148152602001807f6772616e7420616c72656164792065786973747300000000000000000000000081525060200191505060405180910390fd5b858511158015613ea95750600085115b8015613edd57506201518063ffffffff1663386d438063ffffffff1681613ecc57fe5b0463ffffffff168463ffffffff1610155b8015613f155750620592bb6201518063ffffffff1663386d438063ffffffff1681613f0457fe5b040163ffffffff168463ffffffff16105b613f87576040517f08c379a00000000000000000000000000000000000000000000000000000000081526004018080602001828103825260168152602001807f696e76616c69642076657374696e6720706172616d730000000000000000000081525060200191505060405180910390fd5b613f9083614353565b614002576040517f08c379a00000000000000000000000000000000000000000000000000000000081526004018080602001828103825260188152602001807f6e6f20737563682076657374696e67207363686564756c65000000000000000081525060200191505060405180910390fd5b61400d82888861388b565b6040518060c001604052806001151581526020016000151581526020018563ffffffff1681526020018681526020018473ffffffffffffffffffffffffffffffffffffffff1681526020018373ffffffffffffffffffffffffffffffffffffffff16815250600860008973ffffffffffffffffffffffffffffffffffffffff1673ffffffffffffffffffffffffffffffffffffffff16815260200190815260200160002060008201518160000160006101000a81548160ff02191690831515021790555060208201518160000160016101000a81548160ff02191690831515021790555060408201518160000160026101000a81548163ffffffff021916908363ffffffff1602179055506060820151816001015560808201518160020160006101000a81548173ffffffffffffffffffffffffffffffffffffffff021916908373ffffffffffffffffffffffffffffffffffffffff16021790555060a08201518160030160006101000a81548173ffffffffffffffffffffffffffffffffffffffff021916908373ffffffffffffffffffffffffffffffffffffffff1602179055509050508173ffffffffffffffffffffffffffffffffffffffff16858873ffffffffffffffffffffffffffffffffffffffff167fce19dc9f3460f5845c81c7fa52526977d7e7275df4b1d0e40ea09653252e0c758787604051808363ffffffff1663ffffffff1681526020018273ffffffffffffffffffffffffffffffffffffffff1673ffffffffffffffffffffffffffffffffffffffff1681526020019250505060405180910390a4600190509695505050505050565b600073ffffffffffffffffffffffffffffffffffffffff168273ffffffffffffffffffffffffffffffffffffffff1614156142a157600080fd5b6142b5826005614a2990919063ffffffff16565b80600660008473ffffffffffffffffffffffffffffffffffffffff1673ffffffffffffffffffffffffffffffffffffffff16815260200190815260200160002060006101000a81548160ff0219169083151502179055508173ffffffffffffffffffffffffffffffffffffffff167f614c7c37719098320f845a142223983b9adcc4c3f2663971d5b0eb4c661a24e760405160405180910390a25050565b6000600760008373ffffffffffffffffffffffffffffffffffffffff1673ffffffffffffffffffffffffffffffffffffffff16815260200190815260200160002060000160009054906101000a900460ff169050919050565b6000808463ffffffff161180156143e257506064620592bb63ffffffff16816143d157fe5b0463ffffffff168463ffffffff1611155b80156143f957508363ffffffff168563ffffffff16105b801561440c575060018363ffffffff1610155b61447e576040517f08c379a00000000000000000000000000000000000000000000000000000000081526004018080602001828103825260188152602001807f696e76616c69642076657374696e67207363686564756c65000000000000000081525060200191505060405180910390fd5b60008363ffffffff168563ffffffff168161449557fe5b0663ffffffff161480156144c4575060008363ffffffff168663ffffffff16816144bb57fe5b0663ffffffff16145b614519576040517f08c379a0000000000000000000000000000000000000000000000000000000008152600401808060200182810382526023815260200180614efd6023913960400191505060405180910390fd5b6040518060a0016040528060011515815260200183151581526020018663ffffffff1681526020018563ffffffff1681526020018463ffffffff16815250600760008873ffffffffffffffffffffffffffffffffffffffff1673ffffffffffffffffffffffffffffffffffffffff16815260200190815260200160002060008201518160000160006101000a81548160ff02191690831515021790555060208201518160000160016101000a81548160ff02191690831515021790555060408201518160000160026101000a81548163ffffffff021916908363ffffffff16021790555060608201518160000160066101000a81548163ffffffff021916908363ffffffff160217905550608082015181600001600a6101000a81548163ffffffff021916908363ffffffff1602179055509050508115158463ffffffff168773ffffffffffffffffffffffffffffffffffffffff167fb84219eaee5910cc5311a393fbd4287b14bc791973b97f64d4b61b6d8554adc78887604051808363ffffffff1663ffffffff1681526020018263ffffffff1663ffffffff1681526020019250505060405180910390a46001905095945050505050565b60006146e76146e0613b41565b848461388b565b6001905092915050565b600061473383836040518060400160405280601e81526020017f536166654d6174683a207375627472616374696f6e206f766572666c6f770000815250613b49565b905092915050565b8061474581613d48565b6147b7576040517f08c379a00000000000000000000000000000000000000000000000000000000081526004018080602001828103825260168152602001807f6163636f756e74206e6f7420726567697374657265640000000000000000000081525060200191505060405180910390fd5b6147bf61240d565b614831576040517f08c379a00000000000000000000000000000000000000000000000000000000081526004018080602001828103825260208152602001807f4f776e61626c653a2063616c6c6572206973206e6f7420746865206f776e657281525060200191505060405180910390fd5b61483a82614b04565b5050565b60008061484a8461213e565b9050600061486a61485b868661345a565b836146f190919063ffffffff16565b9050809250505092915050565b6000808263ffffffff161461488c5781614895565b614894612b8d565b5b9050919050565b6000808314156148af576000905061491c565b60008284029050828482816148c057fe5b0414614917576040517f08c379a0000000000000000000000000000000000000000000000000000000008152600401808060200182810382526021815260200180614e496021913960400191505060405180910390fd5b809150505b92915050565b600061496483836040518060400160405280601a81526020017f536166654d6174683a206469766973696f6e206279207a65726f000000000000815250614b8a565b905092915050565b614976828261337c565b6149cb576040517f08c379a0000000000000000000000000000000000000000000000000000000008152600401808060200182810382526021815260200180614e286021913960400191505060405180910390fd5b60008260000160008373ffffffffffffffffffffffffffffffffffffffff1673ffffffffffffffffffffffffffffffffffffffff16815260200190815260200160002060006101000a81548160ff0219169083151502179055505050565b614a33828261337c565b15614aa6576040517f08c379a000000000000000000000000000000000000000000000000000000000815260040180806020018281038252601f8152602001807f526f6c65733a206163636f756e7420616c72656164792068617320726f6c650081525060200191505060405180910390fd5b60018260000160008373ffffffffffffffffffffffffffffffffffffffff1673ffffffffffffffffffffffffffffffffffffffff16815260200190815260200160002060006101000a81548160ff0219169083151502179055505050565b614b0c61240d565b614b7e576040517f08c379a00000000000000000000000000000000000000000000000000000000081526004018080602001828103825260208152602001807f4f776e61626c653a2063616c6c6572206973206e6f7420746865206f776e657281525060200191505060405180910390fd5b614b8781614c50565b50565b60008083118290614c36576040517f08c379a00000000000000000000000000000000000000000000000000000000081526004018080602001828103825283818151815260200191508051906020019080838360005b83811015614bfb578082015181840152602081019050614be0565b50505050905090810190601f168015614c285780820380516001836020036101000a031916815260200191505b509250505060405180910390fd5b506000838581614c4257fe5b049050809150509392505050565b600073ffffffffffffffffffffffffffffffffffffffff168173ffffffffffffffffffffffffffffffffffffffff161415614cd6576040517f08c379a0000000000000000000000000000000000000000000000000000000008152600401808060200182810382526026815260200180614dba6026913960400191505060405180910390fd5b8073ffffffffffffffffffffffffffffffffffffffff16600360009054906101000a900473ffffffffffffffffffffffffffffffffffffffff1673ffffffffffffffffffffffffffffffffffffffff167f8be0079c531659141344cd1fd0a4f28419497f9722a3daafe3b4186f6b6457e060405160405180910390a380600360006101000a81548173ffffffffffffffffffffffffffffffffffffffff021916908373ffffffffffffffffffffffffffffffffffffffff1602179055505056fe45524332303a207472616e7366657220746f20746865207a65726f20616464726573734f776e61626c653a206e6577206f776e657220697320746865207a65726f206164647265737345524332303a20617070726f766520746f20746865207a65726f206164647265737345524332303a207472616e7366657220616d6f756e7420657863656564732062616c616e6365526f6c65733a206163636f756e7420646f6573206e6f74206861766520726f6c65536166654d6174683a206d756c7469706c69636174696f6e206f766572666c6f7745524332303a207472616e7366657220616d6f756e74206578636565647320616c6c6f77616e6365526f6c65733a206163636f756e7420697320746865207a65726f206164647265737345524332303a207472616e736665722066726f6d20746865207a65726f206164647265737345524332303a20617070726f76652066726f6d20746865207a65726f2061646472657373696e76616c696420636c6966662f6475726174696f6e20666f7220696e74657276616c45524332303a2064656372656173656420616c6c6f77616e63652062656c6f77207a65726fa265627a7a723158209eed8d8328505a2f6dff1c588a52306e10875ea06ebcb09bdacc9054ea251eac64736f6c634300050b0032526f6c65733a206163636f756e7420697320746865207a65726f2061646472657373",
  "source": "pragma solidity ^0.5.7;\n\nimport \"./ERC20Vestable.sol\";\n\n/**\n * @title Contract for uniform granting of vesting tokens\n *\n * @notice Adds methods for programmatic creation of uniform or standard token vesting grants.\n *\n * @dev This is primarily for use by exchanges and scripted internal employee incentive grant creation.\n */\ncontract UniformTokenGrantor is ERC20Vestable {\n    struct restrictions {\n        bool isValid;\n        uint32 minStartDay; /* The smallest value for startDay allowed in grant creation. */\n        uint32 maxStartDay; /* The maximum value for startDay allowed in grant creation. */\n        uint32 expirationDay; /* The last day this grantor may make grants. */\n    }\n\n    mapping(address => restrictions) private _restrictions;\n\n    // =========================================================================\n    // === Uniform token grant setup\n    // === Methods used by owner to set up uniform grants on restricted grantor\n    // =========================================================================\n\n    event GrantorRestrictionsSet(\n        address indexed grantor,\n        uint32 minStartDay,\n        uint32 maxStartDay,\n        uint32 expirationDay\n    );\n\n    /**\n     * @dev Lets owner set or change existing specific restrictions. Restrictions must be established\n     * before the grantor will be allowed to issue grants.\n     *\n     * All date values are expressed as number of days since the UNIX epoch. Note that the inputs are\n     * themselves not very thoroughly restricted. However, this method can be called more than once\n     * if incorrect values need to be changed, or to extend a grantor's expiration date.\n     *\n     * @param grantor = Address which will receive the uniform grantable vesting schedule.\n     * @param minStartDay = The smallest value for startDay allowed in grant creation.\n     * @param maxStartDay = The maximum value for startDay allowed in grant creation.\n     * @param expirationDay = The last day this grantor may make grants.\n     */\n    function setRestrictions(\n        address grantor,\n        uint32 minStartDay,\n        uint32 maxStartDay,\n        uint32 expirationDay\n    ) public onlyOwner onlyExistingAccount(grantor) returns (bool ok) {\n        require(\n            isUniformGrantor(grantor) && maxStartDay > minStartDay && expirationDay > today(),\n            \"invalid params\"\n        );\n\n        // We allow owner to set or change existing specific restrictions.\n        _restrictions[grantor] = restrictions(\n            true, /*isValid*/\n            minStartDay,\n            maxStartDay,\n            expirationDay\n        );\n\n        // Emit the event and return success.\n        emit GrantorRestrictionsSet(grantor, minStartDay, maxStartDay, expirationDay);\n        return true;\n    }\n\n    /**\n     * @dev Lets owner permanently establish a vesting schedule for a restricted grantor to use when\n     * creating uniform token grants. Grantee accounts forever refer to the grantor's account to look up\n     * vesting, so this method can only be used once per grantor.\n     *\n     * @param grantor = Address which will receive the uniform grantable vesting schedule.\n     * @param duration = Duration of the vesting schedule, with respect to the grant start day, in days.\n     * @param cliffDuration = Duration of the cliff, with respect to the grant start day, in days.\n     * @param interval = Number of days between vesting increases.\n     * @param isRevocable = True if the grant can be revoked (i.e. was a gift) or false if it cannot\n     *   be revoked (i.e. tokens were purchased).\n     */\n    function setGrantorVestingSchedule(\n        address grantor,\n        uint32 duration,\n        uint32 cliffDuration,\n        uint32 interval,\n        bool isRevocable\n    ) public onlyOwner onlyExistingAccount(grantor) returns (bool ok) {\n        // Only allow doing this to restricted grantor role account.\n        require(isUniformGrantor(grantor), \"uniform grantor only\");\n        // Make sure no prior vesting schedule has been set!\n        require(!_hasVestingSchedule(grantor), \"schedule already exists\");\n\n        // The vesting schedule is unique to this grantor wallet and so will be stored here to be\n        // referenced by future grants. Emits VestingScheduleCreated event.\n        _setVestingSchedule(grantor, cliffDuration, duration, interval, isRevocable);\n\n        return true;\n    }\n\n    // =========================================================================\n    // === Uniform token grants\n    // === Methods to be used by exchanges to use for creating tokens.\n    // =========================================================================\n\n    function isUniformGrantorWithSchedule(address account) internal view returns (bool ok) {\n        // Check for grantor that has a uniform vesting schedule already set.\n        return isUniformGrantor(account) && _hasVestingSchedule(account);\n    }\n\n    modifier onlyUniformGrantorWithSchedule(address account) {\n        require(isUniformGrantorWithSchedule(account), \"grantor account not ready\");\n        _;\n    }\n\n    modifier whenGrantorRestrictionsMet(uint32 startDay) {\n        restrictions storage restriction = _restrictions[msg.sender];\n        require(restriction.isValid, \"set restrictions first\");\n\n        require(\n            startDay >= restriction.minStartDay && startDay < restriction.maxStartDay,\n            \"startDay too early\"\n        );\n\n        require(today() < restriction.expirationDay, \"grantor expired\");\n        _;\n    }\n\n    /**\n     * @dev Immediately grants tokens to an address, including a portion that will vest over time\n     * according to the uniform vesting schedule already established in the grantor's account.\n     *\n     * @param beneficiary = Address to which tokens will be granted.\n     * @param totalAmount = Total number of tokens to deposit into the account.\n     * @param vestingAmount = Out of totalAmount, the number of tokens subject to vesting.\n     * @param startDay = Start day of the grant's vesting schedule, in days since the UNIX epoch\n     *   (start of day). The startDay may be given as a date in the future or in the past, going as far\n     *   back as year 2000.\n     */\n    function grantUniformVestingTokens(\n        address beneficiary,\n        uint256 totalAmount,\n        uint256 vestingAmount,\n        uint32 startDay\n    )\n        public\n        onlyUniformGrantorWithSchedule(msg.sender)\n        whenGrantorRestrictionsMet(startDay)\n        returns (bool ok)\n    {\n        // Issue grantor tokens to the beneficiary, using beneficiary's own vesting schedule.\n        // Emits VestingTokensGranted event.\n        return\n            _grantVestingTokens(\n                beneficiary,\n                totalAmount,\n                vestingAmount,\n                startDay,\n                msg.sender,\n                msg.sender\n            );\n    }\n\n    /**\n     * @dev This variant only grants tokens if the beneficiary account has previously self-registered.\n     */\n    function safeGrantUniformVestingTokens(\n        address beneficiary,\n        uint256 totalAmount,\n        uint256 vestingAmount,\n        uint32 startDay\n    )\n        public\n        onlyUniformGrantorWithSchedule(msg.sender)\n        whenGrantorRestrictionsMet(startDay)\n        onlyExistingAccount(beneficiary)\n        returns (bool ok)\n    {\n        // Issue grantor tokens to the beneficiary, using beneficiary's own vesting schedule.\n        // Emits VestingTokensGranted event.\n        return\n            _grantVestingTokens(\n                beneficiary,\n                totalAmount,\n                vestingAmount,\n                startDay,\n                msg.sender,\n                msg.sender\n            );\n    }\n}\n",
  "sourcePath": "/home/adrian/work/paypolitan_token/Paypolitan_token/contracts/UniformTokenGrantor.sol",
  "compiler": {
    "name": "solc",
    "version": "0.5.11+commit.c082d0b4.Emscripten.clang"
  },
  "schemaVersion": "3.0.13",
  "updatedAt": "2019-09-04T14:17:16.872Z",
  "devdoc": {
    "details": "This is primarily for use by exchanges and scripted internal employee incentive grant creation.",
    "methods": {
      "allowance(address,address)": {
        "details": "See {IERC20-allowance}."
      },
      "approve(address,uint256)": {
        "details": "Additional available funds check to prevent spending held but non-vested tokens."
      },
      "balanceOf(address)": {
        "details": "See {IERC20-balanceOf}."
      },
      "decreaseAllowance(address,uint256)": {
        "details": "Atomically decreases the allowance granted to `spender` by the caller.     * This is an alternative to {approve} that can be used as a mitigation for problems described in {IERC20-approve}.     * Emits an {Approval} event indicating the updated allowance.     * Requirements:     * - `spender` cannot be the zero address. - `spender` must have allowance for the caller of at least `subtractedValue`."
      },
      "getIntrinsicVestingSchedule(address)": {
        "details": "returns all information about the vesting schedule directly associated with the given account. This can be used to double check that a uniform grantor has been set up with a correct vesting schedule. Also, recipients of standard (non-uniform) grants can use this. This method is only callable by the account holder or a grantor, so this is mainly intended for administrative use.     * Holders of uniform grants must use vestingAsOf() to view their vesting schedule, as it is stored in the grantor account.",
        "params": {
          "grantHolder": "= The address to do this for.  the special value 0 to indicate today."
        },
        "return": "= A tuple with the following values:  vestDuration = grant duration in days.  cliffDuration = duration of the cliff.  vestIntervalDays = number of days between vesting periods."
      },
      "grantUniformVestingTokens(address,uint256,uint256,uint32)": {
        "details": "Immediately grants tokens to an address, including a portion that will vest over time according to the uniform vesting schedule already established in the grantor's account.",
        "params": {
          "beneficiary": "= Address to which tokens will be granted.",
          "startDay": "= Start day of the grant's vesting schedule, in days since the UNIX epoch  (start of day). The startDay may be given as a date in the future or in the past, going as far  back as year 2000.",
          "totalAmount": "= Total number of tokens to deposit into the account.",
          "vestingAmount": "= Out of totalAmount, the number of tokens subject to vesting."
        }
      },
      "grantVestingTokens(address,uint256,uint256,uint32,uint32,uint32,uint32,bool)": {
        "details": "Immediately grants tokens to an address, including a portion that will vest over time according to a set vesting schedule. The overall duration and cliff duration of the grant must be an even multiple of the vesting interval.",
        "params": {
          "beneficiary": "= Address to which tokens will be granted.",
          "cliffDuration": "= Duration of the cliff, with respect to the grant start day, in days.",
          "duration": "= Duration of the vesting schedule, with respect to the grant start day, in days.",
          "interval": "= Number of days between vesting increases.",
          "isRevocable": "= True if the grant can be revoked (i.e. was a gift) or false if it cannot  be revoked (i.e. tokens were purchased).",
          "startDay": "= Start day of the grant's vesting schedule, in days since the UNIX epoch  (start of day). The startDay may be given as a date in the future or in the past, going as far  back as year 2000.",
          "totalAmount": "= Total number of tokens to deposit into the account.",
          "vestingAmount": "= Out of totalAmount, the number of tokens subject to vesting."
        }
      },
      "increaseAllowance(address,uint256)": {
        "details": "Atomically increases the allowance granted to `spender` by the caller.     * This is an alternative to {approve} that can be used as a mitigation for problems described in {IERC20-approve}.     * Emits an {Approval} event indicating the updated allowance.     * Requirements:     * - `spender` cannot be the zero address."
      },
      "isOwner()": {
        "details": "Returns true if the caller is the current owner."
      },
      "owner()": {
        "details": "Returns the address of the current owner."
      },
      "revokeGrant(address,uint32)": {
        "details": "If the account has a revocable grant, this forces the grant to end based on computing the amount vested up to the given date. All tokens that would no longer vest are returned to the account of the original grantor.",
        "params": {
          "grantHolder": "= Address to which tokens will be granted.",
          "onDay": "= The date upon which the vesting schedule will be effectively terminated,  in days since the UNIX epoch (start of day)."
        }
      },
      "safeGrantUniformVestingTokens(address,uint256,uint256,uint32)": {
        "details": "This variant only grants tokens if the beneficiary account has previously self-registered."
      },
      "safeGrantVestingTokens(address,uint256,uint256,uint32,uint32,uint32,uint32,bool)": {
        "details": "This variant only grants tokens if the beneficiary account has previously self-registered."
      },
      "setGrantorVestingSchedule(address,uint32,uint32,uint32,bool)": {
        "details": "Lets owner permanently establish a vesting schedule for a restricted grantor to use when creating uniform token grants. Grantee accounts forever refer to the grantor's account to look up vesting, so this method can only be used once per grantor.",
        "params": {
          "cliffDuration": "= Duration of the cliff, with respect to the grant start day, in days.",
          "duration": "= Duration of the vesting schedule, with respect to the grant start day, in days.",
          "grantor": "= Address which will receive the uniform grantable vesting schedule.",
          "interval": "= Number of days between vesting increases.",
          "isRevocable": "= True if the grant can be revoked (i.e. was a gift) or false if it cannot  be revoked (i.e. tokens were purchased)."
        }
      },
      "setRestrictions(address,uint32,uint32,uint32)": {
        "details": "Lets owner set or change existing specific restrictions. Restrictions must be established before the grantor will be allowed to issue grants.     * All date values are expressed as number of days since the UNIX epoch. Note that the inputs are themselves not very thoroughly restricted. However, this method can be called more than once if incorrect values need to be changed, or to extend a grantor's expiration date.",
        "params": {
          "expirationDay": "= The last day this grantor may make grants.",
          "grantor": "= Address which will receive the uniform grantable vesting schedule.",
          "maxStartDay": "= The maximum value for startDay allowed in grant creation.",
          "minStartDay": "= The smallest value for startDay allowed in grant creation."
        }
      },
      "today()": {
        "details": "returns the day number of the current day, in days since the UNIX epoch."
      },
      "totalSupply()": {
        "details": "See {IERC20-totalSupply}."
      },
      "transfer(address,uint256)": {
        "details": "Methods transfer() and approve() require an additional available funds check to prevent spending held but non-vested tokens. Note that transferFrom() does NOT have this additional check because approved funds come from an already set-aside allowance, not from the wallet."
      },
      "transferFrom(address,address,uint256)": {
        "details": "See {IERC20-transferFrom}.     * Emits an {Approval} event indicating the updated allowance. This is not required by the EIP. See the note at the beginning of {ERC20};     * Requirements: - `sender` and `recipient` cannot be the zero address. - `sender` must have a balance of at least `amount`. - the caller must have allowance for `sender`'s tokens of at least `amount`."
      },
      "transferOwnership(address)": {
        "details": "Allows the current owner to transfer control of the contract to a newOwner.",
        "params": {
          "newOwner": "The address to transfer ownership to."
        }
      },
      "vestingAsOf(uint32)": {
        "details": "returns all information about the grant's vesting as of the given day for the current account, to be called by the account holder.",
        "params": {
          "onDayOrToday": "= The day to check for, in days since the UNIX epoch. Can pass  the special value 0 to indicate today."
        },
        "return": "= A tuple with the following values:  amountVested = the amount out of vestingAmount that is vested  amountNotVested = the amount that is vested (equal to vestingAmount - vestedAmount)  amountOfGrant = the amount of tokens subject to vesting.  vestStartDay = starting day of the grant (in days since the UNIX epoch).  cliffDuration = duration of the cliff.  vestDuration = grant duration in days.  vestIntervalDays = number of days between vesting periods.  isActive = true if the vesting schedule is currently active.  wasRevoked = true if the vesting schedule was revoked."
      },
      "vestingForAccountAsOf(address,uint32)": {
        "details": "returns all information about the grant's vesting as of the given day for the given account. Only callable by the account holder or a grantor, so this is mainly intended for administrative use.",
        "params": {
          "grantHolder": "= The address to do this for.",
          "onDayOrToday": "= The day to check for, in days since the UNIX epoch. Can pass  the special value 0 to indicate today."
        },
        "return": "= A tuple with the following values:  amountVested = the amount out of vestingAmount that is vested  amountNotVested = the amount that is vested (equal to vestingAmount - vestedAmount)  amountOfGrant = the amount of tokens subject to vesting.  vestStartDay = starting day of the grant (in days since the UNIX epoch).  vestDuration = grant duration in days.  cliffDuration = duration of the cliff.  vestIntervalDays = number of days between vesting periods.  isActive = true if the vesting schedule is currently active.  wasRevoked = true if the vesting schedule was revoked."
      }
    },
    "title": "Contract for uniform granting of vesting tokens"
  },
  "userdoc": {
    "methods": {
      "registerAccount()": {
        "notice": "This registers the calling wallet address as a known address. Operations that transfer responsibility may require the target account to be a registered account, to protect the system from getting into a state where administration or a large amount of funds can become forever inaccessible."
      },
      "renounceOwnership()": {
        "notice": "Ensure there is no way for the contract to end up with no owner. That would inadvertently result in token grant administration becoming impossible. We override this to always disallow it."
      }
    },
    "notice": "Adds methods for programmatic creation of uniform or standard token vesting grants."
  }
}